{
	"TecnoCoin.sol": {
		"TecnoCoin": {
			"abi": [
				{
					"inputs": [
						{
							"internalType": "uint256",
							"name": "initialSupply",
							"type": "uint256"
						},
						{
							"internalType": "uint256",
							"name": "maxSupply",
							"type": "uint256"
						}
					],
					"stateMutability": "nonpayable",
					"type": "constructor"
				},
				{
					"inputs": [
						{
							"internalType": "uint256",
							"name": "increasedSupply",
							"type": "uint256"
						},
						{
							"internalType": "uint256",
							"name": "cap",
							"type": "uint256"
						}
					],
					"name": "ERC20ExceededCap",
					"type": "error"
				},
				{
					"inputs": [
						{
							"internalType": "address",
							"name": "spender",
							"type": "address"
						},
						{
							"internalType": "uint256",
							"name": "allowance",
							"type": "uint256"
						},
						{
							"internalType": "uint256",
							"name": "needed",
							"type": "uint256"
						}
					],
					"name": "ERC20InsufficientAllowance",
					"type": "error"
				},
				{
					"inputs": [
						{
							"internalType": "address",
							"name": "sender",
							"type": "address"
						},
						{
							"internalType": "uint256",
							"name": "balance",
							"type": "uint256"
						},
						{
							"internalType": "uint256",
							"name": "needed",
							"type": "uint256"
						}
					],
					"name": "ERC20InsufficientBalance",
					"type": "error"
				},
				{
					"inputs": [
						{
							"internalType": "address",
							"name": "approver",
							"type": "address"
						}
					],
					"name": "ERC20InvalidApprover",
					"type": "error"
				},
				{
					"inputs": [
						{
							"internalType": "uint256",
							"name": "cap",
							"type": "uint256"
						}
					],
					"name": "ERC20InvalidCap",
					"type": "error"
				},
				{
					"inputs": [
						{
							"internalType": "address",
							"name": "receiver",
							"type": "address"
						}
					],
					"name": "ERC20InvalidReceiver",
					"type": "error"
				},
				{
					"inputs": [
						{
							"internalType": "address",
							"name": "sender",
							"type": "address"
						}
					],
					"name": "ERC20InvalidSender",
					"type": "error"
				},
				{
					"inputs": [
						{
							"internalType": "address",
							"name": "spender",
							"type": "address"
						}
					],
					"name": "ERC20InvalidSpender",
					"type": "error"
				},
				{
					"inputs": [],
					"name": "MaxSupplyAlcanzado",
					"type": "error"
				},
				{
					"inputs": [
						{
							"internalType": "address",
							"name": "owner",
							"type": "address"
						}
					],
					"name": "OwnableInvalidOwner",
					"type": "error"
				},
				{
					"inputs": [
						{
							"internalType": "address",
							"name": "account",
							"type": "address"
						}
					],
					"name": "OwnableUnauthorizedAccount",
					"type": "error"
				},
				{
					"anonymous": false,
					"inputs": [
						{
							"indexed": true,
							"internalType": "address",
							"name": "owner",
							"type": "address"
						},
						{
							"indexed": true,
							"internalType": "address",
							"name": "spender",
							"type": "address"
						},
						{
							"indexed": false,
							"internalType": "uint256",
							"name": "value",
							"type": "uint256"
						}
					],
					"name": "Approval",
					"type": "event"
				},
				{
					"anonymous": false,
					"inputs": [
						{
							"indexed": true,
							"internalType": "address",
							"name": "previousOwner",
							"type": "address"
						},
						{
							"indexed": true,
							"internalType": "address",
							"name": "newOwner",
							"type": "address"
						}
					],
					"name": "OwnershipTransferred",
					"type": "event"
				},
				{
					"anonymous": false,
					"inputs": [
						{
							"indexed": true,
							"internalType": "address",
							"name": "from",
							"type": "address"
						},
						{
							"indexed": true,
							"internalType": "address",
							"name": "to",
							"type": "address"
						},
						{
							"indexed": false,
							"internalType": "uint256",
							"name": "value",
							"type": "uint256"
						}
					],
					"name": "Transfer",
					"type": "event"
				},
				{
					"inputs": [
						{
							"internalType": "address",
							"name": "owner",
							"type": "address"
						},
						{
							"internalType": "address",
							"name": "spender",
							"type": "address"
						}
					],
					"name": "allowance",
					"outputs": [
						{
							"internalType": "uint256",
							"name": "",
							"type": "uint256"
						}
					],
					"stateMutability": "view",
					"type": "function"
				},
				{
					"inputs": [
						{
							"internalType": "address",
							"name": "spender",
							"type": "address"
						},
						{
							"internalType": "uint256",
							"name": "value",
							"type": "uint256"
						}
					],
					"name": "approve",
					"outputs": [
						{
							"internalType": "bool",
							"name": "",
							"type": "bool"
						}
					],
					"stateMutability": "nonpayable",
					"type": "function"
				},
				{
					"inputs": [
						{
							"internalType": "address",
							"name": "account",
							"type": "address"
						}
					],
					"name": "balanceOf",
					"outputs": [
						{
							"internalType": "uint256",
							"name": "",
							"type": "uint256"
						}
					],
					"stateMutability": "view",
					"type": "function"
				},
				{
					"inputs": [
						{
							"internalType": "uint256",
							"name": "value",
							"type": "uint256"
						}
					],
					"name": "burn",
					"outputs": [],
					"stateMutability": "nonpayable",
					"type": "function"
				},
				{
					"inputs": [
						{
							"internalType": "address",
							"name": "account",
							"type": "address"
						},
						{
							"internalType": "uint256",
							"name": "value",
							"type": "uint256"
						}
					],
					"name": "burnFrom",
					"outputs": [],
					"stateMutability": "nonpayable",
					"type": "function"
				},
				{
					"inputs": [],
					"name": "cap",
					"outputs": [
						{
							"internalType": "uint256",
							"name": "",
							"type": "uint256"
						}
					],
					"stateMutability": "view",
					"type": "function"
				},
				{
					"inputs": [],
					"name": "decimals",
					"outputs": [
						{
							"internalType": "uint8",
							"name": "",
							"type": "uint8"
						}
					],
					"stateMutability": "view",
					"type": "function"
				},
				{
					"inputs": [
						{
							"internalType": "address",
							"name": "to",
							"type": "address"
						},
						{
							"internalType": "uint256",
							"name": "amount",
							"type": "uint256"
						}
					],
					"name": "mint",
					"outputs": [],
					"stateMutability": "nonpayable",
					"type": "function"
				},
				{
					"inputs": [],
					"name": "name",
					"outputs": [
						{
							"internalType": "string",
							"name": "",
							"type": "string"
						}
					],
					"stateMutability": "view",
					"type": "function"
				},
				{
					"inputs": [],
					"name": "owner",
					"outputs": [
						{
							"internalType": "address",
							"name": "",
							"type": "address"
						}
					],
					"stateMutability": "view",
					"type": "function"
				},
				{
					"inputs": [],
					"name": "renounceOwnership",
					"outputs": [],
					"stateMutability": "nonpayable",
					"type": "function"
				},
				{
					"inputs": [],
					"name": "symbol",
					"outputs": [
						{
							"internalType": "string",
							"name": "",
							"type": "string"
						}
					],
					"stateMutability": "view",
					"type": "function"
				},
				{
					"inputs": [],
					"name": "totalSupply",
					"outputs": [
						{
							"internalType": "uint256",
							"name": "",
							"type": "uint256"
						}
					],
					"stateMutability": "view",
					"type": "function"
				},
				{
					"inputs": [
						{
							"internalType": "address",
							"name": "to",
							"type": "address"
						},
						{
							"internalType": "uint256",
							"name": "value",
							"type": "uint256"
						}
					],
					"name": "transfer",
					"outputs": [
						{
							"internalType": "bool",
							"name": "",
							"type": "bool"
						}
					],
					"stateMutability": "nonpayable",
					"type": "function"
				},
				{
					"inputs": [
						{
							"internalType": "address",
							"name": "from",
							"type": "address"
						},
						{
							"internalType": "address",
							"name": "to",
							"type": "address"
						},
						{
							"internalType": "uint256",
							"name": "value",
							"type": "uint256"
						}
					],
					"name": "transferFrom",
					"outputs": [
						{
							"internalType": "bool",
							"name": "",
							"type": "bool"
						}
					],
					"stateMutability": "nonpayable",
					"type": "function"
				},
				{
					"inputs": [
						{
							"internalType": "address",
							"name": "newOwner",
							"type": "address"
						}
					],
					"name": "transferOwnership",
					"outputs": [],
					"stateMutability": "nonpayable",
					"type": "function"
				}
			],
			"devdoc": {
				"errors": {
					"ERC20ExceededCap(uint256,uint256)": [
						{
							"details": "Total supply cap has been exceeded."
						}
					],
					"ERC20InsufficientAllowance(address,uint256,uint256)": [
						{
							"details": "Indicates a failure with the `spender`’s `allowance`. Used in transfers.",
							"params": {
								"allowance": "Amount of tokens a `spender` is allowed to operate with.",
								"needed": "Minimum amount required to perform a transfer.",
								"spender": "Address that may be allowed to operate on tokens without being their owner."
							}
						}
					],
					"ERC20InsufficientBalance(address,uint256,uint256)": [
						{
							"details": "Indicates an error related to the current `balance` of a `sender`. Used in transfers.",
							"params": {
								"balance": "Current balance for the interacting account.",
								"needed": "Minimum amount required to perform a transfer.",
								"sender": "Address whose tokens are being transferred."
							}
						}
					],
					"ERC20InvalidApprover(address)": [
						{
							"details": "Indicates a failure with the `approver` of a token to be approved. Used in approvals.",
							"params": {
								"approver": "Address initiating an approval operation."
							}
						}
					],
					"ERC20InvalidCap(uint256)": [
						{
							"details": "The supplied cap is not a valid cap."
						}
					],
					"ERC20InvalidReceiver(address)": [
						{
							"details": "Indicates a failure with the token `receiver`. Used in transfers.",
							"params": {
								"receiver": "Address to which tokens are being transferred."
							}
						}
					],
					"ERC20InvalidSender(address)": [
						{
							"details": "Indicates a failure with the token `sender`. Used in transfers.",
							"params": {
								"sender": "Address whose tokens are being transferred."
							}
						}
					],
					"ERC20InvalidSpender(address)": [
						{
							"details": "Indicates a failure with the `spender` to be approved. Used in approvals.",
							"params": {
								"spender": "Address that may be allowed to operate on tokens without being their owner."
							}
						}
					],
					"OwnableInvalidOwner(address)": [
						{
							"details": "The owner is not a valid owner account. (eg. `address(0)`)"
						}
					],
					"OwnableUnauthorizedAccount(address)": [
						{
							"details": "The caller account is not authorized to perform an operation."
						}
					]
				},
				"events": {
					"Approval(address,address,uint256)": {
						"details": "Emitted when the allowance of a `spender` for an `owner` is set by a call to {approve}. `value` is the new allowance."
					},
					"Transfer(address,address,uint256)": {
						"details": "Emitted when `value` tokens are moved from one account (`from`) to another (`to`). Note that `value` may be zero."
					}
				},
				"kind": "dev",
				"methods": {
					"allowance(address,address)": {
						"details": "See {IERC20-allowance}."
					},
					"approve(address,uint256)": {
						"details": "See {IERC20-approve}. NOTE: If `value` is the maximum `uint256`, the allowance is not updated on `transferFrom`. This is semantically equivalent to an infinite approval. Requirements: - `spender` cannot be the zero address."
					},
					"balanceOf(address)": {
						"details": "See {IERC20-balanceOf}."
					},
					"burn(uint256)": {
						"details": "Destroys a `value` amount of tokens from the caller. See {ERC20-_burn}."
					},
					"burnFrom(address,uint256)": {
						"details": "Destroys a `value` amount of tokens from `account`, deducting from the caller's allowance. See {ERC20-_burn} and {ERC20-allowance}. Requirements: - the caller must have allowance for ``accounts``'s tokens of at least `value`."
					},
					"cap()": {
						"details": "Returns the cap on the token's total supply."
					},
					"decimals()": {
						"details": "Returns the number of decimals used to get its user representation. For example, if `decimals` equals `2`, a balance of `505` tokens should be displayed to a user as `5.05` (`505 / 10 ** 2`). Tokens usually opt for a value of 18, imitating the relationship between Ether and Wei. This is the default value returned by this function, unless it's overridden. NOTE: This information is only used for _display_ purposes: it in no way affects any of the arithmetic of the contract, including {IERC20-balanceOf} and {IERC20-transfer}."
					},
					"name()": {
						"details": "Returns the name of the token."
					},
					"owner()": {
						"details": "Returns the address of the current owner."
					},
					"renounceOwnership()": {
						"details": "Leaves the contract without owner. It will not be possible to call `onlyOwner` functions. Can only be called by the current owner. NOTE: Renouncing ownership will leave the contract without an owner, thereby disabling any functionality that is only available to the owner."
					},
					"symbol()": {
						"details": "Returns the symbol of the token, usually a shorter version of the name."
					},
					"totalSupply()": {
						"details": "See {IERC20-totalSupply}."
					},
					"transfer(address,uint256)": {
						"details": "See {IERC20-transfer}. Requirements: - `to` cannot be the zero address. - the caller must have a balance of at least `value`."
					},
					"transferFrom(address,address,uint256)": {
						"details": "See {IERC20-transferFrom}. Skips emitting an {Approval} event indicating an allowance update. This is not required by the ERC. See {xref-ERC20-_approve-address-address-uint256-bool-}[_approve]. NOTE: Does not update the allowance if the current allowance is the maximum `uint256`. Requirements: - `from` and `to` cannot be the zero address. - `from` must have a balance of at least `value`. - the caller must have allowance for ``from``'s tokens of at least `value`."
					},
					"transferOwnership(address)": {
						"details": "Transfers ownership of the contract to a new account (`newOwner`). Can only be called by the current owner."
					}
				},
				"version": 1
			},
			"evm": {
				"assembly": "    /* \"TecnoCoin.sol\":267:1145  contract TecnoCoin is ERC20Capped, ERC20Burnable, Ownable {... */\n  mstore(0x40, 0xa0)\n    /* \"TecnoCoin.sol\":367:665  constructor(uint256 initialSupply, uint256 maxSupply)... */\n  callvalue\n  dup1\n  iszero\n  tag_1\n  jumpi\n  revert(0x00, 0x00)\ntag_1:\n  pop\n  mload(0x40)\n  sub(codesize, bytecodeSize)\n  dup1\n  bytecodeSize\n  dup4\n  codecopy\n  dup2\n  add\n  0x40\n  dup2\n  swap1\n  mstore\n  tag_2\n  swap2\n  tag_3\n  jump\t// in\ntag_2:\n    /* \"TecnoCoin.sol\":524:534  msg.sender */\n  caller\n    /* \"TecnoCoin.sol\":489:505  10 ** decimals() */\n  tag_8\n    /* \"@openzeppelin/contracts/token/ERC20/ERC20.sol\":2761:2763  18 */\n  0x12\n    /* \"TecnoCoin.sol\":489:491  10 */\n  0x0a\n    /* \"TecnoCoin.sol\":489:505  10 ** decimals() */\n  tag_9\n  jump\t// in\ntag_8:\n    /* \"TecnoCoin.sol\":477:505  maxSupply * 10 ** decimals() */\n  tag_10\n  swap1\n    /* \"TecnoCoin.sol\":477:486  maxSupply */\n  dup4\n    /* \"TecnoCoin.sol\":477:505  maxSupply * 10 ** decimals() */\n  tag_11\n  jump\t// in\ntag_10:\n    /* \"@openzeppelin/contracts/token/ERC20/ERC20.sol\":1582:1695  constructor(string memory name_, string memory symbol_) {... */\n  mload(0x40)\n  dup1\n  0x40\n  add\n  0x40\n  mstore\n  dup1\n  0x09\n  dup2\n  mstore\n  0x20\n  add\n  shl(0xb9, 0x2a32b1b737a1b7b4b7)\n  dup2\n  mstore\n  pop\n  mload(0x40)\n  dup1\n  0x40\n  add\n  0x40\n  mstore\n  dup1\n  0x03\n  dup2\n  mstore\n  0x20\n  add\n  shl(0xe8, 0x544e43)\n  dup2\n  mstore\n  pop\n    /* \"@openzeppelin/contracts/token/ERC20/ERC20.sol\":1656:1661  name_ */\n  dup2\n    /* \"@openzeppelin/contracts/token/ERC20/ERC20.sol\":1648:1653  _name */\n  0x03\n    /* \"@openzeppelin/contracts/token/ERC20/ERC20.sol\":1648:1661  _name = name_ */\n  swap1\n  dup2\n  tag_15\n  swap2\n  swap1\n  tag_16\n  jump\t// in\ntag_15:\n  pop\n    /* \"@openzeppelin/contracts/token/ERC20/ERC20.sol\":1671:1678  _symbol */\n  0x04\n    /* \"@openzeppelin/contracts/token/ERC20/ERC20.sol\":1671:1688  _symbol = symbol_ */\n  tag_17\n    /* \"@openzeppelin/contracts/token/ERC20/ERC20.sol\":1681:1688  symbol_ */\n  dup3\n    /* \"@openzeppelin/contracts/token/ERC20/ERC20.sol\":1671:1678  _symbol */\n  dup3\n    /* \"@openzeppelin/contracts/token/ERC20/ERC20.sol\":1671:1688  _symbol = symbol_ */\n  tag_16\n  jump\t// in\ntag_17:\n  pop\n    /* \"@openzeppelin/contracts/token/ERC20/ERC20.sol\":1582:1695  constructor(string memory name_, string memory symbol_) {... */\n  pop\n  pop\n    /* \"@openzeppelin/contracts/token/ERC20/extensions/ERC20Capped.sol\":756:760  cap_ */\n  dup1\n    /* \"@openzeppelin/contracts/token/ERC20/extensions/ERC20Capped.sol\":764:765  0 */\n  0x00\n    /* \"@openzeppelin/contracts/token/ERC20/extensions/ERC20Capped.sol\":756:765  cap_ == 0 */\n  sub\n    /* \"@openzeppelin/contracts/token/ERC20/extensions/ERC20Capped.sol\":752:817  if (cap_ == 0) {... */\n  tag_19\n  jumpi\n    /* \"@openzeppelin/contracts/token/ERC20/extensions/ERC20Capped.sol\":788:806  ERC20InvalidCap(0) */\n  mload(0x40)\n  shl(0xe0, 0x392e1e27)\n  dup2\n  mstore\n    /* \"@openzeppelin/contracts/token/ERC20/extensions/ERC20Capped.sol\":804:805  0 */\n  0x00\n    /* \"@openzeppelin/contracts/token/ERC20/extensions/ERC20Capped.sol\":788:806  ERC20InvalidCap(0) */\n  0x04\n  dup3\n  add\n    /* \"#utility.yul\":4894:4919   */\n  mstore\n    /* \"#utility.yul\":4867:4885   */\n  0x24\n  add\n    /* \"@openzeppelin/contracts/token/ERC20/extensions/ERC20Capped.sol\":788:806  ERC20InvalidCap(0) */\ntag_20:\n  mload(0x40)\n  dup1\n  swap2\n  sub\n  swap1\n  revert\n    /* \"@openzeppelin/contracts/token/ERC20/extensions/ERC20Capped.sol\":752:817  if (cap_ == 0) {... */\ntag_19:\n    /* \"@openzeppelin/contracts/token/ERC20/extensions/ERC20Capped.sol\":826:837  _cap = cap_ */\n  0x80\n  mstore\n  sub(shl(0xa0, 0x01), 0x01)\n    /* \"@openzeppelin/contracts/access/Ownable.sol\":1273:1299  initialOwner == address(0) */\n  dup2\n  and\n    /* \"@openzeppelin/contracts/access/Ownable.sol\":1269:1364  if (initialOwner == address(0)) {... */\n  tag_23\n  jumpi\n    /* \"@openzeppelin/contracts/access/Ownable.sol\":1322:1353  OwnableInvalidOwner(address(0)) */\n  mload(0x40)\n  shl(0xe0, 0x1e4fbdf7)\n  dup2\n  mstore\n    /* \"@openzeppelin/contracts/access/Ownable.sol\":1350:1351  0 */\n  0x00\n    /* \"@openzeppelin/contracts/access/Ownable.sol\":1322:1353  OwnableInvalidOwner(address(0)) */\n  0x04\n  dup3\n  add\n    /* \"#utility.yul\":5076:5127   */\n  mstore\n    /* \"#utility.yul\":5049:5067   */\n  0x24\n  add\n    /* \"@openzeppelin/contracts/access/Ownable.sol\":1322:1353  OwnableInvalidOwner(address(0)) */\n  tag_20\n    /* \"#utility.yul\":4930:5133   */\n  jump\n    /* \"@openzeppelin/contracts/access/Ownable.sol\":1269:1364  if (initialOwner == address(0)) {... */\ntag_23:\n    /* \"@openzeppelin/contracts/access/Ownable.sol\":1373:1405  _transferOwnership(initialOwner) */\n  tag_26\n    /* \"@openzeppelin/contracts/access/Ownable.sol\":1392:1404  initialOwner */\n  dup2\n    /* \"@openzeppelin/contracts/access/Ownable.sol\":1373:1391  _transferOwnership */\n  tag_27\n    /* \"@openzeppelin/contracts/access/Ownable.sol\":1373:1405  _transferOwnership(initialOwner) */\n  jump\t// in\ntag_26:\n  pop\n    /* \"TecnoCoin.sol\":606:657  _mint(msg.sender, initialSupply * 10 ** decimals()) */\n  tag_29\n    /* \"TecnoCoin.sol\":612:622  msg.sender */\n  caller\n    /* \"TecnoCoin.sol\":640:656  10 ** decimals() */\n  tag_31\n    /* \"@openzeppelin/contracts/token/ERC20/ERC20.sol\":2761:2763  18 */\n  0x12\n    /* \"TecnoCoin.sol\":640:642  10 */\n  0x0a\n    /* \"TecnoCoin.sol\":640:656  10 ** decimals() */\n  tag_9\n  jump\t// in\ntag_31:\n    /* \"TecnoCoin.sol\":624:656  initialSupply * 10 ** decimals() */\n  tag_32\n  swap1\n    /* \"TecnoCoin.sol\":624:637  initialSupply */\n  dup6\n    /* \"TecnoCoin.sol\":624:656  initialSupply * 10 ** decimals() */\n  tag_11\n  jump\t// in\ntag_32:\n    /* \"TecnoCoin.sol\":606:611  _mint */\n  tag_33\n    /* \"TecnoCoin.sol\":606:657  _mint(msg.sender, initialSupply * 10 ** decimals()) */\n  jump\t// in\ntag_29:\n    /* \"TecnoCoin.sol\":367:665  constructor(uint256 initialSupply, uint256 maxSupply)... */\n  pop\n  pop\n    /* \"TecnoCoin.sol\":267:1145  contract TecnoCoin is ERC20Capped, ERC20Burnable, Ownable {... */\n  jump(tag_78)\n    /* \"@openzeppelin/contracts/access/Ownable.sol\":2912:3099  function _transferOwnership(address newOwner) internal virtual {... */\ntag_27:\n    /* \"@openzeppelin/contracts/access/Ownable.sol\":3004:3010  _owner */\n  0x05\n  dup1\n  sload\n  sub(shl(0xa0, 0x01), 0x01)\n    /* \"@openzeppelin/contracts/access/Ownable.sol\":3020:3037  _owner = newOwner */\n  dup4\n  dup2\n  and\n  not(sub(shl(0xa0, 0x01), 0x01))\n  dup4\n  and\n  dup2\n  or\n  swap1\n  swap4\n  sstore\n    /* \"@openzeppelin/contracts/access/Ownable.sol\":3052:3092  OwnershipTransferred(oldOwner, newOwner) */\n  mload(0x40)\n    /* \"@openzeppelin/contracts/access/Ownable.sol\":3004:3010  _owner */\n  swap2\n  and\n  swap2\n    /* \"@openzeppelin/contracts/access/Ownable.sol\":3020:3037  _owner = newOwner */\n  swap1\n    /* \"@openzeppelin/contracts/access/Ownable.sol\":3004:3010  _owner */\n  dup3\n  swap1\n    /* \"@openzeppelin/contracts/access/Ownable.sol\":3052:3092  OwnershipTransferred(oldOwner, newOwner) */\n  0x8be0079c531659141344cd1fd0a4f28419497f9722a3daafe3b4186f6b6457e0\n  swap1\n    /* \"@openzeppelin/contracts/access/Ownable.sol\":2985:3001  address oldOwner */\n  0x00\n  swap1\n    /* \"@openzeppelin/contracts/access/Ownable.sol\":3052:3092  OwnershipTransferred(oldOwner, newOwner) */\n  log3\n    /* \"@openzeppelin/contracts/access/Ownable.sol\":2975:3099  {... */\n  pop\n    /* \"@openzeppelin/contracts/access/Ownable.sol\":2912:3099  function _transferOwnership(address newOwner) internal virtual {... */\n  pop\n  jump\t// out\n    /* \"@openzeppelin/contracts/token/ERC20/ERC20.sol\":7439:7647  function _mint(address account, uint256 value) internal {... */\ntag_33:\n  sub(shl(0xa0, 0x01), 0x01)\n    /* \"@openzeppelin/contracts/token/ERC20/ERC20.sol\":7509:7530  account == address(0) */\n  dup3\n  and\n    /* \"@openzeppelin/contracts/token/ERC20/ERC20.sol\":7505:7596  if (account == address(0)) {... */\n  tag_38\n  jumpi\n    /* \"@openzeppelin/contracts/token/ERC20/ERC20.sol\":7553:7585  ERC20InvalidReceiver(address(0)) */\n  mload(0x40)\n  shl(0xe0, 0xec442f05)\n  dup2\n  mstore\n    /* \"@openzeppelin/contracts/token/ERC20/ERC20.sol\":7582:7583  0 */\n  0x00\n    /* \"@openzeppelin/contracts/token/ERC20/ERC20.sol\":7553:7585  ERC20InvalidReceiver(address(0)) */\n  0x04\n  dup3\n  add\n    /* \"#utility.yul\":5076:5127   */\n  mstore\n    /* \"#utility.yul\":5049:5067   */\n  0x24\n  add\n    /* \"@openzeppelin/contracts/token/ERC20/ERC20.sol\":7553:7585  ERC20InvalidReceiver(address(0)) */\n  tag_20\n    /* \"#utility.yul\":4930:5133   */\n  jump\n    /* \"@openzeppelin/contracts/token/ERC20/ERC20.sol\":7505:7596  if (account == address(0)) {... */\ntag_38:\n    /* \"@openzeppelin/contracts/token/ERC20/ERC20.sol\":7605:7640  _update(address(0), account, value) */\n  tag_40\n    /* \"@openzeppelin/contracts/token/ERC20/ERC20.sol\":7621:7622  0 */\n  0x00\n    /* \"@openzeppelin/contracts/token/ERC20/ERC20.sol\":7625:7632  account */\n  dup4\n    /* \"@openzeppelin/contracts/token/ERC20/ERC20.sol\":7634:7639  value */\n  dup4\n    /* \"@openzeppelin/contracts/token/ERC20/ERC20.sol\":7605:7612  _update */\n  tag_41\n    /* \"@openzeppelin/contracts/token/ERC20/ERC20.sol\":7605:7640  _update(address(0), account, value) */\n  jump\t// in\ntag_40:\n    /* \"@openzeppelin/contracts/token/ERC20/ERC20.sol\":7439:7647  function _mint(address account, uint256 value) internal {... */\n  pop\n  pop\n  jump\t// out\n    /* \"TecnoCoin.sol\":974:1142  function _update(address from, address to, uint256 value)... */\ntag_41:\n    /* \"TecnoCoin.sol\":1104:1134  super._update(from, to, value) */\n  tag_43\n    /* \"TecnoCoin.sol\":1118:1122  from */\n  dup4\n    /* \"TecnoCoin.sol\":1124:1126  to */\n  dup4\n    /* \"TecnoCoin.sol\":1128:1133  value */\n  dup4\n    /* \"TecnoCoin.sol\":1104:1117  super._update */\n  tag_44\n    /* \"TecnoCoin.sol\":1104:1134  super._update(from, to, value) */\n  jump\t// in\ntag_43:\n    /* \"TecnoCoin.sol\":974:1142  function _update(address from, address to, uint256 value)... */\n  pop\n  pop\n  pop\n  jump\t// out\n    /* \"@openzeppelin/contracts/token/ERC20/extensions/ERC20Capped.sol\":1059:1430  function _update(address from, address to, uint256 value) internal virtual override {... */\ntag_44:\n    /* \"@openzeppelin/contracts/token/ERC20/extensions/ERC20Capped.sol\":1153:1183  super._update(from, to, value) */\n  tag_46\n    /* \"@openzeppelin/contracts/token/ERC20/extensions/ERC20Capped.sol\":1167:1171  from */\n  dup4\n    /* \"@openzeppelin/contracts/token/ERC20/extensions/ERC20Capped.sol\":1173:1175  to */\n  dup4\n    /* \"@openzeppelin/contracts/token/ERC20/extensions/ERC20Capped.sol\":1177:1182  value */\n  dup4\n    /* \"@openzeppelin/contracts/token/ERC20/extensions/ERC20Capped.sol\":1153:1166  super._update */\n  tag_47\n    /* \"@openzeppelin/contracts/token/ERC20/extensions/ERC20Capped.sol\":1153:1183  super._update(from, to, value) */\n  jump\t// in\ntag_46:\n  sub(shl(0xa0, 0x01), 0x01)\n    /* \"@openzeppelin/contracts/token/ERC20/extensions/ERC20Capped.sol\":1198:1216  from == address(0) */\n  dup4\n  and\n    /* \"@openzeppelin/contracts/token/ERC20/extensions/ERC20Capped.sol\":1194:1424  if (from == address(0)) {... */\n  tag_43\n  jumpi\n    /* \"@openzeppelin/contracts/token/ERC20/extensions/ERC20Capped.sol\":1232:1249  uint256 maxSupply */\n  0x00\n    /* \"@openzeppelin/contracts/token/ERC20/extensions/ERC20Capped.sol\":1252:1257  cap() */\n  tag_49\n    /* \"@openzeppelin/contracts/token/ERC20/extensions/ERC20Capped.sol\":993:997  _cap */\n  mload(0x80)\n  swap1\n    /* \"@openzeppelin/contracts/token/ERC20/extensions/ERC20Capped.sol\":923:1004  function cap() public view virtual returns (uint256) {... */\n  jump\n    /* \"@openzeppelin/contracts/token/ERC20/extensions/ERC20Capped.sol\":1252:1257  cap() */\ntag_49:\n    /* \"@openzeppelin/contracts/token/ERC20/extensions/ERC20Capped.sol\":1232:1257  uint256 maxSupply = cap() */\n  swap1\n  pop\n    /* \"@openzeppelin/contracts/token/ERC20/extensions/ERC20Capped.sol\":1271:1285  uint256 supply */\n  0x00\n    /* \"@openzeppelin/contracts/token/ERC20/extensions/ERC20Capped.sol\":1288:1301  totalSupply() */\n  tag_51\n    /* \"@openzeppelin/contracts/token/ERC20/ERC20.sol\":2908:2920  _totalSupply */\n  sload(0x02)\n  swap1\n    /* \"@openzeppelin/contracts/token/ERC20/ERC20.sol\":2830:2927  function totalSupply() public view virtual returns (uint256) {... */\n  jump\n    /* \"@openzeppelin/contracts/token/ERC20/extensions/ERC20Capped.sol\":1288:1301  totalSupply() */\ntag_51:\n    /* \"@openzeppelin/contracts/token/ERC20/extensions/ERC20Capped.sol\":1271:1301  uint256 supply = totalSupply() */\n  swap1\n  pop\n    /* \"@openzeppelin/contracts/token/ERC20/extensions/ERC20Capped.sol\":1328:1337  maxSupply */\n  dup2\n    /* \"@openzeppelin/contracts/token/ERC20/extensions/ERC20Capped.sol\":1319:1325  supply */\n  dup2\n    /* \"@openzeppelin/contracts/token/ERC20/extensions/ERC20Capped.sol\":1319:1337  supply > maxSupply */\n  gt\n    /* \"@openzeppelin/contracts/token/ERC20/extensions/ERC20Capped.sol\":1315:1414  if (supply > maxSupply) {... */\n  iszero\n  tag_53\n  jumpi\n    /* \"@openzeppelin/contracts/token/ERC20/extensions/ERC20Capped.sol\":1364:1399  ERC20ExceededCap(supply, maxSupply) */\n  mload(0x40)\n  shl(0xe2, 0x279e7e15)\n  dup2\n  mstore\n  0x04\n  dup2\n  add\n    /* \"#utility.yul\":5312:5337   */\n  dup3\n  swap1\n  mstore\n    /* \"#utility.yul\":5353:5371   */\n  0x24\n  dup2\n  add\n    /* \"#utility.yul\":5346:5380   */\n  dup4\n  swap1\n  mstore\n    /* \"#utility.yul\":5285:5303   */\n  0x44\n  add\n    /* \"@openzeppelin/contracts/token/ERC20/extensions/ERC20Capped.sol\":1364:1399  ERC20ExceededCap(supply, maxSupply) */\n  tag_20\n    /* \"#utility.yul\":5138:5386   */\n  jump\n    /* \"@openzeppelin/contracts/token/ERC20/extensions/ERC20Capped.sol\":1315:1414  if (supply > maxSupply) {... */\ntag_53:\n    /* \"@openzeppelin/contracts/token/ERC20/extensions/ERC20Capped.sol\":1218:1424  {... */\n  pop\n  pop\n    /* \"@openzeppelin/contracts/token/ERC20/extensions/ERC20Capped.sol\":1059:1430  function _update(address from, address to, uint256 value) internal virtual override {... */\n  pop\n  pop\n  pop\n  jump\t// out\n    /* \"@openzeppelin/contracts/token/ERC20/ERC20.sol\":5989:7096  function _update(address from, address to, uint256 value) internal virtual {... */\ntag_47:\n  sub(shl(0xa0, 0x01), 0x01)\n    /* \"@openzeppelin/contracts/token/ERC20/ERC20.sol\":6078:6096  from == address(0) */\n  dup4\n  and\n    /* \"@openzeppelin/contracts/token/ERC20/ERC20.sol\":6074:6614  if (from == address(0)) {... */\n  tag_57\n  jumpi\n    /* \"@openzeppelin/contracts/token/ERC20/ERC20.sol\":6230:6235  value */\n  dup1\n    /* \"@openzeppelin/contracts/token/ERC20/ERC20.sol\":6214:6226  _totalSupply */\n  0x02\n  0x00\n    /* \"@openzeppelin/contracts/token/ERC20/ERC20.sol\":6214:6235  _totalSupply += value */\n  dup3\n  dup3\n  sload\n  tag_58\n  swap2\n  swap1\n  tag_59\n  jump\t// in\ntag_58:\n  swap1\n  swap2\n  sstore\n  pop\n    /* \"@openzeppelin/contracts/token/ERC20/ERC20.sol\":6074:6614  if (from == address(0)) {... */\n  tag_60\n  swap1\n  pop\n  jump\ntag_57:\n  sub(shl(0xa0, 0x01), 0x01)\n    /* \"@openzeppelin/contracts/token/ERC20/ERC20.sol\":6288:6303  _balances[from] */\n  dup4\n  and\n    /* \"@openzeppelin/contracts/token/ERC20/ERC20.sol\":6266:6285  uint256 fromBalance */\n  0x00\n    /* \"@openzeppelin/contracts/token/ERC20/ERC20.sol\":6288:6303  _balances[from] */\n  swap1\n  dup2\n  mstore\n  0x20\n  dup2\n  swap1\n  mstore\n  0x40\n  swap1\n  keccak256\n  sload\n    /* \"@openzeppelin/contracts/token/ERC20/ERC20.sol\":6321:6340  fromBalance < value */\n  dup2\n  dup2\n  lt\n    /* \"@openzeppelin/contracts/token/ERC20/ERC20.sol\":6317:6432  if (fromBalance < value) {... */\n  iszero\n  tag_61\n  jumpi\n    /* \"@openzeppelin/contracts/token/ERC20/ERC20.sol\":6367:6417  ERC20InsufficientBalance(from, fromBalance, value) */\n  mload(0x40)\n  shl(0xe2, 0x391434e3)\n  dup2\n  mstore\n  sub(shl(0xa0, 0x01), 0x01)\n    /* \"#utility.yul\":5741:5773   */\n  dup6\n  and\n    /* \"@openzeppelin/contracts/token/ERC20/ERC20.sol\":6367:6417  ERC20InsufficientBalance(from, fromBalance, value) */\n  0x04\n  dup3\n  add\n    /* \"#utility.yul\":5723:5774   */\n  mstore\n    /* \"#utility.yul\":5790:5808   */\n  0x24\n  dup2\n  add\n    /* \"#utility.yul\":5783:5817   */\n  dup3\n  swap1\n  mstore\n    /* \"#utility.yul\":5833:5851   */\n  0x44\n  dup2\n  add\n    /* \"#utility.yul\":5826:5860   */\n  dup4\n  swap1\n  mstore\n    /* \"#utility.yul\":5696:5714   */\n  0x64\n  add\n    /* \"@openzeppelin/contracts/token/ERC20/ERC20.sol\":6367:6417  ERC20InsufficientBalance(from, fromBalance, value) */\n  tag_20\n    /* \"#utility.yul\":5521:5866   */\n  jump\n    /* \"@openzeppelin/contracts/token/ERC20/ERC20.sol\":6317:6432  if (fromBalance < value) {... */\ntag_61:\n  sub(shl(0xa0, 0x01), 0x01)\n    /* \"@openzeppelin/contracts/token/ERC20/ERC20.sol\":6552:6567  _balances[from] */\n  dup5\n  and\n    /* \"@openzeppelin/contracts/token/ERC20/ERC20.sol\":6552:6561  _balances */\n  0x00\n    /* \"@openzeppelin/contracts/token/ERC20/ERC20.sol\":6552:6567  _balances[from] */\n  swap1\n  dup2\n  mstore\n  0x20\n  dup2\n  swap1\n  mstore\n  0x40\n  swap1\n  keccak256\n    /* \"@openzeppelin/contracts/token/ERC20/ERC20.sol\":6570:6589  fromBalance - value */\n  swap1\n  dup3\n  swap1\n  sub\n    /* \"@openzeppelin/contracts/token/ERC20/ERC20.sol\":6552:6589  _balances[from] = fromBalance - value */\n  swap1\n  sstore\n    /* \"@openzeppelin/contracts/token/ERC20/ERC20.sol\":6074:6614  if (from == address(0)) {... */\ntag_60:\n  sub(shl(0xa0, 0x01), 0x01)\n    /* \"@openzeppelin/contracts/token/ERC20/ERC20.sol\":6628:6644  to == address(0) */\n  dup3\n  and\n    /* \"@openzeppelin/contracts/token/ERC20/ERC20.sol\":6624:7049  if (to == address(0)) {... */\n  tag_64\n  jumpi\n    /* \"@openzeppelin/contracts/token/ERC20/ERC20.sol\":6791:6803  _totalSupply */\n  0x02\n    /* \"@openzeppelin/contracts/token/ERC20/ERC20.sol\":6791:6812  _totalSupply -= value */\n  dup1\n  sload\n  dup3\n  swap1\n  sub\n  swap1\n  sstore\n    /* \"@openzeppelin/contracts/token/ERC20/ERC20.sol\":6624:7049  if (to == address(0)) {... */\n  jump(tag_65)\ntag_64:\n  sub(shl(0xa0, 0x01), 0x01)\n    /* \"@openzeppelin/contracts/token/ERC20/ERC20.sol\":7002:7015  _balances[to] */\n  dup3\n  and\n    /* \"@openzeppelin/contracts/token/ERC20/ERC20.sol\":7002:7011  _balances */\n  0x00\n    /* \"@openzeppelin/contracts/token/ERC20/ERC20.sol\":7002:7015  _balances[to] */\n  swap1\n  dup2\n  mstore\n  0x20\n  dup2\n  swap1\n  mstore\n  0x40\n  swap1\n  keccak256\n    /* \"@openzeppelin/contracts/token/ERC20/ERC20.sol\":7002:7024  _balances[to] += value */\n  dup1\n  sload\n  dup3\n  add\n  swap1\n  sstore\n    /* \"@openzeppelin/contracts/token/ERC20/ERC20.sol\":6624:7049  if (to == address(0)) {... */\ntag_65:\n    /* \"@openzeppelin/contracts/token/ERC20/ERC20.sol\":7079:7081  to */\n  dup2\n  sub(shl(0xa0, 0x01), 0x01)\n    /* \"@openzeppelin/contracts/token/ERC20/ERC20.sol\":7064:7089  Transfer(from, to, value) */\n  and\n    /* \"@openzeppelin/contracts/token/ERC20/ERC20.sol\":7073:7077  from */\n  dup4\n  sub(shl(0xa0, 0x01), 0x01)\n    /* \"@openzeppelin/contracts/token/ERC20/ERC20.sol\":7064:7089  Transfer(from, to, value) */\n  and\n  0xddf252ad1be2c89b69c2b068fc378daa952ba7f163c4a11628f55a4df523b3ef\n    /* \"@openzeppelin/contracts/token/ERC20/ERC20.sol\":7083:7088  value */\n  dup4\n    /* \"@openzeppelin/contracts/token/ERC20/ERC20.sol\":7064:7089  Transfer(from, to, value) */\n  mload(0x40)\n  tag_66\n  swap2\n    /* \"#utility.yul\":4894:4919   */\n  dup2\n  mstore\n    /* \"#utility.yul\":4882:4884   */\n  0x20\n    /* \"#utility.yul\":4867:4885   */\n  add\n  swap1\n    /* \"#utility.yul\":4740:4925   */\n  jump\n    /* \"@openzeppelin/contracts/token/ERC20/ERC20.sol\":7064:7089  Transfer(from, to, value) */\ntag_66:\n  mload(0x40)\n  dup1\n  swap2\n  sub\n  swap1\n  log3\n    /* \"@openzeppelin/contracts/token/ERC20/ERC20.sol\":5989:7096  function _update(address from, address to, uint256 value) internal virtual {... */\n  pop\n  pop\n  pop\n  jump\t// out\n    /* \"#utility.yul\":14:357   */\ntag_3:\n    /* \"#utility.yul\":93:99   */\n  0x00\n    /* \"#utility.yul\":101:107   */\n  0x00\n    /* \"#utility.yul\":154:156   */\n  0x40\n    /* \"#utility.yul\":142:151   */\n  dup4\n    /* \"#utility.yul\":133:140   */\n  dup6\n    /* \"#utility.yul\":129:152   */\n  sub\n    /* \"#utility.yul\":125:157   */\n  slt\n    /* \"#utility.yul\":122:174   */\n  iszero\n  tag_80\n  jumpi\n    /* \"#utility.yul\":170:171   */\n  0x00\n    /* \"#utility.yul\":167:168   */\n  0x00\n    /* \"#utility.yul\":160:172   */\n  revert\n    /* \"#utility.yul\":122:174   */\ntag_80:\n  pop\n  pop\n    /* \"#utility.yul\":215:231   */\n  dup1\n  mload\n    /* \"#utility.yul\":321:323   */\n  0x20\n    /* \"#utility.yul\":306:324   */\n  swap1\n  swap2\n  add\n    /* \"#utility.yul\":300:325   */\n  mload\n    /* \"#utility.yul\":215:231   */\n  swap1\n  swap3\n    /* \"#utility.yul\":300:325   */\n  swap1\n  swap2\n  pop\n    /* \"#utility.yul\":14:357   */\n  jump\t// out\n    /* \"#utility.yul\":362:489   */\ntag_70:\n    /* \"#utility.yul\":423:433   */\n  0x4e487b71\n    /* \"#utility.yul\":418:421   */\n  0xe0\n    /* \"#utility.yul\":414:434   */\n  shl\n    /* \"#utility.yul\":411:412   */\n  0x00\n    /* \"#utility.yul\":404:435   */\n  mstore\n    /* \"#utility.yul\":454:458   */\n  0x11\n    /* \"#utility.yul\":451:452   */\n  0x04\n    /* \"#utility.yul\":444:459   */\n  mstore\n    /* \"#utility.yul\":478:482   */\n  0x24\n    /* \"#utility.yul\":475:476   */\n  0x00\n    /* \"#utility.yul\":468:483   */\n  revert\n    /* \"#utility.yul\":494:869   */\ntag_71:\n    /* \"#utility.yul\":582:583   */\n  0x01\n    /* \"#utility.yul\":600:605   */\n  dup2\n    /* \"#utility.yul\":614:863   */\ntag_83:\n    /* \"#utility.yul\":635:636   */\n  0x01\n    /* \"#utility.yul\":625:633   */\n  dup5\n    /* \"#utility.yul\":622:637   */\n  gt\n    /* \"#utility.yul\":614:863   */\n  iszero\n  tag_85\n  jumpi\n    /* \"#utility.yul\":685:689   */\n  dup1\n    /* \"#utility.yul\":680:683   */\n  dup6\n    /* \"#utility.yul\":676:690   */\n  div\n    /* \"#utility.yul\":670:674   */\n  dup2\n    /* \"#utility.yul\":667:691   */\n  gt\n    /* \"#utility.yul\":664:714   */\n  iszero\n  tag_87\n  jumpi\n    /* \"#utility.yul\":694:712   */\n  tag_87\n  tag_70\n  jump\t// in\ntag_87:\n    /* \"#utility.yul\":744:745   */\n  0x01\n    /* \"#utility.yul\":734:742   */\n  dup5\n    /* \"#utility.yul\":730:746   */\n  and\n    /* \"#utility.yul\":727:776   */\n  iszero\n  tag_88\n  jumpi\n    /* \"#utility.yul\":758:774   */\n  swap1\n  dup2\n  mul\n  swap1\n    /* \"#utility.yul\":727:776   */\ntag_88:\n    /* \"#utility.yul\":841:842   */\n  0x01\n    /* \"#utility.yul\":837:853   */\n  swap4\n  swap1\n  swap4\n  shr\n  swap3\n    /* \"#utility.yul\":797:812   */\n  dup1\n  mul\n    /* \"#utility.yul\":614:863   */\n  jump(tag_83)\ntag_85:\n    /* \"#utility.yul\":494:869   */\n  swap4\n  pop\n  swap4\n  swap2\n  pop\n  pop\n  jump\t// out\n    /* \"#utility.yul\":874:1776   */\ntag_72:\n    /* \"#utility.yul\":923:928   */\n  0x00\n    /* \"#utility.yul\":953:961   */\n  dup3\n    /* \"#utility.yul\":943:1023   */\n  tag_90\n  jumpi\n  pop\n    /* \"#utility.yul\":994:995   */\n  0x01\n    /* \"#utility.yul\":1008:1013   */\n  jump(tag_89)\n    /* \"#utility.yul\":943:1023   */\ntag_90:\n    /* \"#utility.yul\":1042:1046   */\n  dup2\n    /* \"#utility.yul\":1032:1108   */\n  tag_91\n  jumpi\n  pop\n    /* \"#utility.yul\":1079:1080   */\n  0x00\n    /* \"#utility.yul\":1093:1098   */\n  jump(tag_89)\n    /* \"#utility.yul\":1032:1108   */\ntag_91:\n    /* \"#utility.yul\":1124:1128   */\n  dup2\n    /* \"#utility.yul\":1142:1143   */\n  0x01\n    /* \"#utility.yul\":1137:1196   */\n  dup2\n  eq\n  tag_93\n  jumpi\n    /* \"#utility.yul\":1210:1211   */\n  0x02\n    /* \"#utility.yul\":1205:1379   */\n  dup2\n  eq\n  tag_94\n  jumpi\n    /* \"#utility.yul\":1117:1379   */\n  jump(tag_92)\n    /* \"#utility.yul\":1137:1196   */\ntag_93:\n    /* \"#utility.yul\":1167:1168   */\n  0x01\n    /* \"#utility.yul\":1158:1168   */\n  swap2\n  pop\n    /* \"#utility.yul\":1181:1186   */\n  pop\n  jump(tag_89)\n    /* \"#utility.yul\":1205:1379   */\ntag_94:\n    /* \"#utility.yul\":1242:1245   */\n  0xff\n    /* \"#utility.yul\":1232:1240   */\n  dup5\n    /* \"#utility.yul\":1229:1246   */\n  gt\n    /* \"#utility.yul\":1226:1269   */\n  iszero\n  tag_96\n  jumpi\n    /* \"#utility.yul\":1249:1267   */\n  tag_96\n  tag_70\n  jump\t// in\ntag_96:\n  pop\n  pop\n    /* \"#utility.yul\":1305:1306   */\n  0x01\n    /* \"#utility.yul\":1291:1307   */\n  dup3\n  shl\n    /* \"#utility.yul\":1364:1369   */\n  jump(tag_89)\n    /* \"#utility.yul\":1117:1379   */\ntag_92:\n  pop\n    /* \"#utility.yul\":1463:1465   */\n  0x20\n    /* \"#utility.yul\":1453:1461   */\n  dup4\n    /* \"#utility.yul\":1450:1466   */\n  lt\n    /* \"#utility.yul\":1444:1447   */\n  0x0133\n    /* \"#utility.yul\":1438:1442   */\n  dup4\n    /* \"#utility.yul\":1435:1448   */\n  lt\n    /* \"#utility.yul\":1431:1467   */\n  and\n    /* \"#utility.yul\":1425:1427   */\n  0x4e\n    /* \"#utility.yul\":1415:1423   */\n  dup5\n    /* \"#utility.yul\":1412:1428   */\n  lt\n    /* \"#utility.yul\":1407:1409   */\n  0x0b\n    /* \"#utility.yul\":1401:1405   */\n  dup5\n    /* \"#utility.yul\":1398:1410   */\n  lt\n    /* \"#utility.yul\":1394:1429   */\n  and\n    /* \"#utility.yul\":1391:1468   */\n  or\n    /* \"#utility.yul\":1388:1591   */\n  iszero\n  tag_97\n  jumpi\n  pop\n    /* \"#utility.yul\":1500:1519   */\n  dup2\n  dup2\n  exp\n    /* \"#utility.yul\":1576:1581   */\n  jump(tag_89)\n    /* \"#utility.yul\":1388:1591   */\ntag_97:\n    /* \"#utility.yul\":1623:1665   */\n  tag_98\n  not(0x00)\n    /* \"#utility.yul\":1648:1656   */\n  dup5\n    /* \"#utility.yul\":1642:1646   */\n  dup5\n    /* \"#utility.yul\":1623:1665   */\n  tag_71\n  jump\t// in\ntag_98:\n    /* \"#utility.yul\":1701:1707   */\n  dup1\n    /* \"#utility.yul\":1697:1698   */\n  0x00\n    /* \"#utility.yul\":1693:1699   */\n  not\n    /* \"#utility.yul\":1689:1708   */\n  div\n    /* \"#utility.yul\":1680:1687   */\n  dup3\n    /* \"#utility.yul\":1677:1709   */\n  gt\n    /* \"#utility.yul\":1674:1732   */\n  iszero\n  tag_100\n  jumpi\n    /* \"#utility.yul\":1712:1730   */\n  tag_100\n  tag_70\n  jump\t// in\ntag_100:\n    /* \"#utility.yul\":1750:1770   */\n  mul\n  swap1\n  pop\n    /* \"#utility.yul\":874:1776   */\ntag_89:\n  swap3\n  swap2\n  pop\n  pop\n  jump\t// out\n    /* \"#utility.yul\":1781:1921   */\ntag_9:\n    /* \"#utility.yul\":1839:1844   */\n  0x00\n    /* \"#utility.yul\":1868:1915   */\n  tag_102\n    /* \"#utility.yul\":1909:1913   */\n  0xff\n    /* \"#utility.yul\":1899:1907   */\n  dup5\n    /* \"#utility.yul\":1895:1914   */\n  and\n    /* \"#utility.yul\":1889:1893   */\n  dup4\n    /* \"#utility.yul\":1868:1915   */\n  tag_72\n  jump\t// in\ntag_102:\n    /* \"#utility.yul\":1859:1915   */\n  swap4\n    /* \"#utility.yul\":1781:1921   */\n  swap3\n  pop\n  pop\n  pop\n  jump\t// out\n    /* \"#utility.yul\":1926:2094   */\ntag_11:\n    /* \"#utility.yul\":1999:2008   */\n  dup1\n  dup3\n  mul\n    /* \"#utility.yul\":2030:2039   */\n  dup2\n  iszero\n    /* \"#utility.yul\":2047:2062   */\n  dup3\n  dup3\n  div\n    /* \"#utility.yul\":2041:2063   */\n  dup5\n  eq\n    /* \"#utility.yul\":2027:2064   */\n  or\n    /* \"#utility.yul\":2017:2088   */\n  tag_89\n  jumpi\n    /* \"#utility.yul\":2068:2086   */\n  tag_89\n  tag_70\n  jump\t// in\n    /* \"#utility.yul\":2099:2226   */\ntag_73:\n    /* \"#utility.yul\":2160:2170   */\n  0x4e487b71\n    /* \"#utility.yul\":2155:2158   */\n  0xe0\n    /* \"#utility.yul\":2151:2171   */\n  shl\n    /* \"#utility.yul\":2148:2149   */\n  0x00\n    /* \"#utility.yul\":2141:2172   */\n  mstore\n    /* \"#utility.yul\":2191:2195   */\n  0x41\n    /* \"#utility.yul\":2188:2189   */\n  0x04\n    /* \"#utility.yul\":2181:2196   */\n  mstore\n    /* \"#utility.yul\":2215:2219   */\n  0x24\n    /* \"#utility.yul\":2212:2213   */\n  0x00\n    /* \"#utility.yul\":2205:2220   */\n  revert\n    /* \"#utility.yul\":2231:2611   */\ntag_74:\n    /* \"#utility.yul\":2310:2311   */\n  0x01\n    /* \"#utility.yul\":2306:2318   */\n  dup2\n  dup2\n  shr\n  swap1\n    /* \"#utility.yul\":2353:2365   */\n  dup3\n  and\n  dup1\n    /* \"#utility.yul\":2374:2435   */\n  tag_108\n  jumpi\n    /* \"#utility.yul\":2428:2432   */\n  0x7f\n    /* \"#utility.yul\":2420:2426   */\n  dup3\n    /* \"#utility.yul\":2416:2433   */\n  and\n    /* \"#utility.yul\":2406:2433   */\n  swap2\n  pop\n    /* \"#utility.yul\":2374:2435   */\ntag_108:\n    /* \"#utility.yul\":2481:2483   */\n  0x20\n    /* \"#utility.yul\":2473:2479   */\n  dup3\n    /* \"#utility.yul\":2470:2484   */\n  lt\n    /* \"#utility.yul\":2450:2468   */\n  dup2\n    /* \"#utility.yul\":2447:2485   */\n  sub\n    /* \"#utility.yul\":2444:2605   */\n  tag_109\n  jumpi\n    /* \"#utility.yul\":2527:2537   */\n  0x4e487b71\n    /* \"#utility.yul\":2522:2525   */\n  0xe0\n    /* \"#utility.yul\":2518:2538   */\n  shl\n    /* \"#utility.yul\":2515:2516   */\n  0x00\n    /* \"#utility.yul\":2508:2539   */\n  mstore\n    /* \"#utility.yul\":2562:2566   */\n  0x22\n    /* \"#utility.yul\":2559:2560   */\n  0x04\n    /* \"#utility.yul\":2552:2567   */\n  mstore\n    /* \"#utility.yul\":2590:2594   */\n  0x24\n    /* \"#utility.yul\":2587:2588   */\n  0x00\n    /* \"#utility.yul\":2580:2595   */\n  revert\n    /* \"#utility.yul\":2444:2605   */\ntag_109:\n  pop\n    /* \"#utility.yul\":2231:2611   */\n  swap2\n  swap1\n  pop\n  jump\t// out\n    /* \"#utility.yul\":2742:3260   */\ntag_76:\n    /* \"#utility.yul\":2844:2846   */\n  0x1f\n    /* \"#utility.yul\":2839:2842   */\n  dup3\n    /* \"#utility.yul\":2836:2847   */\n  gt\n    /* \"#utility.yul\":2833:3254   */\n  iszero\n  tag_43\n  jumpi\n    /* \"#utility.yul\":2880:2885   */\n  dup1\n    /* \"#utility.yul\":2877:2878   */\n  0x00\n    /* \"#utility.yul\":2870:2886   */\n  mstore\n    /* \"#utility.yul\":2924:2928   */\n  0x20\n    /* \"#utility.yul\":2921:2922   */\n  0x00\n    /* \"#utility.yul\":2911:2929   */\n  keccak256\n    /* \"#utility.yul\":2994:2996   */\n  0x1f\n    /* \"#utility.yul\":2982:2992   */\n  dup5\n    /* \"#utility.yul\":2978:2997   */\n  add\n    /* \"#utility.yul\":2975:2976   */\n  0x05\n    /* \"#utility.yul\":2971:2998   */\n  shr\n    /* \"#utility.yul\":2965:2969   */\n  dup2\n    /* \"#utility.yul\":2961:2999   */\n  add\n    /* \"#utility.yul\":3030:3034   */\n  0x20\n    /* \"#utility.yul\":3018:3028   */\n  dup6\n    /* \"#utility.yul\":3015:3035   */\n  lt\n    /* \"#utility.yul\":3012:3059   */\n  iszero\n  tag_113\n  jumpi\n  pop\n    /* \"#utility.yul\":3053:3057   */\n  dup1\n    /* \"#utility.yul\":3012:3059   */\ntag_113:\n    /* \"#utility.yul\":3108:3110   */\n  0x1f\n    /* \"#utility.yul\":3103:3106   */\n  dup5\n    /* \"#utility.yul\":3099:3111   */\n  add\n    /* \"#utility.yul\":3096:3097   */\n  0x05\n    /* \"#utility.yul\":3092:3112   */\n  shr\n    /* \"#utility.yul\":3086:3090   */\n  dup3\n    /* \"#utility.yul\":3082:3113   */\n  add\n    /* \"#utility.yul\":3072:3113   */\n  swap2\n  pop\n    /* \"#utility.yul\":3163:3244   */\ntag_114:\n    /* \"#utility.yul\":3181:3183   */\n  dup2\n    /* \"#utility.yul\":3174:3179   */\n  dup2\n    /* \"#utility.yul\":3171:3184   */\n  lt\n    /* \"#utility.yul\":3163:3244   */\n  iszero\n  tag_53\n  jumpi\n    /* \"#utility.yul\":3240:3241   */\n  0x00\n    /* \"#utility.yul\":3226:3242   */\n  dup2\n  sstore\n    /* \"#utility.yul\":3207:3208   */\n  0x01\n    /* \"#utility.yul\":3196:3209   */\n  add\n    /* \"#utility.yul\":3163:3244   */\n  jump(tag_114)\n    /* \"#utility.yul\":3436:4735   */\ntag_16:\n    /* \"#utility.yul\":3556:3566   */\n  dup2\n  mload\n  sub(shl(0x40, 0x01), 0x01)\n    /* \"#utility.yul\":3578:3608   */\n  dup2\n  gt\n    /* \"#utility.yul\":3575:3631   */\n  iszero\n  tag_120\n  jumpi\n    /* \"#utility.yul\":3611:3629   */\n  tag_120\n  tag_73\n  jump\t// in\ntag_120:\n    /* \"#utility.yul\":3640:3737   */\n  tag_121\n    /* \"#utility.yul\":3730:3736   */\n  dup2\n    /* \"#utility.yul\":3690:3728   */\n  tag_122\n    /* \"#utility.yul\":3722:3726   */\n  dup5\n    /* \"#utility.yul\":3716:3727   */\n  sload\n    /* \"#utility.yul\":3690:3728   */\n  tag_74\n  jump\t// in\ntag_122:\n    /* \"#utility.yul\":3684:3688   */\n  dup5\n    /* \"#utility.yul\":3640:3737   */\n  tag_76\n  jump\t// in\ntag_121:\n    /* \"#utility.yul\":3786:3790   */\n  0x20\n    /* \"#utility.yul\":3817:3819   */\n  0x1f\n    /* \"#utility.yul\":3806:3820   */\n  dup3\n  gt\n    /* \"#utility.yul\":3834:3835   */\n  0x01\n    /* \"#utility.yul\":3829:4478   */\n  dup2\n  eq\n  tag_124\n  jumpi\n    /* \"#utility.yul\":4522:4523   */\n  0x00\n    /* \"#utility.yul\":4539:4545   */\n  dup4\n    /* \"#utility.yul\":4536:4625   */\n  iszero\n  tag_125\n  jumpi\n  pop\n    /* \"#utility.yul\":4591:4610   */\n  dup5\n  dup3\n  add\n    /* \"#utility.yul\":4585:4611   */\n  mload\n    /* \"#utility.yul\":4536:4625   */\ntag_125:\n  not(0x00)\n    /* \"#utility.yul\":3393:3394   */\n  0x03\n    /* \"#utility.yul\":3389:3400   */\n  dup6\n  swap1\n  shl\n    /* \"#utility.yul\":3385:3409   */\n  shr\n    /* \"#utility.yul\":3381:3410   */\n  not\n    /* \"#utility.yul\":3371:3411   */\n  and\n    /* \"#utility.yul\":3417:3418   */\n  0x01\n    /* \"#utility.yul\":3413:3424   */\n  dup5\n  swap1\n  shl\n    /* \"#utility.yul\":3368:3425   */\n  or\n    /* \"#utility.yul\":4638:4719   */\n  dup5\n  sstore\n    /* \"#utility.yul\":3799:4729   */\n  jump(tag_53)\n    /* \"#utility.yul\":3829:4478   */\ntag_124:\n    /* \"#utility.yul\":2689:2690   */\n  0x00\n    /* \"#utility.yul\":2682:2696   */\n  dup5\n  dup2\n  mstore\n    /* \"#utility.yul\":2726:2730   */\n  0x20\n    /* \"#utility.yul\":2713:2731   */\n  dup2\n  keccak256\n  not(0x1f)\n    /* \"#utility.yul\":3865:3885   */\n  dup6\n  and\n  swap2\n    /* \"#utility.yul\":3983:4205   */\ntag_128:\n    /* \"#utility.yul\":3997:4004   */\n  dup3\n    /* \"#utility.yul\":3994:3995   */\n  dup2\n    /* \"#utility.yul\":3991:4005   */\n  lt\n    /* \"#utility.yul\":3983:4205   */\n  iszero\n  tag_130\n  jumpi\n    /* \"#utility.yul\":4079:4098   */\n  dup8\n  dup6\n  add\n    /* \"#utility.yul\":4073:4099   */\n  mload\n    /* \"#utility.yul\":4058:4100   */\n  dup3\n  sstore\n    /* \"#utility.yul\":4186:4190   */\n  0x20\n    /* \"#utility.yul\":4171:4191   */\n  swap5\n  dup6\n  add\n  swap5\n    /* \"#utility.yul\":4139:4140   */\n  0x01\n    /* \"#utility.yul\":4127:4141   */\n  swap1\n  swap3\n  add\n  swap2\n    /* \"#utility.yul\":4013:4025   */\n  add\n    /* \"#utility.yul\":3983:4205   */\n  jump(tag_128)\ntag_130:\n    /* \"#utility.yul\":3987:3990   */\n  pop\n    /* \"#utility.yul\":4233:4239   */\n  dup5\n    /* \"#utility.yul\":4224:4231   */\n  dup3\n    /* \"#utility.yul\":4221:4240   */\n  lt\n    /* \"#utility.yul\":4218:4419   */\n  iszero\n  tag_131\n  jumpi\n    /* \"#utility.yul\":4294:4313   */\n  dup7\n  dup5\n  add\n    /* \"#utility.yul\":4288:4314   */\n  mload\n  not(0x00)\n    /* \"#utility.yul\":4377:4378   */\n  0x03\n    /* \"#utility.yul\":4373:4387   */\n  dup8\n  swap1\n  shl\n    /* \"#utility.yul\":4389:4392   */\n  0xf8\n    /* \"#utility.yul\":4369:4393   */\n  and\n    /* \"#utility.yul\":4365:4402   */\n  shr\n    /* \"#utility.yul\":4361:4403   */\n  not\n    /* \"#utility.yul\":4346:4404   */\n  and\n    /* \"#utility.yul\":4331:4405   */\n  dup2\n  sstore\n    /* \"#utility.yul\":4218:4419   */\ntag_131:\n  pop\n  pop\n  pop\n  pop\n    /* \"#utility.yul\":4465:4466   */\n  0x01\n    /* \"#utility.yul\":4449:4463   */\n  swap1\n  dup2\n  shl\n    /* \"#utility.yul\":4445:4467   */\n  add\n    /* \"#utility.yul\":4432:4468   */\n  swap1\n  sstore\n  pop\n    /* \"#utility.yul\":3436:4735   */\n  jump\t// out\n    /* \"#utility.yul\":5391:5516   */\ntag_59:\n    /* \"#utility.yul\":5456:5465   */\n  dup1\n  dup3\n  add\n    /* \"#utility.yul\":5477:5487   */\n  dup1\n  dup3\n  gt\n    /* \"#utility.yul\":5474:5510   */\n  iszero\n  tag_89\n  jumpi\n    /* \"#utility.yul\":5490:5508   */\n  tag_89\n  tag_70\n  jump\t// in\n    /* \"#utility.yul\":5871:6048   */\ntag_78:\n    /* \"TecnoCoin.sol\":267:1145  contract TecnoCoin is ERC20Capped, ERC20Burnable, Ownable {... */\n  mload(0x80)\n  codecopy(0x00, dataOffset(sub_0), dataSize(sub_0))\n  0x00\n  assignImmutable(\"0x69de3b38836c938ac93bb31643655e6e0a011af0f354a009a432084d0f963864\")\n  return(0x00, dataSize(sub_0))\nstop\n\nsub_0: assembly {\n        /* \"TecnoCoin.sol\":267:1145  contract TecnoCoin is ERC20Capped, ERC20Burnable, Ownable {... */\n      mstore(0x40, 0x80)\n      callvalue\n      dup1\n      iszero\n      tag_1\n      jumpi\n      revert(0x00, 0x00)\n    tag_1:\n      pop\n      jumpi(tag_2, lt(calldatasize, 0x04))\n      shr(0xe0, calldataload(0x00))\n      dup1\n      0x70a08231\n      gt\n      tag_19\n      jumpi\n      dup1\n      0x95d89b41\n      gt\n      tag_20\n      jumpi\n      dup1\n      0x95d89b41\n      eq\n      tag_15\n      jumpi\n      dup1\n      0xa9059cbb\n      eq\n      tag_16\n      jumpi\n      dup1\n      0xdd62ed3e\n      eq\n      tag_17\n      jumpi\n      dup1\n      0xf2fde38b\n      eq\n      tag_18\n      jumpi\n      revert(0x00, 0x00)\n    tag_20:\n      dup1\n      0x70a08231\n      eq\n      tag_11\n      jumpi\n      dup1\n      0x715018a6\n      eq\n      tag_12\n      jumpi\n      dup1\n      0x79cc6790\n      eq\n      tag_13\n      jumpi\n      dup1\n      0x8da5cb5b\n      eq\n      tag_14\n      jumpi\n      revert(0x00, 0x00)\n    tag_19:\n      dup1\n      0x313ce567\n      gt\n      tag_21\n      jumpi\n      dup1\n      0x313ce567\n      eq\n      tag_7\n      jumpi\n      dup1\n      0x355274ea\n      eq\n      tag_8\n      jumpi\n      dup1\n      0x40c10f19\n      eq\n      tag_9\n      jumpi\n      dup1\n      0x42966c68\n      eq\n      tag_10\n      jumpi\n      revert(0x00, 0x00)\n    tag_21:\n      dup1\n      0x06fdde03\n      eq\n      tag_3\n      jumpi\n      dup1\n      0x095ea7b3\n      eq\n      tag_4\n      jumpi\n      dup1\n      0x18160ddd\n      eq\n      tag_5\n      jumpi\n      dup1\n      0x23b872dd\n      eq\n      tag_6\n      jumpi\n    tag_2:\n      revert(0x00, 0x00)\n        /* \"@openzeppelin/contracts/token/ERC20/ERC20.sol\":1760:1849  function name() public view virtual returns (string memory) {... */\n    tag_3:\n      tag_22\n      tag_23\n      jump\t// in\n    tag_22:\n      mload(0x40)\n      tag_24\n      swap2\n      swap1\n      tag_25\n      jump\t// in\n    tag_24:\n      mload(0x40)\n      dup1\n      swap2\n      sub\n      swap1\n      return\n        /* \"@openzeppelin/contracts/token/ERC20/ERC20.sol\":3979:4165  function approve(address spender, uint256 value) public virtual returns (bool) {... */\n    tag_4:\n      tag_26\n      tag_27\n      calldatasize\n      0x04\n      tag_28\n      jump\t// in\n    tag_27:\n      tag_29\n      jump\t// in\n    tag_26:\n      mload(0x40)\n        /* \"#utility.yul\":1085:1099   */\n      swap1\n      iszero\n        /* \"#utility.yul\":1078:1100   */\n      iszero\n        /* \"#utility.yul\":1060:1101   */\n      dup2\n      mstore\n        /* \"#utility.yul\":1048:1050   */\n      0x20\n        /* \"#utility.yul\":1033:1051   */\n      add\n        /* \"@openzeppelin/contracts/token/ERC20/ERC20.sol\":3979:4165  function approve(address spender, uint256 value) public virtual returns (bool) {... */\n      tag_24\n        /* \"#utility.yul\":920:1107   */\n      jump\n        /* \"@openzeppelin/contracts/token/ERC20/ERC20.sol\":2830:2927  function totalSupply() public view virtual returns (uint256) {... */\n    tag_5:\n        /* \"@openzeppelin/contracts/token/ERC20/ERC20.sol\":2908:2920  _totalSupply */\n      sload(0x02)\n        /* \"@openzeppelin/contracts/token/ERC20/ERC20.sol\":2830:2927  function totalSupply() public view virtual returns (uint256) {... */\n    tag_32:\n      mload(0x40)\n        /* \"#utility.yul\":1258:1283   */\n      swap1\n      dup2\n      mstore\n        /* \"#utility.yul\":1246:1248   */\n      0x20\n        /* \"#utility.yul\":1231:1249   */\n      add\n        /* \"@openzeppelin/contracts/token/ERC20/ERC20.sol\":2830:2927  function totalSupply() public view virtual returns (uint256) {... */\n      tag_24\n        /* \"#utility.yul\":1112:1289   */\n      jump\n        /* \"@openzeppelin/contracts/token/ERC20/ERC20.sol\":4757:5001  function transferFrom(address from, address to, uint256 value) public virtual returns (bool) {... */\n    tag_6:\n      tag_26\n      tag_37\n      calldatasize\n      0x04\n      tag_38\n      jump\t// in\n    tag_37:\n      tag_39\n      jump\t// in\n        /* \"@openzeppelin/contracts/token/ERC20/ERC20.sol\":2688:2770  function decimals() public view virtual returns (uint8) {... */\n    tag_7:\n      mload(0x40)\n        /* \"@openzeppelin/contracts/token/ERC20/ERC20.sol\":2761:2763  18 */\n      0x12\n        /* \"#utility.yul\":1815:1851   */\n      dup2\n      mstore\n        /* \"#utility.yul\":1803:1805   */\n      0x20\n        /* \"#utility.yul\":1788:1806   */\n      add\n        /* \"@openzeppelin/contracts/token/ERC20/ERC20.sol\":2688:2770  function decimals() public view virtual returns (uint8) {... */\n      tag_24\n        /* \"#utility.yul\":1673:1857   */\n      jump\n        /* \"@openzeppelin/contracts/token/ERC20/extensions/ERC20Capped.sol\":923:1004  function cap() public view virtual returns (uint256) {... */\n    tag_8:\n        /* \"@openzeppelin/contracts/token/ERC20/extensions/ERC20Capped.sol\":993:997  _cap */\n      immutable(\"0x69de3b38836c938ac93bb31643655e6e0a011af0f354a009a432084d0f963864\")\n        /* \"@openzeppelin/contracts/token/ERC20/extensions/ERC20Capped.sol\":923:1004  function cap() public view virtual returns (uint256) {... */\n      jump(tag_32)\n        /* \"TecnoCoin.sol\":673:908  function mint(address to, uint256 amount) public onlyOwner {... */\n    tag_9:\n      tag_48\n      tag_49\n      calldatasize\n      0x04\n      tag_28\n      jump\t// in\n    tag_49:\n      tag_50\n      jump\t// in\n    tag_48:\n      stop\n        /* \"@openzeppelin/contracts/token/ERC20/extensions/ERC20Burnable.sol\":618:705  function burn(uint256 value) public virtual {... */\n    tag_10:\n      tag_48\n      tag_52\n      calldatasize\n      0x04\n      tag_53\n      jump\t// in\n    tag_52:\n      tag_54\n      jump\t// in\n        /* \"@openzeppelin/contracts/token/ERC20/ERC20.sol\":2985:3101  function balanceOf(address account) public view virtual returns (uint256) {... */\n    tag_11:\n      tag_32\n      tag_56\n      calldatasize\n      0x04\n      tag_57\n      jump\t// in\n    tag_56:\n      sub(shl(0xa0, 0x01), 0x01)\n        /* \"@openzeppelin/contracts/token/ERC20/ERC20.sol\":3076:3094  _balances[account] */\n      and\n        /* \"@openzeppelin/contracts/token/ERC20/ERC20.sol\":3050:3057  uint256 */\n      0x00\n        /* \"@openzeppelin/contracts/token/ERC20/ERC20.sol\":3076:3094  _balances[account] */\n      swap1\n      dup2\n      mstore\n      0x20\n      dup2\n      swap1\n      mstore\n      0x40\n      swap1\n      keccak256\n      sload\n      swap1\n        /* \"@openzeppelin/contracts/token/ERC20/ERC20.sol\":2985:3101  function balanceOf(address account) public view virtual returns (uint256) {... */\n      jump\n        /* \"@openzeppelin/contracts/access/Ownable.sol\":2293:2394  function renounceOwnership() public virtual onlyOwner {... */\n    tag_12:\n      tag_48\n      tag_61\n      jump\t// in\n        /* \"@openzeppelin/contracts/token/ERC20/extensions/ERC20Burnable.sol\":1021:1179  function burnFrom(address account, uint256 value) public virtual {... */\n    tag_13:\n      tag_48\n      tag_63\n      calldatasize\n      0x04\n      tag_28\n      jump\t// in\n    tag_63:\n      tag_64\n      jump\t// in\n        /* \"@openzeppelin/contracts/access/Ownable.sol\":1638:1723  function owner() public view virtual returns (address) {... */\n    tag_14:\n        /* \"@openzeppelin/contracts/access/Ownable.sol\":1710:1716  _owner */\n      sload(0x05)\n        /* \"@openzeppelin/contracts/access/Ownable.sol\":1638:1723  function owner() public view virtual returns (address) {... */\n      mload(0x40)\n      sub(shl(0xa0, 0x01), 0x01)\n        /* \"@openzeppelin/contracts/access/Ownable.sol\":1710:1716  _owner */\n      swap1\n      swap2\n      and\n        /* \"#utility.yul\":2430:2481   */\n      dup2\n      mstore\n        /* \"#utility.yul\":2418:2420   */\n      0x20\n        /* \"#utility.yul\":2403:2421   */\n      add\n        /* \"@openzeppelin/contracts/access/Ownable.sol\":1638:1723  function owner() public view virtual returns (address) {... */\n      tag_24\n        /* \"#utility.yul\":2284:2487   */\n      jump\n        /* \"@openzeppelin/contracts/token/ERC20/ERC20.sol\":1962:2055  function symbol() public view virtual returns (string memory) {... */\n    tag_15:\n      tag_22\n      tag_70\n      jump\t// in\n        /* \"@openzeppelin/contracts/token/ERC20/ERC20.sol\":3296:3474  function transfer(address to, uint256 value) public virtual returns (bool) {... */\n    tag_16:\n      tag_26\n      tag_73\n      calldatasize\n      0x04\n      tag_28\n      jump\t// in\n    tag_73:\n      tag_74\n      jump\t// in\n        /* \"@openzeppelin/contracts/token/ERC20/ERC20.sol\":3532:3672  function allowance(address owner, address spender) public view virtual returns (uint256) {... */\n    tag_17:\n      tag_32\n      tag_77\n      calldatasize\n      0x04\n      tag_78\n      jump\t// in\n    tag_77:\n      sub(shl(0xa0, 0x01), 0x01)\n        /* \"@openzeppelin/contracts/token/ERC20/ERC20.sol\":3638:3656  _allowances[owner] */\n      swap2\n      dup3\n      and\n        /* \"@openzeppelin/contracts/token/ERC20/ERC20.sol\":3612:3619  uint256 */\n      0x00\n        /* \"@openzeppelin/contracts/token/ERC20/ERC20.sol\":3638:3656  _allowances[owner] */\n      swap1\n      dup2\n      mstore\n        /* \"@openzeppelin/contracts/token/ERC20/ERC20.sol\":3638:3649  _allowances */\n      0x01\n        /* \"@openzeppelin/contracts/token/ERC20/ERC20.sol\":3638:3656  _allowances[owner] */\n      0x20\n      swap1\n      dup2\n      mstore\n      0x40\n      dup1\n      dup4\n      keccak256\n        /* \"@openzeppelin/contracts/token/ERC20/ERC20.sol\":3638:3665  _allowances[owner][spender] */\n      swap4\n      swap1\n      swap5\n      and\n      dup3\n      mstore\n      swap2\n      swap1\n      swap2\n      mstore\n      keccak256\n      sload\n      swap1\n        /* \"@openzeppelin/contracts/token/ERC20/ERC20.sol\":3532:3672  function allowance(address owner, address spender) public view virtual returns (uint256) {... */\n      jump\n        /* \"@openzeppelin/contracts/access/Ownable.sol\":2543:2758  function transferOwnership(address newOwner) public virtual onlyOwner {... */\n    tag_18:\n      tag_48\n      tag_82\n      calldatasize\n      0x04\n      tag_57\n      jump\t// in\n    tag_82:\n      tag_83\n      jump\t// in\n        /* \"@openzeppelin/contracts/token/ERC20/ERC20.sol\":1760:1849  function name() public view virtual returns (string memory) {... */\n    tag_23:\n        /* \"@openzeppelin/contracts/token/ERC20/ERC20.sol\":1805:1818  string memory */\n      0x60\n        /* \"@openzeppelin/contracts/token/ERC20/ERC20.sol\":1837:1842  _name */\n      0x03\n        /* \"@openzeppelin/contracts/token/ERC20/ERC20.sol\":1830:1842  return _name */\n      dup1\n      sload\n      tag_85\n      swap1\n      tag_86\n      jump\t// in\n    tag_85:\n      dup1\n      0x1f\n      add\n      0x20\n      dup1\n      swap2\n      div\n      mul\n      0x20\n      add\n      mload(0x40)\n      swap1\n      dup2\n      add\n      0x40\n      mstore\n      dup1\n      swap3\n      swap2\n      swap1\n      dup2\n      dup2\n      mstore\n      0x20\n      add\n      dup3\n      dup1\n      sload\n      tag_87\n      swap1\n      tag_86\n      jump\t// in\n    tag_87:\n      dup1\n      iszero\n      tag_88\n      jumpi\n      dup1\n      0x1f\n      lt\n      tag_89\n      jumpi\n      0x0100\n      dup1\n      dup4\n      sload\n      div\n      mul\n      dup4\n      mstore\n      swap2\n      0x20\n      add\n      swap2\n      jump(tag_88)\n    tag_89:\n      dup3\n      add\n      swap2\n      swap1\n      0x00\n      mstore\n      keccak256(0x00, 0x20)\n      swap1\n    tag_90:\n      dup2\n      sload\n      dup2\n      mstore\n      swap1\n      0x01\n      add\n      swap1\n      0x20\n      add\n      dup1\n      dup4\n      gt\n      tag_90\n      jumpi\n      dup3\n      swap1\n      sub\n      0x1f\n      and\n      dup3\n      add\n      swap2\n    tag_88:\n      pop\n      pop\n      pop\n      pop\n      pop\n      swap1\n      pop\n        /* \"@openzeppelin/contracts/token/ERC20/ERC20.sol\":1760:1849  function name() public view virtual returns (string memory) {... */\n      swap1\n      jump\t// out\n        /* \"@openzeppelin/contracts/token/ERC20/ERC20.sol\":3979:4165  function approve(address spender, uint256 value) public virtual returns (bool) {... */\n    tag_29:\n        /* \"@openzeppelin/contracts/token/ERC20/ERC20.sol\":4052:4056  bool */\n      0x00\n        /* \"@openzeppelin/contracts/utils/Context.sol\":735:745  msg.sender */\n      caller\n        /* \"@openzeppelin/contracts/token/ERC20/ERC20.sol\":4106:4137  _approve(owner, spender, value) */\n      tag_94\n        /* \"@openzeppelin/contracts/utils/Context.sol\":735:745  msg.sender */\n      dup2\n        /* \"@openzeppelin/contracts/token/ERC20/ERC20.sol\":4122:4129  spender */\n      dup6\n        /* \"@openzeppelin/contracts/token/ERC20/ERC20.sol\":4131:4136  value */\n      dup6\n        /* \"@openzeppelin/contracts/token/ERC20/ERC20.sol\":4106:4114  _approve */\n      tag_95\n        /* \"@openzeppelin/contracts/token/ERC20/ERC20.sol\":4106:4137  _approve(owner, spender, value) */\n      jump\t// in\n    tag_94:\n        /* \"@openzeppelin/contracts/token/ERC20/ERC20.sol\":4154:4158  true */\n      0x01\n        /* \"@openzeppelin/contracts/token/ERC20/ERC20.sol\":4147:4158  return true */\n      swap2\n      pop\n      pop\n        /* \"@openzeppelin/contracts/token/ERC20/ERC20.sol\":3979:4165  function approve(address spender, uint256 value) public virtual returns (bool) {... */\n    tag_91:\n      swap3\n      swap2\n      pop\n      pop\n      jump\t// out\n        /* \"@openzeppelin/contracts/token/ERC20/ERC20.sol\":4757:5001  function transferFrom(address from, address to, uint256 value) public virtual returns (bool) {... */\n    tag_39:\n        /* \"@openzeppelin/contracts/token/ERC20/ERC20.sol\":4844:4848  bool */\n      0x00\n        /* \"@openzeppelin/contracts/utils/Context.sol\":735:745  msg.sender */\n      caller\n        /* \"@openzeppelin/contracts/token/ERC20/ERC20.sol\":4900:4937  _spendAllowance(from, spender, value) */\n      tag_99\n        /* \"@openzeppelin/contracts/token/ERC20/ERC20.sol\":4916:4920  from */\n      dup6\n        /* \"@openzeppelin/contracts/utils/Context.sol\":735:745  msg.sender */\n      dup3\n        /* \"@openzeppelin/contracts/token/ERC20/ERC20.sol\":4931:4936  value */\n      dup6\n        /* \"@openzeppelin/contracts/token/ERC20/ERC20.sol\":4900:4915  _spendAllowance */\n      tag_100\n        /* \"@openzeppelin/contracts/token/ERC20/ERC20.sol\":4900:4937  _spendAllowance(from, spender, value) */\n      jump\t// in\n    tag_99:\n        /* \"@openzeppelin/contracts/token/ERC20/ERC20.sol\":4947:4973  _transfer(from, to, value) */\n      tag_101\n        /* \"@openzeppelin/contracts/token/ERC20/ERC20.sol\":4957:4961  from */\n      dup6\n        /* \"@openzeppelin/contracts/token/ERC20/ERC20.sol\":4963:4965  to */\n      dup6\n        /* \"@openzeppelin/contracts/token/ERC20/ERC20.sol\":4967:4972  value */\n      dup6\n        /* \"@openzeppelin/contracts/token/ERC20/ERC20.sol\":4947:4956  _transfer */\n      tag_102\n        /* \"@openzeppelin/contracts/token/ERC20/ERC20.sol\":4947:4973  _transfer(from, to, value) */\n      jump\t// in\n    tag_101:\n      pop\n        /* \"@openzeppelin/contracts/token/ERC20/ERC20.sol\":4990:4994  true */\n      0x01\n      swap5\n        /* \"@openzeppelin/contracts/token/ERC20/ERC20.sol\":4757:5001  function transferFrom(address from, address to, uint256 value) public virtual returns (bool) {... */\n      swap4\n      pop\n      pop\n      pop\n      pop\n      jump\t// out\n        /* \"TecnoCoin.sol\":673:908  function mint(address to, uint256 amount) public onlyOwner {... */\n    tag_50:\n        /* \"@openzeppelin/contracts/access/Ownable.sol\":1531:1544  _checkOwner() */\n      tag_106\n        /* \"@openzeppelin/contracts/access/Ownable.sol\":1531:1542  _checkOwner */\n      tag_107\n        /* \"@openzeppelin/contracts/access/Ownable.sol\":1531:1544  _checkOwner() */\n      jump\t// in\n    tag_106:\n        /* \"@openzeppelin/contracts/token/ERC20/extensions/ERC20Capped.sol\":993:997  _cap */\n      immutable(\"0x69de3b38836c938ac93bb31643655e6e0a011af0f354a009a432084d0f963864\")\n        /* \"TecnoCoin.sol\":773:789  10 ** decimals() */\n      tag_111\n        /* \"@openzeppelin/contracts/token/ERC20/ERC20.sol\":2761:2763  18 */\n      0x12\n        /* \"TecnoCoin.sol\":773:775  10 */\n      0x0a\n        /* \"TecnoCoin.sol\":773:789  10 ** decimals() */\n      tag_112\n      jump\t// in\n    tag_111:\n        /* \"TecnoCoin.sol\":764:789  amount * 10 ** decimals() */\n      tag_113\n      swap1\n        /* \"TecnoCoin.sol\":764:770  amount */\n      dup4\n        /* \"TecnoCoin.sol\":764:789  amount * 10 ** decimals() */\n      tag_114\n      jump\t// in\n    tag_113:\n        /* \"@openzeppelin/contracts/token/ERC20/ERC20.sol\":2908:2920  _totalSupply */\n      sload(0x02)\n        /* \"TecnoCoin.sol\":747:790  totalSupply() + (amount * 10 ** decimals()) */\n      tag_116\n      swap2\n      swap1\n      tag_117\n      jump\t// in\n    tag_116:\n        /* \"TecnoCoin.sol\":747:798  totalSupply() + (amount * 10 ** decimals()) > cap() */\n      gt\n        /* \"TecnoCoin.sol\":743:854  if (totalSupply() + (amount * 10 ** decimals()) > cap()) {... */\n      iszero\n      tag_118\n      jumpi\n        /* \"TecnoCoin.sol\":822:842  MaxSupplyAlcanzado() */\n      mload(0x40)\n      shl(0xe4, 0x0bf3aa03)\n      dup2\n      mstore\n      0x04\n      add\n      mload(0x40)\n      dup1\n      swap2\n      sub\n      swap1\n      revert\n        /* \"TecnoCoin.sol\":743:854  if (totalSupply() + (amount * 10 ** decimals()) > cap()) {... */\n    tag_118:\n        /* \"TecnoCoin.sol\":864:900  _mint(to, amount * 10 ** decimals()) */\n      tag_119\n        /* \"TecnoCoin.sol\":870:872  to */\n      dup3\n        /* \"TecnoCoin.sol\":883:899  10 ** decimals() */\n      tag_121\n        /* \"@openzeppelin/contracts/token/ERC20/ERC20.sol\":2761:2763  18 */\n      0x12\n        /* \"TecnoCoin.sol\":883:885  10 */\n      0x0a\n        /* \"TecnoCoin.sol\":883:899  10 ** decimals() */\n      tag_112\n      jump\t// in\n    tag_121:\n        /* \"TecnoCoin.sol\":874:899  amount * 10 ** decimals() */\n      tag_122\n      swap1\n        /* \"TecnoCoin.sol\":874:880  amount */\n      dup5\n        /* \"TecnoCoin.sol\":874:899  amount * 10 ** decimals() */\n      tag_114\n      jump\t// in\n    tag_122:\n        /* \"TecnoCoin.sol\":864:869  _mint */\n      tag_123\n        /* \"TecnoCoin.sol\":864:900  _mint(to, amount * 10 ** decimals()) */\n      jump\t// in\n    tag_119:\n        /* \"TecnoCoin.sol\":673:908  function mint(address to, uint256 amount) public onlyOwner {... */\n      pop\n      pop\n      jump\t// out\n        /* \"@openzeppelin/contracts/token/ERC20/extensions/ERC20Burnable.sol\":618:705  function burn(uint256 value) public virtual {... */\n    tag_54:\n        /* \"@openzeppelin/contracts/token/ERC20/extensions/ERC20Burnable.sol\":672:698  _burn(_msgSender(), value) */\n      tag_125\n        /* \"@openzeppelin/contracts/utils/Context.sol\":735:745  msg.sender */\n      caller\n        /* \"@openzeppelin/contracts/token/ERC20/extensions/ERC20Burnable.sol\":692:697  value */\n      dup3\n        /* \"@openzeppelin/contracts/token/ERC20/extensions/ERC20Burnable.sol\":672:677  _burn */\n      tag_127\n        /* \"@openzeppelin/contracts/token/ERC20/extensions/ERC20Burnable.sol\":672:698  _burn(_msgSender(), value) */\n      jump\t// in\n    tag_125:\n        /* \"@openzeppelin/contracts/token/ERC20/extensions/ERC20Burnable.sol\":618:705  function burn(uint256 value) public virtual {... */\n      pop\n      jump\t// out\n        /* \"@openzeppelin/contracts/access/Ownable.sol\":2293:2394  function renounceOwnership() public virtual onlyOwner {... */\n    tag_61:\n        /* \"@openzeppelin/contracts/access/Ownable.sol\":1531:1544  _checkOwner() */\n      tag_130\n        /* \"@openzeppelin/contracts/access/Ownable.sol\":1531:1542  _checkOwner */\n      tag_107\n        /* \"@openzeppelin/contracts/access/Ownable.sol\":1531:1544  _checkOwner() */\n      jump\t// in\n    tag_130:\n        /* \"@openzeppelin/contracts/access/Ownable.sol\":2357:2387  _transferOwnership(address(0)) */\n      tag_132\n        /* \"@openzeppelin/contracts/access/Ownable.sol\":2384:2385  0 */\n      0x00\n        /* \"@openzeppelin/contracts/access/Ownable.sol\":2357:2375  _transferOwnership */\n      tag_133\n        /* \"@openzeppelin/contracts/access/Ownable.sol\":2357:2387  _transferOwnership(address(0)) */\n      jump\t// in\n    tag_132:\n        /* \"@openzeppelin/contracts/access/Ownable.sol\":2293:2394  function renounceOwnership() public virtual onlyOwner {... */\n      jump\t// out\n        /* \"@openzeppelin/contracts/token/ERC20/extensions/ERC20Burnable.sol\":1021:1179  function burnFrom(address account, uint256 value) public virtual {... */\n    tag_64:\n        /* \"@openzeppelin/contracts/token/ERC20/extensions/ERC20Burnable.sol\":1096:1141  _spendAllowance(account, _msgSender(), value) */\n      tag_135\n        /* \"@openzeppelin/contracts/token/ERC20/extensions/ERC20Burnable.sol\":1112:1119  account */\n      dup3\n        /* \"@openzeppelin/contracts/utils/Context.sol\":735:745  msg.sender */\n      caller\n        /* \"@openzeppelin/contracts/token/ERC20/extensions/ERC20Burnable.sol\":1135:1140  value */\n      dup4\n        /* \"@openzeppelin/contracts/token/ERC20/extensions/ERC20Burnable.sol\":1096:1111  _spendAllowance */\n      tag_100\n        /* \"@openzeppelin/contracts/token/ERC20/extensions/ERC20Burnable.sol\":1096:1141  _spendAllowance(account, _msgSender(), value) */\n      jump\t// in\n    tag_135:\n        /* \"@openzeppelin/contracts/token/ERC20/extensions/ERC20Burnable.sol\":1151:1172  _burn(account, value) */\n      tag_119\n        /* \"@openzeppelin/contracts/token/ERC20/extensions/ERC20Burnable.sol\":1157:1164  account */\n      dup3\n        /* \"@openzeppelin/contracts/token/ERC20/extensions/ERC20Burnable.sol\":1166:1171  value */\n      dup3\n        /* \"@openzeppelin/contracts/token/ERC20/extensions/ERC20Burnable.sol\":1151:1156  _burn */\n      tag_127\n        /* \"@openzeppelin/contracts/token/ERC20/extensions/ERC20Burnable.sol\":1151:1172  _burn(account, value) */\n      jump\t// in\n        /* \"@openzeppelin/contracts/token/ERC20/ERC20.sol\":1962:2055  function symbol() public view virtual returns (string memory) {... */\n    tag_70:\n        /* \"@openzeppelin/contracts/token/ERC20/ERC20.sol\":2009:2022  string memory */\n      0x60\n        /* \"@openzeppelin/contracts/token/ERC20/ERC20.sol\":2041:2048  _symbol */\n      0x04\n        /* \"@openzeppelin/contracts/token/ERC20/ERC20.sol\":2034:2048  return _symbol */\n      dup1\n      sload\n      tag_85\n      swap1\n      tag_86\n      jump\t// in\n        /* \"@openzeppelin/contracts/token/ERC20/ERC20.sol\":3296:3474  function transfer(address to, uint256 value) public virtual returns (bool) {... */\n    tag_74:\n        /* \"@openzeppelin/contracts/token/ERC20/ERC20.sol\":3365:3369  bool */\n      0x00\n        /* \"@openzeppelin/contracts/utils/Context.sol\":735:745  msg.sender */\n      caller\n        /* \"@openzeppelin/contracts/token/ERC20/ERC20.sol\":3419:3446  _transfer(owner, to, value) */\n      tag_94\n        /* \"@openzeppelin/contracts/utils/Context.sol\":735:745  msg.sender */\n      dup2\n        /* \"@openzeppelin/contracts/token/ERC20/ERC20.sol\":3436:3438  to */\n      dup6\n        /* \"@openzeppelin/contracts/token/ERC20/ERC20.sol\":3440:3445  value */\n      dup6\n        /* \"@openzeppelin/contracts/token/ERC20/ERC20.sol\":3419:3428  _transfer */\n      tag_102\n        /* \"@openzeppelin/contracts/token/ERC20/ERC20.sol\":3419:3446  _transfer(owner, to, value) */\n      jump\t// in\n        /* \"@openzeppelin/contracts/access/Ownable.sol\":2543:2758  function transferOwnership(address newOwner) public virtual onlyOwner {... */\n    tag_83:\n        /* \"@openzeppelin/contracts/access/Ownable.sol\":1531:1544  _checkOwner() */\n      tag_150\n        /* \"@openzeppelin/contracts/access/Ownable.sol\":1531:1542  _checkOwner */\n      tag_107\n        /* \"@openzeppelin/contracts/access/Ownable.sol\":1531:1544  _checkOwner() */\n      jump\t// in\n    tag_150:\n      sub(shl(0xa0, 0x01), 0x01)\n        /* \"@openzeppelin/contracts/access/Ownable.sol\":2627:2649  newOwner == address(0) */\n      dup2\n      and\n        /* \"@openzeppelin/contracts/access/Ownable.sol\":2623:2714  if (newOwner == address(0)) {... */\n      tag_152\n      jumpi\n        /* \"@openzeppelin/contracts/access/Ownable.sol\":2672:2703  OwnableInvalidOwner(address(0)) */\n      mload(0x40)\n      shl(0xe0, 0x1e4fbdf7)\n      dup2\n      mstore\n        /* \"@openzeppelin/contracts/access/Ownable.sol\":2700:2701  0 */\n      0x00\n        /* \"@openzeppelin/contracts/access/Ownable.sol\":2672:2703  OwnableInvalidOwner(address(0)) */\n      0x04\n      dup3\n      add\n        /* \"#utility.yul\":2430:2481   */\n      mstore\n        /* \"#utility.yul\":2403:2421   */\n      0x24\n      add\n        /* \"@openzeppelin/contracts/access/Ownable.sol\":2672:2703  OwnableInvalidOwner(address(0)) */\n    tag_153:\n      mload(0x40)\n      dup1\n      swap2\n      sub\n      swap1\n      revert\n        /* \"@openzeppelin/contracts/access/Ownable.sol\":2623:2714  if (newOwner == address(0)) {... */\n    tag_152:\n        /* \"@openzeppelin/contracts/access/Ownable.sol\":2723:2751  _transferOwnership(newOwner) */\n      tag_125\n        /* \"@openzeppelin/contracts/access/Ownable.sol\":2742:2750  newOwner */\n      dup2\n        /* \"@openzeppelin/contracts/access/Ownable.sol\":2723:2741  _transferOwnership */\n      tag_133\n        /* \"@openzeppelin/contracts/access/Ownable.sol\":2723:2751  _transferOwnership(newOwner) */\n      jump\t// in\n        /* \"@openzeppelin/contracts/token/ERC20/ERC20.sol\":8707:8835  function _approve(address owner, address spender, uint256 value) internal {... */\n    tag_95:\n        /* \"@openzeppelin/contracts/token/ERC20/ERC20.sol\":8791:8828  _approve(owner, spender, value, true) */\n      tag_157\n        /* \"@openzeppelin/contracts/token/ERC20/ERC20.sol\":8800:8805  owner */\n      dup4\n        /* \"@openzeppelin/contracts/token/ERC20/ERC20.sol\":8807:8814  spender */\n      dup4\n        /* \"@openzeppelin/contracts/token/ERC20/ERC20.sol\":8816:8821  value */\n      dup4\n        /* \"@openzeppelin/contracts/token/ERC20/ERC20.sol\":8823:8827  true */\n      0x01\n        /* \"@openzeppelin/contracts/token/ERC20/ERC20.sol\":8791:8799  _approve */\n      tag_158\n        /* \"@openzeppelin/contracts/token/ERC20/ERC20.sol\":8791:8828  _approve(owner, spender, value, true) */\n      jump\t// in\n    tag_157:\n        /* \"@openzeppelin/contracts/token/ERC20/ERC20.sol\":8707:8835  function _approve(address owner, address spender, uint256 value) internal {... */\n      pop\n      pop\n      pop\n      jump\t// out\n        /* \"@openzeppelin/contracts/token/ERC20/ERC20.sol\":10396:10872  function _spendAllowance(address owner, address spender, uint256 value) internal virtual {... */\n    tag_100:\n      sub(shl(0xa0, 0x01), 0x01)\n        /* \"@openzeppelin/contracts/token/ERC20/ERC20.sol\":3638:3656  _allowances[owner] */\n      dup4\n      dup2\n      and\n        /* \"@openzeppelin/contracts/token/ERC20/ERC20.sol\":10495:10519  uint256 currentAllowance */\n      0x00\n        /* \"@openzeppelin/contracts/token/ERC20/ERC20.sol\":3638:3656  _allowances[owner] */\n      swap1\n      dup2\n      mstore\n        /* \"@openzeppelin/contracts/token/ERC20/ERC20.sol\":3638:3649  _allowances */\n      0x01\n        /* \"@openzeppelin/contracts/token/ERC20/ERC20.sol\":3638:3656  _allowances[owner] */\n      0x20\n      swap1\n      dup2\n      mstore\n      0x40\n      dup1\n      dup4\n      keccak256\n        /* \"@openzeppelin/contracts/token/ERC20/ERC20.sol\":3638:3665  _allowances[owner][spender] */\n      swap4\n      dup7\n      and\n      dup4\n      mstore\n      swap3\n      swap1\n      mstore\n      keccak256\n      sload\n      not(0x00)\n        /* \"@openzeppelin/contracts/token/ERC20/ERC20.sol\":10561:10597  currentAllowance < type(uint256).max */\n      dup2\n      lt\n        /* \"@openzeppelin/contracts/token/ERC20/ERC20.sol\":10557:10866  if (currentAllowance < type(uint256).max) {... */\n      iszero\n      tag_165\n      jumpi\n        /* \"@openzeppelin/contracts/token/ERC20/ERC20.sol\":10636:10641  value */\n      dup2\n        /* \"@openzeppelin/contracts/token/ERC20/ERC20.sol\":10617:10633  currentAllowance */\n      dup2\n        /* \"@openzeppelin/contracts/token/ERC20/ERC20.sol\":10617:10641  currentAllowance < value */\n      lt\n        /* \"@openzeppelin/contracts/token/ERC20/ERC20.sol\":10613:10743  if (currentAllowance < value) {... */\n      iszero\n      tag_162\n      jumpi\n        /* \"@openzeppelin/contracts/token/ERC20/ERC20.sol\":10668:10728  ERC20InsufficientAllowance(spender, currentAllowance, value) */\n      mload(0x40)\n      shl(0xe1, 0x7dc7a0d9)\n      dup2\n      mstore\n      sub(shl(0xa0, 0x01), 0x01)\n        /* \"#utility.yul\":5229:5261   */\n      dup5\n      and\n        /* \"@openzeppelin/contracts/token/ERC20/ERC20.sol\":10668:10728  ERC20InsufficientAllowance(spender, currentAllowance, value) */\n      0x04\n      dup3\n      add\n        /* \"#utility.yul\":5211:5262   */\n      mstore\n        /* \"#utility.yul\":5278:5296   */\n      0x24\n      dup2\n      add\n        /* \"#utility.yul\":5271:5305   */\n      dup3\n      swap1\n      mstore\n        /* \"#utility.yul\":5321:5339   */\n      0x44\n      dup2\n      add\n        /* \"#utility.yul\":5314:5348   */\n      dup4\n      swap1\n      mstore\n        /* \"#utility.yul\":5184:5202   */\n      0x64\n      add\n        /* \"@openzeppelin/contracts/token/ERC20/ERC20.sol\":10668:10728  ERC20InsufficientAllowance(spender, currentAllowance, value) */\n      tag_153\n        /* \"#utility.yul\":5009:5354   */\n      jump\n        /* \"@openzeppelin/contracts/token/ERC20/ERC20.sol\":10613:10743  if (currentAllowance < value) {... */\n    tag_162:\n        /* \"@openzeppelin/contracts/token/ERC20/ERC20.sol\":10784:10841  _approve(owner, spender, currentAllowance - value, false) */\n      tag_165\n        /* \"@openzeppelin/contracts/token/ERC20/ERC20.sol\":10793:10798  owner */\n      dup5\n        /* \"@openzeppelin/contracts/token/ERC20/ERC20.sol\":10800:10807  spender */\n      dup5\n        /* \"@openzeppelin/contracts/token/ERC20/ERC20.sol\":10828:10833  value */\n      dup5\n        /* \"@openzeppelin/contracts/token/ERC20/ERC20.sol\":10809:10825  currentAllowance */\n      dup5\n        /* \"@openzeppelin/contracts/token/ERC20/ERC20.sol\":10809:10833  currentAllowance - value */\n      sub\n        /* \"@openzeppelin/contracts/token/ERC20/ERC20.sol\":10835:10840  false */\n      0x00\n        /* \"@openzeppelin/contracts/token/ERC20/ERC20.sol\":10784:10792  _approve */\n      tag_158\n        /* \"@openzeppelin/contracts/token/ERC20/ERC20.sol\":10784:10841  _approve(owner, spender, currentAllowance - value, false) */\n      jump\t// in\n    tag_165:\n        /* \"@openzeppelin/contracts/token/ERC20/ERC20.sol\":10485:10872  {... */\n      pop\n        /* \"@openzeppelin/contracts/token/ERC20/ERC20.sol\":10396:10872  function _spendAllowance(address owner, address spender, uint256 value) internal virtual {... */\n      pop\n      pop\n      pop\n      jump\t// out\n        /* \"@openzeppelin/contracts/token/ERC20/ERC20.sol\":5374:5674  function _transfer(address from, address to, uint256 value) internal {... */\n    tag_102:\n      sub(shl(0xa0, 0x01), 0x01)\n        /* \"@openzeppelin/contracts/token/ERC20/ERC20.sol\":5457:5475  from == address(0) */\n      dup4\n      and\n        /* \"@openzeppelin/contracts/token/ERC20/ERC20.sol\":5453:5539  if (from == address(0)) {... */\n      tag_167\n      jumpi\n        /* \"@openzeppelin/contracts/token/ERC20/ERC20.sol\":5498:5528  ERC20InvalidSender(address(0)) */\n      mload(0x40)\n      shl(0xe1, 0x4b637e8f)\n      dup2\n      mstore\n        /* \"@openzeppelin/contracts/token/ERC20/ERC20.sol\":5525:5526  0 */\n      0x00\n        /* \"@openzeppelin/contracts/token/ERC20/ERC20.sol\":5498:5528  ERC20InvalidSender(address(0)) */\n      0x04\n      dup3\n      add\n        /* \"#utility.yul\":2430:2481   */\n      mstore\n        /* \"#utility.yul\":2403:2421   */\n      0x24\n      add\n        /* \"@openzeppelin/contracts/token/ERC20/ERC20.sol\":5498:5528  ERC20InvalidSender(address(0)) */\n      tag_153\n        /* \"#utility.yul\":2284:2487   */\n      jump\n        /* \"@openzeppelin/contracts/token/ERC20/ERC20.sol\":5453:5539  if (from == address(0)) {... */\n    tag_167:\n      sub(shl(0xa0, 0x01), 0x01)\n        /* \"@openzeppelin/contracts/token/ERC20/ERC20.sol\":5552:5568  to == address(0) */\n      dup3\n      and\n        /* \"@openzeppelin/contracts/token/ERC20/ERC20.sol\":5548:5634  if (to == address(0)) {... */\n      tag_169\n      jumpi\n        /* \"@openzeppelin/contracts/token/ERC20/ERC20.sol\":5591:5623  ERC20InvalidReceiver(address(0)) */\n      mload(0x40)\n      shl(0xe0, 0xec442f05)\n      dup2\n      mstore\n        /* \"@openzeppelin/contracts/token/ERC20/ERC20.sol\":5620:5621  0 */\n      0x00\n        /* \"@openzeppelin/contracts/token/ERC20/ERC20.sol\":5591:5623  ERC20InvalidReceiver(address(0)) */\n      0x04\n      dup3\n      add\n        /* \"#utility.yul\":2430:2481   */\n      mstore\n        /* \"#utility.yul\":2403:2421   */\n      0x24\n      add\n        /* \"@openzeppelin/contracts/token/ERC20/ERC20.sol\":5591:5623  ERC20InvalidReceiver(address(0)) */\n      tag_153\n        /* \"#utility.yul\":2284:2487   */\n      jump\n        /* \"@openzeppelin/contracts/token/ERC20/ERC20.sol\":5548:5634  if (to == address(0)) {... */\n    tag_169:\n        /* \"@openzeppelin/contracts/token/ERC20/ERC20.sol\":5643:5667  _update(from, to, value) */\n      tag_157\n        /* \"@openzeppelin/contracts/token/ERC20/ERC20.sol\":5651:5655  from */\n      dup4\n        /* \"@openzeppelin/contracts/token/ERC20/ERC20.sol\":5657:5659  to */\n      dup4\n        /* \"@openzeppelin/contracts/token/ERC20/ERC20.sol\":5661:5666  value */\n      dup4\n        /* \"@openzeppelin/contracts/token/ERC20/ERC20.sol\":5643:5650  _update */\n      tag_172\n        /* \"@openzeppelin/contracts/token/ERC20/ERC20.sol\":5643:5667  _update(from, to, value) */\n      jump\t// in\n        /* \"@openzeppelin/contracts/access/Ownable.sol\":1796:1958  function _checkOwner() internal view virtual {... */\n    tag_107:\n        /* \"@openzeppelin/contracts/access/Ownable.sol\":1710:1716  _owner */\n      and(sub(shl(0xa0, 0x01), 0x01), sload(0x05))\n        /* \"@openzeppelin/contracts/utils/Context.sol\":735:745  msg.sender */\n      caller\n        /* \"@openzeppelin/contracts/access/Ownable.sol\":1855:1878  owner() != _msgSender() */\n      eq\n        /* \"@openzeppelin/contracts/access/Ownable.sol\":1851:1952  if (owner() != _msgSender()) {... */\n      tag_132\n      jumpi\n        /* \"@openzeppelin/contracts/access/Ownable.sol\":1901:1941  OwnableUnauthorizedAccount(_msgSender()) */\n      mload(0x40)\n      shl(0xe0, 0x118cdaa7)\n      dup2\n      mstore\n        /* \"@openzeppelin/contracts/utils/Context.sol\":735:745  msg.sender */\n      caller\n        /* \"@openzeppelin/contracts/access/Ownable.sol\":1901:1941  OwnableUnauthorizedAccount(_msgSender()) */\n      0x04\n      dup3\n      add\n        /* \"#utility.yul\":2430:2481   */\n      mstore\n        /* \"#utility.yul\":2403:2421   */\n      0x24\n      add\n        /* \"@openzeppelin/contracts/access/Ownable.sol\":1901:1941  OwnableUnauthorizedAccount(_msgSender()) */\n      tag_153\n        /* \"#utility.yul\":2284:2487   */\n      jump\n        /* \"@openzeppelin/contracts/token/ERC20/ERC20.sol\":7439:7647  function _mint(address account, uint256 value) internal {... */\n    tag_123:\n      sub(shl(0xa0, 0x01), 0x01)\n        /* \"@openzeppelin/contracts/token/ERC20/ERC20.sol\":7509:7530  account == address(0) */\n      dup3\n      and\n        /* \"@openzeppelin/contracts/token/ERC20/ERC20.sol\":7505:7596  if (account == address(0)) {... */\n      tag_180\n      jumpi\n        /* \"@openzeppelin/contracts/token/ERC20/ERC20.sol\":7553:7585  ERC20InvalidReceiver(address(0)) */\n      mload(0x40)\n      shl(0xe0, 0xec442f05)\n      dup2\n      mstore\n        /* \"@openzeppelin/contracts/token/ERC20/ERC20.sol\":7582:7583  0 */\n      0x00\n        /* \"@openzeppelin/contracts/token/ERC20/ERC20.sol\":7553:7585  ERC20InvalidReceiver(address(0)) */\n      0x04\n      dup3\n      add\n        /* \"#utility.yul\":2430:2481   */\n      mstore\n        /* \"#utility.yul\":2403:2421   */\n      0x24\n      add\n        /* \"@openzeppelin/contracts/token/ERC20/ERC20.sol\":7553:7585  ERC20InvalidReceiver(address(0)) */\n      tag_153\n        /* \"#utility.yul\":2284:2487   */\n      jump\n        /* \"@openzeppelin/contracts/token/ERC20/ERC20.sol\":7505:7596  if (account == address(0)) {... */\n    tag_180:\n        /* \"@openzeppelin/contracts/token/ERC20/ERC20.sol\":7605:7640  _update(address(0), account, value) */\n      tag_119\n        /* \"@openzeppelin/contracts/token/ERC20/ERC20.sol\":7621:7622  0 */\n      0x00\n        /* \"@openzeppelin/contracts/token/ERC20/ERC20.sol\":7625:7632  account */\n      dup4\n        /* \"@openzeppelin/contracts/token/ERC20/ERC20.sol\":7634:7639  value */\n      dup4\n        /* \"@openzeppelin/contracts/token/ERC20/ERC20.sol\":7605:7612  _update */\n      tag_172\n        /* \"@openzeppelin/contracts/token/ERC20/ERC20.sol\":7605:7640  _update(address(0), account, value) */\n      jump\t// in\n        /* \"@openzeppelin/contracts/token/ERC20/ERC20.sol\":7965:8171  function _burn(address account, uint256 value) internal {... */\n    tag_127:\n      sub(shl(0xa0, 0x01), 0x01)\n        /* \"@openzeppelin/contracts/token/ERC20/ERC20.sol\":8035:8056  account == address(0) */\n      dup3\n      and\n        /* \"@openzeppelin/contracts/token/ERC20/ERC20.sol\":8031:8120  if (account == address(0)) {... */\n      tag_184\n      jumpi\n        /* \"@openzeppelin/contracts/token/ERC20/ERC20.sol\":8079:8109  ERC20InvalidSender(address(0)) */\n      mload(0x40)\n      shl(0xe1, 0x4b637e8f)\n      dup2\n      mstore\n        /* \"@openzeppelin/contracts/token/ERC20/ERC20.sol\":8106:8107  0 */\n      0x00\n        /* \"@openzeppelin/contracts/token/ERC20/ERC20.sol\":8079:8109  ERC20InvalidSender(address(0)) */\n      0x04\n      dup3\n      add\n        /* \"#utility.yul\":2430:2481   */\n      mstore\n        /* \"#utility.yul\":2403:2421   */\n      0x24\n      add\n        /* \"@openzeppelin/contracts/token/ERC20/ERC20.sol\":8079:8109  ERC20InvalidSender(address(0)) */\n      tag_153\n        /* \"#utility.yul\":2284:2487   */\n      jump\n        /* \"@openzeppelin/contracts/token/ERC20/ERC20.sol\":8031:8120  if (account == address(0)) {... */\n    tag_184:\n        /* \"@openzeppelin/contracts/token/ERC20/ERC20.sol\":8129:8164  _update(account, address(0), value) */\n      tag_119\n        /* \"@openzeppelin/contracts/token/ERC20/ERC20.sol\":8137:8144  account */\n      dup3\n        /* \"@openzeppelin/contracts/token/ERC20/ERC20.sol\":8154:8155  0 */\n      0x00\n        /* \"@openzeppelin/contracts/token/ERC20/ERC20.sol\":8158:8163  value */\n      dup4\n        /* \"@openzeppelin/contracts/token/ERC20/ERC20.sol\":8129:8136  _update */\n      tag_172\n        /* \"@openzeppelin/contracts/token/ERC20/ERC20.sol\":8129:8164  _update(account, address(0), value) */\n      jump\t// in\n        /* \"@openzeppelin/contracts/access/Ownable.sol\":2912:3099  function _transferOwnership(address newOwner) internal virtual {... */\n    tag_133:\n        /* \"@openzeppelin/contracts/access/Ownable.sol\":3004:3010  _owner */\n      0x05\n      dup1\n      sload\n      sub(shl(0xa0, 0x01), 0x01)\n        /* \"@openzeppelin/contracts/access/Ownable.sol\":3020:3037  _owner = newOwner */\n      dup4\n      dup2\n      and\n      not(sub(shl(0xa0, 0x01), 0x01))\n      dup4\n      and\n      dup2\n      or\n      swap1\n      swap4\n      sstore\n        /* \"@openzeppelin/contracts/access/Ownable.sol\":3052:3092  OwnershipTransferred(oldOwner, newOwner) */\n      mload(0x40)\n        /* \"@openzeppelin/contracts/access/Ownable.sol\":3004:3010  _owner */\n      swap2\n      and\n      swap2\n        /* \"@openzeppelin/contracts/access/Ownable.sol\":3020:3037  _owner = newOwner */\n      swap1\n        /* \"@openzeppelin/contracts/access/Ownable.sol\":3004:3010  _owner */\n      dup3\n      swap1\n        /* \"@openzeppelin/contracts/access/Ownable.sol\":3052:3092  OwnershipTransferred(oldOwner, newOwner) */\n      0x8be0079c531659141344cd1fd0a4f28419497f9722a3daafe3b4186f6b6457e0\n      swap1\n        /* \"@openzeppelin/contracts/access/Ownable.sol\":2985:3001  address oldOwner */\n      0x00\n      swap1\n        /* \"@openzeppelin/contracts/access/Ownable.sol\":3052:3092  OwnershipTransferred(oldOwner, newOwner) */\n      log3\n        /* \"@openzeppelin/contracts/access/Ownable.sol\":2975:3099  {... */\n      pop\n        /* \"@openzeppelin/contracts/access/Ownable.sol\":2912:3099  function _transferOwnership(address newOwner) internal virtual {... */\n      pop\n      jump\t// out\n        /* \"@openzeppelin/contracts/token/ERC20/ERC20.sol\":9682:10114  function _approve(address owner, address spender, uint256 value, bool emitEvent) internal virtual {... */\n    tag_158:\n      sub(shl(0xa0, 0x01), 0x01)\n        /* \"@openzeppelin/contracts/token/ERC20/ERC20.sol\":9794:9813  owner == address(0) */\n      dup5\n      and\n        /* \"@openzeppelin/contracts/token/ERC20/ERC20.sol\":9790:9879  if (owner == address(0)) {... */\n      tag_189\n      jumpi\n        /* \"@openzeppelin/contracts/token/ERC20/ERC20.sol\":9836:9868  ERC20InvalidApprover(address(0)) */\n      mload(0x40)\n      shl(0xe0, 0xe602df05)\n      dup2\n      mstore\n        /* \"@openzeppelin/contracts/token/ERC20/ERC20.sol\":9865:9866  0 */\n      0x00\n        /* \"@openzeppelin/contracts/token/ERC20/ERC20.sol\":9836:9868  ERC20InvalidApprover(address(0)) */\n      0x04\n      dup3\n      add\n        /* \"#utility.yul\":2430:2481   */\n      mstore\n        /* \"#utility.yul\":2403:2421   */\n      0x24\n      add\n        /* \"@openzeppelin/contracts/token/ERC20/ERC20.sol\":9836:9868  ERC20InvalidApprover(address(0)) */\n      tag_153\n        /* \"#utility.yul\":2284:2487   */\n      jump\n        /* \"@openzeppelin/contracts/token/ERC20/ERC20.sol\":9790:9879  if (owner == address(0)) {... */\n    tag_189:\n      sub(shl(0xa0, 0x01), 0x01)\n        /* \"@openzeppelin/contracts/token/ERC20/ERC20.sol\":9892:9913  spender == address(0) */\n      dup4\n      and\n        /* \"@openzeppelin/contracts/token/ERC20/ERC20.sol\":9888:9978  if (spender == address(0)) {... */\n      tag_191\n      jumpi\n        /* \"@openzeppelin/contracts/token/ERC20/ERC20.sol\":9936:9967  ERC20InvalidSpender(address(0)) */\n      mload(0x40)\n      shl(0xe1, 0x4a1406b1)\n      dup2\n      mstore\n        /* \"@openzeppelin/contracts/token/ERC20/ERC20.sol\":9964:9965  0 */\n      0x00\n        /* \"@openzeppelin/contracts/token/ERC20/ERC20.sol\":9936:9967  ERC20InvalidSpender(address(0)) */\n      0x04\n      dup3\n      add\n        /* \"#utility.yul\":2430:2481   */\n      mstore\n        /* \"#utility.yul\":2403:2421   */\n      0x24\n      add\n        /* \"@openzeppelin/contracts/token/ERC20/ERC20.sol\":9936:9967  ERC20InvalidSpender(address(0)) */\n      tag_153\n        /* \"#utility.yul\":2284:2487   */\n      jump\n        /* \"@openzeppelin/contracts/token/ERC20/ERC20.sol\":9888:9978  if (spender == address(0)) {... */\n    tag_191:\n      sub(shl(0xa0, 0x01), 0x01)\n        /* \"@openzeppelin/contracts/token/ERC20/ERC20.sol\":9987:10005  _allowances[owner] */\n      dup1\n      dup6\n      and\n      0x00\n      swap1\n      dup2\n      mstore\n        /* \"@openzeppelin/contracts/token/ERC20/ERC20.sol\":9987:9998  _allowances */\n      0x01\n        /* \"@openzeppelin/contracts/token/ERC20/ERC20.sol\":9987:10005  _allowances[owner] */\n      0x20\n      swap1\n      dup2\n      mstore\n      0x40\n      dup1\n      dup4\n      keccak256\n        /* \"@openzeppelin/contracts/token/ERC20/ERC20.sol\":9987:10014  _allowances[owner][spender] */\n      swap4\n      dup8\n      and\n      dup4\n      mstore\n      swap3\n      swap1\n      mstore\n      keccak256\n        /* \"@openzeppelin/contracts/token/ERC20/ERC20.sol\":9987:10022  _allowances[owner][spender] = value */\n      dup3\n      swap1\n      sstore\n        /* \"@openzeppelin/contracts/token/ERC20/ERC20.sol\":10032:10108  if (emitEvent) {... */\n      dup1\n      iszero\n      tag_165\n      jumpi\n        /* \"@openzeppelin/contracts/token/ERC20/ERC20.sol\":10082:10089  spender */\n      dup3\n      sub(shl(0xa0, 0x01), 0x01)\n        /* \"@openzeppelin/contracts/token/ERC20/ERC20.sol\":10066:10097  Approval(owner, spender, value) */\n      and\n        /* \"@openzeppelin/contracts/token/ERC20/ERC20.sol\":10075:10080  owner */\n      dup5\n      sub(shl(0xa0, 0x01), 0x01)\n        /* \"@openzeppelin/contracts/token/ERC20/ERC20.sol\":10066:10097  Approval(owner, spender, value) */\n      and\n      0x8c5be1e5ebec7d5bd14f71427d1e84f3dd0314c0f7b2291e5b200ac8c7c3b925\n        /* \"@openzeppelin/contracts/token/ERC20/ERC20.sol\":10091:10096  value */\n      dup5\n        /* \"@openzeppelin/contracts/token/ERC20/ERC20.sol\":10066:10097  Approval(owner, spender, value) */\n      mload(0x40)\n      tag_194\n      swap2\n        /* \"#utility.yul\":1258:1283   */\n      dup2\n      mstore\n        /* \"#utility.yul\":1246:1248   */\n      0x20\n        /* \"#utility.yul\":1231:1249   */\n      add\n      swap1\n        /* \"#utility.yul\":1112:1289   */\n      jump\n        /* \"@openzeppelin/contracts/token/ERC20/ERC20.sol\":10066:10097  Approval(owner, spender, value) */\n    tag_194:\n      mload(0x40)\n      dup1\n      swap2\n      sub\n      swap1\n      log3\n        /* \"@openzeppelin/contracts/token/ERC20/ERC20.sol\":9682:10114  function _approve(address owner, address spender, uint256 value, bool emitEvent) internal virtual {... */\n      pop\n      pop\n      pop\n      pop\n      jump\t// out\n        /* \"TecnoCoin.sol\":974:1142  function _update(address from, address to, uint256 value)... */\n    tag_172:\n        /* \"TecnoCoin.sol\":1104:1134  super._update(from, to, value) */\n      tag_157\n        /* \"TecnoCoin.sol\":1118:1122  from */\n      dup4\n        /* \"TecnoCoin.sol\":1124:1126  to */\n      dup4\n        /* \"TecnoCoin.sol\":1128:1133  value */\n      dup4\n        /* \"@openzeppelin/contracts/token/ERC20/extensions/ERC20Capped.sol\":1153:1183  super._update(from, to, value) */\n      tag_199\n        /* \"@openzeppelin/contracts/token/ERC20/extensions/ERC20Capped.sol\":1167:1171  from */\n      dup4\n        /* \"@openzeppelin/contracts/token/ERC20/extensions/ERC20Capped.sol\":1173:1175  to */\n      dup4\n        /* \"@openzeppelin/contracts/token/ERC20/extensions/ERC20Capped.sol\":1177:1182  value */\n      dup4\n        /* \"@openzeppelin/contracts/token/ERC20/extensions/ERC20Capped.sol\":1153:1166  super._update */\n      tag_200\n        /* \"@openzeppelin/contracts/token/ERC20/extensions/ERC20Capped.sol\":1153:1183  super._update(from, to, value) */\n      jump\t// in\n    tag_199:\n      sub(shl(0xa0, 0x01), 0x01)\n        /* \"@openzeppelin/contracts/token/ERC20/extensions/ERC20Capped.sol\":1198:1216  from == address(0) */\n      dup4\n      and\n        /* \"@openzeppelin/contracts/token/ERC20/extensions/ERC20Capped.sol\":1194:1424  if (from == address(0)) {... */\n      tag_157\n      jumpi\n        /* \"@openzeppelin/contracts/token/ERC20/ERC20.sol\":2908:2920  _totalSupply */\n      sload(0x02)\n        /* \"@openzeppelin/contracts/token/ERC20/extensions/ERC20Capped.sol\":993:997  _cap */\n      immutable(\"0x69de3b38836c938ac93bb31643655e6e0a011af0f354a009a432084d0f963864\")\n      swap1\n        /* \"@openzeppelin/contracts/token/ERC20/extensions/ERC20Capped.sol\":1328:1337  maxSupply */\n      dup2\n        /* \"@openzeppelin/contracts/token/ERC20/extensions/ERC20Capped.sol\":1319:1325  supply */\n      dup2\n        /* \"@openzeppelin/contracts/token/ERC20/extensions/ERC20Capped.sol\":1319:1337  supply > maxSupply */\n      gt\n        /* \"@openzeppelin/contracts/token/ERC20/extensions/ERC20Capped.sol\":1315:1414  if (supply > maxSupply) {... */\n      iszero\n      tag_204\n      jumpi\n        /* \"@openzeppelin/contracts/token/ERC20/extensions/ERC20Capped.sol\":1364:1399  ERC20ExceededCap(supply, maxSupply) */\n      mload(0x40)\n      shl(0xe2, 0x279e7e15)\n      dup2\n      mstore\n      0x04\n      dup2\n      add\n        /* \"#utility.yul\":5533:5558   */\n      dup3\n      swap1\n      mstore\n        /* \"#utility.yul\":5574:5592   */\n      0x24\n      dup2\n      add\n        /* \"#utility.yul\":5567:5601   */\n      dup4\n      swap1\n      mstore\n        /* \"#utility.yul\":5506:5524   */\n      0x44\n      add\n        /* \"@openzeppelin/contracts/token/ERC20/extensions/ERC20Capped.sol\":1364:1399  ERC20ExceededCap(supply, maxSupply) */\n      tag_153\n        /* \"#utility.yul\":5359:5607   */\n      jump\n        /* \"@openzeppelin/contracts/token/ERC20/extensions/ERC20Capped.sol\":1315:1414  if (supply > maxSupply) {... */\n    tag_204:\n        /* \"@openzeppelin/contracts/token/ERC20/extensions/ERC20Capped.sol\":1218:1424  {... */\n      pop\n      pop\n        /* \"@openzeppelin/contracts/token/ERC20/extensions/ERC20Capped.sol\":1059:1430  function _update(address from, address to, uint256 value) internal virtual override {... */\n      pop\n      pop\n      pop\n      jump\t// out\n        /* \"@openzeppelin/contracts/token/ERC20/ERC20.sol\":5989:7096  function _update(address from, address to, uint256 value) internal virtual {... */\n    tag_200:\n      sub(shl(0xa0, 0x01), 0x01)\n        /* \"@openzeppelin/contracts/token/ERC20/ERC20.sol\":6078:6096  from == address(0) */\n      dup4\n      and\n        /* \"@openzeppelin/contracts/token/ERC20/ERC20.sol\":6074:6614  if (from == address(0)) {... */\n      tag_208\n      jumpi\n        /* \"@openzeppelin/contracts/token/ERC20/ERC20.sol\":6230:6235  value */\n      dup1\n        /* \"@openzeppelin/contracts/token/ERC20/ERC20.sol\":6214:6226  _totalSupply */\n      0x02\n      0x00\n        /* \"@openzeppelin/contracts/token/ERC20/ERC20.sol\":6214:6235  _totalSupply += value */\n      dup3\n      dup3\n      sload\n      tag_209\n      swap2\n      swap1\n      tag_117\n      jump\t// in\n    tag_209:\n      swap1\n      swap2\n      sstore\n      pop\n        /* \"@openzeppelin/contracts/token/ERC20/ERC20.sol\":6074:6614  if (from == address(0)) {... */\n      tag_210\n      swap1\n      pop\n      jump\n    tag_208:\n      sub(shl(0xa0, 0x01), 0x01)\n        /* \"@openzeppelin/contracts/token/ERC20/ERC20.sol\":6288:6303  _balances[from] */\n      dup4\n      and\n        /* \"@openzeppelin/contracts/token/ERC20/ERC20.sol\":6266:6285  uint256 fromBalance */\n      0x00\n        /* \"@openzeppelin/contracts/token/ERC20/ERC20.sol\":6288:6303  _balances[from] */\n      swap1\n      dup2\n      mstore\n      0x20\n      dup2\n      swap1\n      mstore\n      0x40\n      swap1\n      keccak256\n      sload\n        /* \"@openzeppelin/contracts/token/ERC20/ERC20.sol\":6321:6340  fromBalance < value */\n      dup2\n      dup2\n      lt\n        /* \"@openzeppelin/contracts/token/ERC20/ERC20.sol\":6317:6432  if (fromBalance < value) {... */\n      iszero\n      tag_211\n      jumpi\n        /* \"@openzeppelin/contracts/token/ERC20/ERC20.sol\":6367:6417  ERC20InsufficientBalance(from, fromBalance, value) */\n      mload(0x40)\n      shl(0xe2, 0x391434e3)\n      dup2\n      mstore\n      sub(shl(0xa0, 0x01), 0x01)\n        /* \"#utility.yul\":5229:5261   */\n      dup6\n      and\n        /* \"@openzeppelin/contracts/token/ERC20/ERC20.sol\":6367:6417  ERC20InsufficientBalance(from, fromBalance, value) */\n      0x04\n      dup3\n      add\n        /* \"#utility.yul\":5211:5262   */\n      mstore\n        /* \"#utility.yul\":5278:5296   */\n      0x24\n      dup2\n      add\n        /* \"#utility.yul\":5271:5305   */\n      dup3\n      swap1\n      mstore\n        /* \"#utility.yul\":5321:5339   */\n      0x44\n      dup2\n      add\n        /* \"#utility.yul\":5314:5348   */\n      dup4\n      swap1\n      mstore\n        /* \"#utility.yul\":5184:5202   */\n      0x64\n      add\n        /* \"@openzeppelin/contracts/token/ERC20/ERC20.sol\":6367:6417  ERC20InsufficientBalance(from, fromBalance, value) */\n      tag_153\n        /* \"#utility.yul\":5009:5354   */\n      jump\n        /* \"@openzeppelin/contracts/token/ERC20/ERC20.sol\":6317:6432  if (fromBalance < value) {... */\n    tag_211:\n      sub(shl(0xa0, 0x01), 0x01)\n        /* \"@openzeppelin/contracts/token/ERC20/ERC20.sol\":6552:6567  _balances[from] */\n      dup5\n      and\n        /* \"@openzeppelin/contracts/token/ERC20/ERC20.sol\":6552:6561  _balances */\n      0x00\n        /* \"@openzeppelin/contracts/token/ERC20/ERC20.sol\":6552:6567  _balances[from] */\n      swap1\n      dup2\n      mstore\n      0x20\n      dup2\n      swap1\n      mstore\n      0x40\n      swap1\n      keccak256\n        /* \"@openzeppelin/contracts/token/ERC20/ERC20.sol\":6570:6589  fromBalance - value */\n      swap1\n      dup3\n      swap1\n      sub\n        /* \"@openzeppelin/contracts/token/ERC20/ERC20.sol\":6552:6589  _balances[from] = fromBalance - value */\n      swap1\n      sstore\n        /* \"@openzeppelin/contracts/token/ERC20/ERC20.sol\":6074:6614  if (from == address(0)) {... */\n    tag_210:\n      sub(shl(0xa0, 0x01), 0x01)\n        /* \"@openzeppelin/contracts/token/ERC20/ERC20.sol\":6628:6644  to == address(0) */\n      dup3\n      and\n        /* \"@openzeppelin/contracts/token/ERC20/ERC20.sol\":6624:7049  if (to == address(0)) {... */\n      tag_213\n      jumpi\n        /* \"@openzeppelin/contracts/token/ERC20/ERC20.sol\":6791:6803  _totalSupply */\n      0x02\n        /* \"@openzeppelin/contracts/token/ERC20/ERC20.sol\":6791:6812  _totalSupply -= value */\n      dup1\n      sload\n      dup3\n      swap1\n      sub\n      swap1\n      sstore\n        /* \"@openzeppelin/contracts/token/ERC20/ERC20.sol\":6624:7049  if (to == address(0)) {... */\n      jump(tag_214)\n    tag_213:\n      sub(shl(0xa0, 0x01), 0x01)\n        /* \"@openzeppelin/contracts/token/ERC20/ERC20.sol\":7002:7015  _balances[to] */\n      dup3\n      and\n        /* \"@openzeppelin/contracts/token/ERC20/ERC20.sol\":7002:7011  _balances */\n      0x00\n        /* \"@openzeppelin/contracts/token/ERC20/ERC20.sol\":7002:7015  _balances[to] */\n      swap1\n      dup2\n      mstore\n      0x20\n      dup2\n      swap1\n      mstore\n      0x40\n      swap1\n      keccak256\n        /* \"@openzeppelin/contracts/token/ERC20/ERC20.sol\":7002:7024  _balances[to] += value */\n      dup1\n      sload\n      dup3\n      add\n      swap1\n      sstore\n        /* \"@openzeppelin/contracts/token/ERC20/ERC20.sol\":6624:7049  if (to == address(0)) {... */\n    tag_214:\n        /* \"@openzeppelin/contracts/token/ERC20/ERC20.sol\":7079:7081  to */\n      dup2\n      sub(shl(0xa0, 0x01), 0x01)\n        /* \"@openzeppelin/contracts/token/ERC20/ERC20.sol\":7064:7089  Transfer(from, to, value) */\n      and\n        /* \"@openzeppelin/contracts/token/ERC20/ERC20.sol\":7073:7077  from */\n      dup4\n      sub(shl(0xa0, 0x01), 0x01)\n        /* \"@openzeppelin/contracts/token/ERC20/ERC20.sol\":7064:7089  Transfer(from, to, value) */\n      and\n      0xddf252ad1be2c89b69c2b068fc378daa952ba7f163c4a11628f55a4df523b3ef\n        /* \"@openzeppelin/contracts/token/ERC20/ERC20.sol\":7083:7088  value */\n      dup4\n        /* \"@openzeppelin/contracts/token/ERC20/ERC20.sol\":7064:7089  Transfer(from, to, value) */\n      mload(0x40)\n      tag_215\n      swap2\n        /* \"#utility.yul\":1258:1283   */\n      dup2\n      mstore\n        /* \"#utility.yul\":1246:1248   */\n      0x20\n        /* \"#utility.yul\":1231:1249   */\n      add\n      swap1\n        /* \"#utility.yul\":1112:1289   */\n      jump\n        /* \"@openzeppelin/contracts/token/ERC20/ERC20.sol\":7064:7089  Transfer(from, to, value) */\n    tag_215:\n      mload(0x40)\n      dup1\n      swap2\n      sub\n      swap1\n      log3\n        /* \"@openzeppelin/contracts/token/ERC20/ERC20.sol\":5989:7096  function _update(address from, address to, uint256 value) internal virtual {... */\n      pop\n      pop\n      pop\n      jump\t// out\n        /* \"#utility.yul\":14:432   */\n    tag_25:\n        /* \"#utility.yul\":163:165   */\n      0x20\n        /* \"#utility.yul\":152:161   */\n      dup2\n        /* \"#utility.yul\":145:166   */\n      mstore\n        /* \"#utility.yul\":126:130   */\n      0x00\n        /* \"#utility.yul\":195:201   */\n      dup3\n        /* \"#utility.yul\":189:202   */\n      mload\n        /* \"#utility.yul\":238:244   */\n      dup1\n        /* \"#utility.yul\":233:235   */\n      0x20\n        /* \"#utility.yul\":222:231   */\n      dup5\n        /* \"#utility.yul\":218:236   */\n      add\n        /* \"#utility.yul\":211:245   */\n      mstore\n        /* \"#utility.yul\":297:303   */\n      dup1\n        /* \"#utility.yul\":292:294   */\n      0x20\n        /* \"#utility.yul\":284:290   */\n      dup6\n        /* \"#utility.yul\":280:295   */\n      add\n        /* \"#utility.yul\":275:277   */\n      0x40\n        /* \"#utility.yul\":264:273   */\n      dup6\n        /* \"#utility.yul\":260:278   */\n      add\n        /* \"#utility.yul\":254:304   */\n      mcopy\n        /* \"#utility.yul\":353:354   */\n      0x00\n        /* \"#utility.yul\":348:350   */\n      0x40\n        /* \"#utility.yul\":339:345   */\n      dup3\n        /* \"#utility.yul\":328:337   */\n      dup6\n        /* \"#utility.yul\":324:346   */\n      add\n        /* \"#utility.yul\":320:351   */\n      add\n        /* \"#utility.yul\":313:355   */\n      mstore\n        /* \"#utility.yul\":423:425   */\n      0x40\n        /* \"#utility.yul\":416:418   */\n      0x1f\n        /* \"#utility.yul\":412:419   */\n      not\n        /* \"#utility.yul\":407:409   */\n      0x1f\n        /* \"#utility.yul\":399:405   */\n      dup4\n        /* \"#utility.yul\":395:410   */\n      add\n        /* \"#utility.yul\":391:420   */\n      and\n        /* \"#utility.yul\":380:389   */\n      dup5\n        /* \"#utility.yul\":376:421   */\n      add\n        /* \"#utility.yul\":372:426   */\n      add\n        /* \"#utility.yul\":364:426   */\n      swap2\n      pop\n      pop\n        /* \"#utility.yul\":14:432   */\n      swap3\n      swap2\n      pop\n      pop\n      jump\t// out\n        /* \"#utility.yul\":437:610   */\n    tag_216:\n        /* \"#utility.yul\":505:525   */\n      dup1\n      calldataload\n      sub(shl(0xa0, 0x01), 0x01)\n        /* \"#utility.yul\":554:585   */\n      dup2\n      and\n        /* \"#utility.yul\":544:586   */\n      dup2\n      eq\n        /* \"#utility.yul\":534:604   */\n      tag_223\n      jumpi\n        /* \"#utility.yul\":600:601   */\n      0x00\n        /* \"#utility.yul\":597:598   */\n      0x00\n        /* \"#utility.yul\":590:602   */\n      revert\n        /* \"#utility.yul\":534:604   */\n    tag_223:\n        /* \"#utility.yul\":437:610   */\n      swap2\n      swap1\n      pop\n      jump\t// out\n        /* \"#utility.yul\":615:915   */\n    tag_28:\n        /* \"#utility.yul\":683:689   */\n      0x00\n        /* \"#utility.yul\":691:697   */\n      0x00\n        /* \"#utility.yul\":744:746   */\n      0x40\n        /* \"#utility.yul\":732:741   */\n      dup4\n        /* \"#utility.yul\":723:730   */\n      dup6\n        /* \"#utility.yul\":719:742   */\n      sub\n        /* \"#utility.yul\":715:747   */\n      slt\n        /* \"#utility.yul\":712:764   */\n      iszero\n      tag_225\n      jumpi\n        /* \"#utility.yul\":760:761   */\n      0x00\n        /* \"#utility.yul\":757:758   */\n      0x00\n        /* \"#utility.yul\":750:762   */\n      revert\n        /* \"#utility.yul\":712:764   */\n    tag_225:\n        /* \"#utility.yul\":783:812   */\n      tag_226\n        /* \"#utility.yul\":802:811   */\n      dup4\n        /* \"#utility.yul\":783:812   */\n      tag_216\n      jump\t// in\n    tag_226:\n        /* \"#utility.yul\":773:812   */\n      swap5\n        /* \"#utility.yul\":881:883   */\n      0x20\n        /* \"#utility.yul\":866:884   */\n      swap4\n      swap1\n      swap4\n      add\n        /* \"#utility.yul\":853:885   */\n      calldataload\n      swap4\n      pop\n      pop\n      pop\n        /* \"#utility.yul\":615:915   */\n      jump\t// out\n        /* \"#utility.yul\":1294:1668   */\n    tag_38:\n        /* \"#utility.yul\":1371:1377   */\n      0x00\n        /* \"#utility.yul\":1379:1385   */\n      0x00\n        /* \"#utility.yul\":1387:1393   */\n      0x00\n        /* \"#utility.yul\":1440:1442   */\n      0x60\n        /* \"#utility.yul\":1428:1437   */\n      dup5\n        /* \"#utility.yul\":1419:1426   */\n      dup7\n        /* \"#utility.yul\":1415:1438   */\n      sub\n        /* \"#utility.yul\":1411:1443   */\n      slt\n        /* \"#utility.yul\":1408:1460   */\n      iszero\n      tag_230\n      jumpi\n        /* \"#utility.yul\":1456:1457   */\n      0x00\n        /* \"#utility.yul\":1453:1454   */\n      0x00\n        /* \"#utility.yul\":1446:1458   */\n      revert\n        /* \"#utility.yul\":1408:1460   */\n    tag_230:\n        /* \"#utility.yul\":1479:1508   */\n      tag_231\n        /* \"#utility.yul\":1498:1507   */\n      dup5\n        /* \"#utility.yul\":1479:1508   */\n      tag_216\n      jump\t// in\n    tag_231:\n        /* \"#utility.yul\":1469:1508   */\n      swap3\n      pop\n        /* \"#utility.yul\":1527:1565   */\n      tag_232\n        /* \"#utility.yul\":1561:1563   */\n      0x20\n        /* \"#utility.yul\":1550:1559   */\n      dup6\n        /* \"#utility.yul\":1546:1564   */\n      add\n        /* \"#utility.yul\":1527:1565   */\n      tag_216\n      jump\t// in\n    tag_232:\n        /* \"#utility.yul\":1294:1668   */\n      swap3\n      swap6\n        /* \"#utility.yul\":1517:1565   */\n      swap3\n      swap5\n      pop\n      pop\n      pop\n        /* \"#utility.yul\":1634:1636   */\n      0x40\n        /* \"#utility.yul\":1619:1637   */\n      swap2\n      swap1\n      swap2\n      add\n        /* \"#utility.yul\":1606:1638   */\n      calldataload\n      swap1\n        /* \"#utility.yul\":1294:1668   */\n      jump\t// out\n        /* \"#utility.yul\":1862:2088   */\n    tag_53:\n        /* \"#utility.yul\":1921:1927   */\n      0x00\n        /* \"#utility.yul\":1974:1976   */\n      0x20\n        /* \"#utility.yul\":1962:1971   */\n      dup3\n        /* \"#utility.yul\":1953:1960   */\n      dup5\n        /* \"#utility.yul\":1949:1972   */\n      sub\n        /* \"#utility.yul\":1945:1977   */\n      slt\n        /* \"#utility.yul\":1942:1994   */\n      iszero\n      tag_235\n      jumpi\n        /* \"#utility.yul\":1990:1991   */\n      0x00\n        /* \"#utility.yul\":1987:1988   */\n      0x00\n        /* \"#utility.yul\":1980:1992   */\n      revert\n        /* \"#utility.yul\":1942:1994   */\n    tag_235:\n      pop\n        /* \"#utility.yul\":2035:2058   */\n      calldataload\n      swap2\n        /* \"#utility.yul\":1862:2088   */\n      swap1\n      pop\n      jump\t// out\n        /* \"#utility.yul\":2093:2279   */\n    tag_57:\n        /* \"#utility.yul\":2152:2158   */\n      0x00\n        /* \"#utility.yul\":2205:2207   */\n      0x20\n        /* \"#utility.yul\":2193:2202   */\n      dup3\n        /* \"#utility.yul\":2184:2191   */\n      dup5\n        /* \"#utility.yul\":2180:2203   */\n      sub\n        /* \"#utility.yul\":2176:2208   */\n      slt\n        /* \"#utility.yul\":2173:2225   */\n      iszero\n      tag_237\n      jumpi\n        /* \"#utility.yul\":2221:2222   */\n      0x00\n        /* \"#utility.yul\":2218:2219   */\n      0x00\n        /* \"#utility.yul\":2211:2223   */\n      revert\n        /* \"#utility.yul\":2173:2225   */\n    tag_237:\n        /* \"#utility.yul\":2244:2273   */\n      tag_238\n        /* \"#utility.yul\":2263:2272   */\n      dup3\n        /* \"#utility.yul\":2244:2273   */\n      tag_216\n      jump\t// in\n    tag_238:\n        /* \"#utility.yul\":2234:2273   */\n      swap4\n        /* \"#utility.yul\":2093:2279   */\n      swap3\n      pop\n      pop\n      pop\n      jump\t// out\n        /* \"#utility.yul\":2492:2752   */\n    tag_78:\n        /* \"#utility.yul\":2560:2566   */\n      0x00\n        /* \"#utility.yul\":2568:2574   */\n      0x00\n        /* \"#utility.yul\":2621:2623   */\n      0x40\n        /* \"#utility.yul\":2609:2618   */\n      dup4\n        /* \"#utility.yul\":2600:2607   */\n      dup6\n        /* \"#utility.yul\":2596:2619   */\n      sub\n        /* \"#utility.yul\":2592:2624   */\n      slt\n        /* \"#utility.yul\":2589:2641   */\n      iszero\n      tag_241\n      jumpi\n        /* \"#utility.yul\":2637:2638   */\n      0x00\n        /* \"#utility.yul\":2634:2635   */\n      0x00\n        /* \"#utility.yul\":2627:2639   */\n      revert\n        /* \"#utility.yul\":2589:2641   */\n    tag_241:\n        /* \"#utility.yul\":2660:2689   */\n      tag_242\n        /* \"#utility.yul\":2679:2688   */\n      dup4\n        /* \"#utility.yul\":2660:2689   */\n      tag_216\n      jump\t// in\n    tag_242:\n        /* \"#utility.yul\":2650:2689   */\n      swap2\n      pop\n        /* \"#utility.yul\":2708:2746   */\n      tag_243\n        /* \"#utility.yul\":2742:2744   */\n      0x20\n        /* \"#utility.yul\":2731:2740   */\n      dup5\n        /* \"#utility.yul\":2727:2745   */\n      add\n        /* \"#utility.yul\":2708:2746   */\n      tag_216\n      jump\t// in\n    tag_243:\n        /* \"#utility.yul\":2698:2746   */\n      swap1\n      pop\n        /* \"#utility.yul\":2492:2752   */\n      swap3\n      pop\n      swap3\n      swap1\n      pop\n      jump\t// out\n        /* \"#utility.yul\":2757:3137   */\n    tag_86:\n        /* \"#utility.yul\":2836:2837   */\n      0x01\n        /* \"#utility.yul\":2832:2844   */\n      dup2\n      dup2\n      shr\n      swap1\n        /* \"#utility.yul\":2879:2891   */\n      dup3\n      and\n      dup1\n        /* \"#utility.yul\":2900:2961   */\n      tag_245\n      jumpi\n        /* \"#utility.yul\":2954:2958   */\n      0x7f\n        /* \"#utility.yul\":2946:2952   */\n      dup3\n        /* \"#utility.yul\":2942:2959   */\n      and\n        /* \"#utility.yul\":2932:2959   */\n      swap2\n      pop\n        /* \"#utility.yul\":2900:2961   */\n    tag_245:\n        /* \"#utility.yul\":3007:3009   */\n      0x20\n        /* \"#utility.yul\":2999:3005   */\n      dup3\n        /* \"#utility.yul\":2996:3010   */\n      lt\n        /* \"#utility.yul\":2976:2994   */\n      dup2\n        /* \"#utility.yul\":2973:3011   */\n      sub\n        /* \"#utility.yul\":2970:3131   */\n      tag_246\n      jumpi\n        /* \"#utility.yul\":3053:3063   */\n      0x4e487b71\n        /* \"#utility.yul\":3048:3051   */\n      0xe0\n        /* \"#utility.yul\":3044:3064   */\n      shl\n        /* \"#utility.yul\":3041:3042   */\n      0x00\n        /* \"#utility.yul\":3034:3065   */\n      mstore\n        /* \"#utility.yul\":3088:3092   */\n      0x22\n        /* \"#utility.yul\":3085:3086   */\n      0x04\n        /* \"#utility.yul\":3078:3093   */\n      mstore\n        /* \"#utility.yul\":3116:3120   */\n      0x24\n        /* \"#utility.yul\":3113:3114   */\n      0x00\n        /* \"#utility.yul\":3106:3121   */\n      revert\n        /* \"#utility.yul\":2970:3131   */\n    tag_246:\n      pop\n        /* \"#utility.yul\":2757:3137   */\n      swap2\n      swap1\n      pop\n      jump\t// out\n        /* \"#utility.yul\":3142:3269   */\n    tag_217:\n        /* \"#utility.yul\":3203:3213   */\n      0x4e487b71\n        /* \"#utility.yul\":3198:3201   */\n      0xe0\n        /* \"#utility.yul\":3194:3214   */\n      shl\n        /* \"#utility.yul\":3191:3192   */\n      0x00\n        /* \"#utility.yul\":3184:3215   */\n      mstore\n        /* \"#utility.yul\":3234:3238   */\n      0x11\n        /* \"#utility.yul\":3231:3232   */\n      0x04\n        /* \"#utility.yul\":3224:3239   */\n      mstore\n        /* \"#utility.yul\":3258:3262   */\n      0x24\n        /* \"#utility.yul\":3255:3256   */\n      0x00\n        /* \"#utility.yul\":3248:3263   */\n      revert\n        /* \"#utility.yul\":3274:3649   */\n    tag_218:\n        /* \"#utility.yul\":3362:3363   */\n      0x01\n        /* \"#utility.yul\":3380:3385   */\n      dup2\n        /* \"#utility.yul\":3394:3643   */\n    tag_249:\n        /* \"#utility.yul\":3415:3416   */\n      0x01\n        /* \"#utility.yul\":3405:3413   */\n      dup5\n        /* \"#utility.yul\":3402:3417   */\n      gt\n        /* \"#utility.yul\":3394:3643   */\n      iszero\n      tag_251\n      jumpi\n        /* \"#utility.yul\":3465:3469   */\n      dup1\n        /* \"#utility.yul\":3460:3463   */\n      dup6\n        /* \"#utility.yul\":3456:3470   */\n      div\n        /* \"#utility.yul\":3450:3454   */\n      dup2\n        /* \"#utility.yul\":3447:3471   */\n      gt\n        /* \"#utility.yul\":3444:3494   */\n      iszero\n      tag_253\n      jumpi\n        /* \"#utility.yul\":3474:3492   */\n      tag_253\n      tag_217\n      jump\t// in\n    tag_253:\n        /* \"#utility.yul\":3524:3525   */\n      0x01\n        /* \"#utility.yul\":3514:3522   */\n      dup5\n        /* \"#utility.yul\":3510:3526   */\n      and\n        /* \"#utility.yul\":3507:3556   */\n      iszero\n      tag_254\n      jumpi\n        /* \"#utility.yul\":3538:3554   */\n      swap1\n      dup2\n      mul\n      swap1\n        /* \"#utility.yul\":3507:3556   */\n    tag_254:\n        /* \"#utility.yul\":3621:3622   */\n      0x01\n        /* \"#utility.yul\":3617:3633   */\n      swap4\n      swap1\n      swap4\n      shr\n      swap3\n        /* \"#utility.yul\":3577:3592   */\n      dup1\n      mul\n        /* \"#utility.yul\":3394:3643   */\n      jump(tag_249)\n    tag_251:\n        /* \"#utility.yul\":3274:3649   */\n      swap4\n      pop\n      swap4\n      swap2\n      pop\n      pop\n      jump\t// out\n        /* \"#utility.yul\":3654:4556   */\n    tag_219:\n        /* \"#utility.yul\":3703:3708   */\n      0x00\n        /* \"#utility.yul\":3733:3741   */\n      dup3\n        /* \"#utility.yul\":3723:3803   */\n      tag_256\n      jumpi\n      pop\n        /* \"#utility.yul\":3774:3775   */\n      0x01\n        /* \"#utility.yul\":3788:3793   */\n      jump(tag_91)\n        /* \"#utility.yul\":3723:3803   */\n    tag_256:\n        /* \"#utility.yul\":3822:3826   */\n      dup2\n        /* \"#utility.yul\":3812:3888   */\n      tag_257\n      jumpi\n      pop\n        /* \"#utility.yul\":3859:3860   */\n      0x00\n        /* \"#utility.yul\":3873:3878   */\n      jump(tag_91)\n        /* \"#utility.yul\":3812:3888   */\n    tag_257:\n        /* \"#utility.yul\":3904:3908   */\n      dup2\n        /* \"#utility.yul\":3922:3923   */\n      0x01\n        /* \"#utility.yul\":3917:3976   */\n      dup2\n      eq\n      tag_259\n      jumpi\n        /* \"#utility.yul\":3990:3991   */\n      0x02\n        /* \"#utility.yul\":3985:4159   */\n      dup2\n      eq\n      tag_260\n      jumpi\n        /* \"#utility.yul\":3897:4159   */\n      jump(tag_258)\n        /* \"#utility.yul\":3917:3976   */\n    tag_259:\n        /* \"#utility.yul\":3947:3948   */\n      0x01\n        /* \"#utility.yul\":3938:3948   */\n      swap2\n      pop\n        /* \"#utility.yul\":3961:3966   */\n      pop\n      jump(tag_91)\n        /* \"#utility.yul\":3985:4159   */\n    tag_260:\n        /* \"#utility.yul\":4022:4025   */\n      0xff\n        /* \"#utility.yul\":4012:4020   */\n      dup5\n        /* \"#utility.yul\":4009:4026   */\n      gt\n        /* \"#utility.yul\":4006:4049   */\n      iszero\n      tag_262\n      jumpi\n        /* \"#utility.yul\":4029:4047   */\n      tag_262\n      tag_217\n      jump\t// in\n    tag_262:\n      pop\n      pop\n        /* \"#utility.yul\":4085:4086   */\n      0x01\n        /* \"#utility.yul\":4071:4087   */\n      dup3\n      shl\n        /* \"#utility.yul\":4144:4149   */\n      jump(tag_91)\n        /* \"#utility.yul\":3897:4159   */\n    tag_258:\n      pop\n        /* \"#utility.yul\":4243:4245   */\n      0x20\n        /* \"#utility.yul\":4233:4241   */\n      dup4\n        /* \"#utility.yul\":4230:4246   */\n      lt\n        /* \"#utility.yul\":4224:4227   */\n      0x0133\n        /* \"#utility.yul\":4218:4222   */\n      dup4\n        /* \"#utility.yul\":4215:4228   */\n      lt\n        /* \"#utility.yul\":4211:4247   */\n      and\n        /* \"#utility.yul\":4205:4207   */\n      0x4e\n        /* \"#utility.yul\":4195:4203   */\n      dup5\n        /* \"#utility.yul\":4192:4208   */\n      lt\n        /* \"#utility.yul\":4187:4189   */\n      0x0b\n        /* \"#utility.yul\":4181:4185   */\n      dup5\n        /* \"#utility.yul\":4178:4190   */\n      lt\n        /* \"#utility.yul\":4174:4209   */\n      and\n        /* \"#utility.yul\":4171:4248   */\n      or\n        /* \"#utility.yul\":4168:4371   */\n      iszero\n      tag_263\n      jumpi\n      pop\n        /* \"#utility.yul\":4280:4299   */\n      dup2\n      dup2\n      exp\n        /* \"#utility.yul\":4356:4361   */\n      jump(tag_91)\n        /* \"#utility.yul\":4168:4371   */\n    tag_263:\n        /* \"#utility.yul\":4403:4445   */\n      tag_264\n      not(0x00)\n        /* \"#utility.yul\":4428:4436   */\n      dup5\n        /* \"#utility.yul\":4422:4426   */\n      dup5\n        /* \"#utility.yul\":4403:4445   */\n      tag_218\n      jump\t// in\n    tag_264:\n        /* \"#utility.yul\":4481:4487   */\n      dup1\n        /* \"#utility.yul\":4477:4478   */\n      0x00\n        /* \"#utility.yul\":4473:4479   */\n      not\n        /* \"#utility.yul\":4469:4488   */\n      div\n        /* \"#utility.yul\":4460:4467   */\n      dup3\n        /* \"#utility.yul\":4457:4489   */\n      gt\n        /* \"#utility.yul\":4454:4512   */\n      iszero\n      tag_266\n      jumpi\n        /* \"#utility.yul\":4492:4510   */\n      tag_266\n      tag_217\n      jump\t// in\n    tag_266:\n        /* \"#utility.yul\":4530:4550   */\n      mul\n      swap4\n        /* \"#utility.yul\":3654:4556   */\n      swap3\n      pop\n      pop\n      pop\n      jump\t// out\n        /* \"#utility.yul\":4561:4701   */\n    tag_112:\n        /* \"#utility.yul\":4619:4624   */\n      0x00\n        /* \"#utility.yul\":4648:4695   */\n      tag_238\n        /* \"#utility.yul\":4689:4693   */\n      0xff\n        /* \"#utility.yul\":4679:4687   */\n      dup5\n        /* \"#utility.yul\":4675:4694   */\n      and\n        /* \"#utility.yul\":4669:4673   */\n      dup4\n        /* \"#utility.yul\":4648:4695   */\n      tag_219\n      jump\t// in\n        /* \"#utility.yul\":4706:4874   */\n    tag_114:\n        /* \"#utility.yul\":4779:4788   */\n      dup1\n      dup3\n      mul\n        /* \"#utility.yul\":4810:4819   */\n      dup2\n      iszero\n        /* \"#utility.yul\":4827:4842   */\n      dup3\n      dup3\n      div\n        /* \"#utility.yul\":4821:4843   */\n      dup5\n      eq\n        /* \"#utility.yul\":4807:4844   */\n      or\n        /* \"#utility.yul\":4797:4868   */\n      tag_91\n      jumpi\n        /* \"#utility.yul\":4848:4866   */\n      tag_91\n      tag_217\n      jump\t// in\n        /* \"#utility.yul\":4879:5004   */\n    tag_117:\n        /* \"#utility.yul\":4944:4953   */\n      dup1\n      dup3\n      add\n        /* \"#utility.yul\":4965:4975   */\n      dup1\n      dup3\n      gt\n        /* \"#utility.yul\":4962:4998   */\n      iszero\n      tag_91\n      jumpi\n        /* \"#utility.yul\":4978:4996   */\n      tag_91\n      tag_217\n      jump\t// in\n\n    auxdata: 0xa264697066735822122026b89f27dc5c3be5b406c514b679a2db27e6f0d84171f8e671d49db8480acb2c64736f6c634300081e0033\n}\n",
				"bytecode": {
					"linkReferences": {},
					"object": "60a060405234801561000f575f5ffd5b5060405161117738038061117783398101604081905261002e91610347565b3361003b6012600a610462565b6100459083610477565b604051806040016040528060098152602001682a32b1b737a1b7b4b760b91b81525060405180604001604052806003815260200162544e4360e81b8152508160039081610092919061051e565b50600461009f828261051e565b505050805f036100c95760405163392e1e2760e01b81525f60048201526024015b60405180910390fd5b6080526001600160a01b0381166100f557604051631e4fbdf760e01b81525f60048201526024016100c0565b6100fe81610125565b5061011e3361010f6012600a610462565b6101199085610477565b610176565b50506105eb565b600580546001600160a01b038381166001600160a01b0319831681179093556040519116919082907f8be0079c531659141344cd1fd0a4f28419497f9722a3daafe3b4186f6b6457e0905f90a35050565b6001600160a01b03821661019f5760405163ec442f0560e01b81525f60048201526024016100c0565b6101aa5f83836101ae565b5050565b6101b98383836101be565b505050565b6101c9838383610221565b6001600160a01b0383166101b9575f6101e160805190565b90505f6101ed60025490565b90508181111561021a5760405163279e7e1560e21b815260048101829052602481018390526044016100c0565b5050505050565b6001600160a01b03831661024b578060025f82825461024091906105d8565b909155506102bb9050565b6001600160a01b0383165f908152602081905260409020548181101561029d5760405163391434e360e21b81526001600160a01b038516600482015260248101829052604481018390526064016100c0565b6001600160a01b0384165f9081526020819052604090209082900390555b6001600160a01b0382166102d7576002805482900390556102f5565b6001600160a01b0382165f9081526020819052604090208054820190555b816001600160a01b0316836001600160a01b03167fddf252ad1be2c89b69c2b068fc378daa952ba7f163c4a11628f55a4df523b3ef8360405161033a91815260200190565b60405180910390a3505050565b5f5f60408385031215610358575f5ffd5b505080516020909101519092909150565b634e487b7160e01b5f52601160045260245ffd5b6001815b60018411156103b85780850481111561039c5761039c610369565b60018416156103aa57908102905b60019390931c928002610381565b935093915050565b5f826103ce5750600161045c565b816103da57505f61045c565b81600181146103f057600281146103fa57610416565b600191505061045c565b60ff84111561040b5761040b610369565b50506001821b61045c565b5060208310610133831016604e8410600b8410161715610439575081810a61045c565b6104455f19848461037d565b805f190482111561045857610458610369565b0290505b92915050565b5f61047060ff8416836103c0565b9392505050565b808202811582820484141761045c5761045c610369565b634e487b7160e01b5f52604160045260245ffd5b600181811c908216806104b657607f821691505b6020821081036104d457634e487b7160e01b5f52602260045260245ffd5b50919050565b601f8211156101b957805f5260205f20601f840160051c810160208510156104ff5750805b601f840160051c820191505b8181101561021a575f815560010161050b565b81516001600160401b038111156105375761053761048e565b61054b8161054584546104a2565b846104da565b6020601f82116001811461057d575f83156105665750848201515b5f19600385901b1c1916600184901b17845561021a565b5f84815260208120601f198516915b828110156105ac578785015182556020948501946001909201910161058c565b50848210156105c957868401515f19600387901b60f8161c191681555b50505050600190811b01905550565b8082018082111561045c5761045c610369565b608051610b666106115f395f81816101760152818161035c01526107370152610b665ff3fe608060405234801561000f575f5ffd5b50600436106100fb575f3560e01c806370a082311161009357806395d89b411161006357806395d89b4114610220578063a9059cbb14610228578063dd62ed3e1461023b578063f2fde38b14610273575f5ffd5b806370a08231146101c2578063715018a6146101ea57806379cc6790146101f25780638da5cb5b14610205575f5ffd5b8063313ce567116100ce578063313ce56714610165578063355274ea1461017457806340c10f191461019a57806342966c68146101af575f5ffd5b806306fdde03146100ff578063095ea7b31461011d57806318160ddd1461014057806323b872dd14610152575b5f5ffd5b610107610286565b60405161011491906108af565b60405180910390f35b61013061012b3660046108ff565b610316565b6040519015158152602001610114565b6002545b604051908152602001610114565b610130610160366004610927565b61032f565b60405160128152602001610114565b7f0000000000000000000000000000000000000000000000000000000000000000610144565b6101ad6101a83660046108ff565b610352565b005b6101ad6101bd366004610961565b6103e0565b6101446101d0366004610978565b6001600160a01b03165f9081526020819052604090205490565b6101ad6103ed565b6101ad6102003660046108ff565b610400565b6005546040516001600160a01b039091168152602001610114565b610107610415565b6101306102363660046108ff565b610424565b610144610249366004610998565b6001600160a01b039182165f90815260016020908152604080832093909416825291909152205490565b6101ad610281366004610978565b610431565b606060038054610295906109c9565b80601f01602080910402602001604051908101604052809291908181526020018280546102c1906109c9565b801561030c5780601f106102e35761010080835404028352916020019161030c565b820191905f5260205f20905b8154815290600101906020018083116102ef57829003601f168201915b5050505050905090565b5f33610323818585610470565b60019150505b92915050565b5f3361033c858285610482565b6103478585856104fe565b506001949350505050565b61035a61055b565b7f00000000000000000000000000000000000000000000000000000000000000006103876012600a610af8565b6103919083610b06565b60025461039e9190610b1d565b11156103bd57604051630bf3aa0360e41b815260040160405180910390fd5b6103dc826103cd6012600a610af8565b6103d79084610b06565b610588565b5050565b6103ea33826105bc565b50565b6103f561055b565b6103fe5f6105f0565b565b61040b823383610482565b6103dc82826105bc565b606060048054610295906109c9565b5f336103238185856104fe565b61043961055b565b6001600160a01b03811661046757604051631e4fbdf760e01b81525f60048201526024015b60405180910390fd5b6103ea816105f0565b61047d8383836001610641565b505050565b6001600160a01b038381165f908152600160209081526040808320938616835292905220545f198110156104f857818110156104ea57604051637dc7a0d960e11b81526001600160a01b0384166004820152602481018290526044810183905260640161045e565b6104f884848484035f610641565b50505050565b6001600160a01b03831661052757604051634b637e8f60e11b81525f600482015260240161045e565b6001600160a01b0382166105505760405163ec442f0560e01b81525f600482015260240161045e565b61047d838383610713565b6005546001600160a01b031633146103fe5760405163118cdaa760e01b815233600482015260240161045e565b6001600160a01b0382166105b15760405163ec442f0560e01b81525f600482015260240161045e565b6103dc5f8383610713565b6001600160a01b0382166105e557604051634b637e8f60e11b81525f600482015260240161045e565b6103dc825f83610713565b600580546001600160a01b038381166001600160a01b0319831681179093556040519116919082907f8be0079c531659141344cd1fd0a4f28419497f9722a3daafe3b4186f6b6457e0905f90a35050565b6001600160a01b03841661066a5760405163e602df0560e01b81525f600482015260240161045e565b6001600160a01b03831661069357604051634a1406b160e11b81525f600482015260240161045e565b6001600160a01b038085165f90815260016020908152604080832093871683529290522082905580156104f857826001600160a01b0316846001600160a01b03167f8c5be1e5ebec7d5bd14f71427d1e84f3dd0314c0f7b2291e5b200ac8c7c3b9258460405161070591815260200190565b60405180910390a350505050565b61047d838383610724838383610789565b6001600160a01b03831661047d576002547f000000000000000000000000000000000000000000000000000000000000000090818111156107825760405163279e7e1560e21b8152600481018290526024810183905260440161045e565b5050505050565b6001600160a01b0383166107b3578060025f8282546107a89190610b1d565b909155506108239050565b6001600160a01b0383165f90815260208190526040902054818110156108055760405163391434e360e21b81526001600160a01b0385166004820152602481018290526044810183905260640161045e565b6001600160a01b0384165f9081526020819052604090209082900390555b6001600160a01b03821661083f5760028054829003905561085d565b6001600160a01b0382165f9081526020819052604090208054820190555b816001600160a01b0316836001600160a01b03167fddf252ad1be2c89b69c2b068fc378daa952ba7f163c4a11628f55a4df523b3ef836040516108a291815260200190565b60405180910390a3505050565b602081525f82518060208401528060208501604085015e5f604082850101526040601f19601f83011684010191505092915050565b80356001600160a01b03811681146108fa575f5ffd5b919050565b5f5f60408385031215610910575f5ffd5b610919836108e4565b946020939093013593505050565b5f5f5f60608486031215610939575f5ffd5b610942846108e4565b9250610950602085016108e4565b929592945050506040919091013590565b5f60208284031215610971575f5ffd5b5035919050565b5f60208284031215610988575f5ffd5b610991826108e4565b9392505050565b5f5f604083850312156109a9575f5ffd5b6109b2836108e4565b91506109c0602084016108e4565b90509250929050565b600181811c908216806109dd57607f821691505b6020821081036109fb57634e487b7160e01b5f52602260045260245ffd5b50919050565b634e487b7160e01b5f52601160045260245ffd5b6001815b6001841115610a5057808504811115610a3457610a34610a01565b6001841615610a4257908102905b60019390931c928002610a19565b935093915050565b5f82610a6657506001610329565b81610a7257505f610329565b8160018114610a885760028114610a9257610aae565b6001915050610329565b60ff841115610aa357610aa3610a01565b50506001821b610329565b5060208310610133831016604e8410600b8410161715610ad1575081810a610329565b610add5f198484610a15565b805f1904821115610af057610af0610a01565b029392505050565b5f61099160ff841683610a58565b808202811582820484141761032957610329610a01565b8082018082111561032957610329610a0156fea264697066735822122026b89f27dc5c3be5b406c514b679a2db27e6f0d84171f8e671d49db8480acb2c64736f6c634300081e0033",
					"opcodes": "PUSH1 0xA0 PUSH1 0x40 MSTORE CALLVALUE DUP1 ISZERO PUSH2 0xF JUMPI PUSH0 PUSH0 REVERT JUMPDEST POP PUSH1 0x40 MLOAD PUSH2 0x1177 CODESIZE SUB DUP1 PUSH2 0x1177 DUP4 CODECOPY DUP2 ADD PUSH1 0x40 DUP2 SWAP1 MSTORE PUSH2 0x2E SWAP2 PUSH2 0x347 JUMP JUMPDEST CALLER PUSH2 0x3B PUSH1 0x12 PUSH1 0xA PUSH2 0x462 JUMP JUMPDEST PUSH2 0x45 SWAP1 DUP4 PUSH2 0x477 JUMP JUMPDEST PUSH1 0x40 MLOAD DUP1 PUSH1 0x40 ADD PUSH1 0x40 MSTORE DUP1 PUSH1 0x9 DUP2 MSTORE PUSH1 0x20 ADD PUSH9 0x2A32B1B737A1B7B4B7 PUSH1 0xB9 SHL DUP2 MSTORE POP PUSH1 0x40 MLOAD DUP1 PUSH1 0x40 ADD PUSH1 0x40 MSTORE DUP1 PUSH1 0x3 DUP2 MSTORE PUSH1 0x20 ADD PUSH3 0x544E43 PUSH1 0xE8 SHL DUP2 MSTORE POP DUP2 PUSH1 0x3 SWAP1 DUP2 PUSH2 0x92 SWAP2 SWAP1 PUSH2 0x51E JUMP JUMPDEST POP PUSH1 0x4 PUSH2 0x9F DUP3 DUP3 PUSH2 0x51E JUMP JUMPDEST POP POP POP DUP1 PUSH0 SUB PUSH2 0xC9 JUMPI PUSH1 0x40 MLOAD PUSH4 0x392E1E27 PUSH1 0xE0 SHL DUP2 MSTORE PUSH0 PUSH1 0x4 DUP3 ADD MSTORE PUSH1 0x24 ADD JUMPDEST PUSH1 0x40 MLOAD DUP1 SWAP2 SUB SWAP1 REVERT JUMPDEST PUSH1 0x80 MSTORE PUSH1 0x1 PUSH1 0x1 PUSH1 0xA0 SHL SUB DUP2 AND PUSH2 0xF5 JUMPI PUSH1 0x40 MLOAD PUSH4 0x1E4FBDF7 PUSH1 0xE0 SHL DUP2 MSTORE PUSH0 PUSH1 0x4 DUP3 ADD MSTORE PUSH1 0x24 ADD PUSH2 0xC0 JUMP JUMPDEST PUSH2 0xFE DUP2 PUSH2 0x125 JUMP JUMPDEST POP PUSH2 0x11E CALLER PUSH2 0x10F PUSH1 0x12 PUSH1 0xA PUSH2 0x462 JUMP JUMPDEST PUSH2 0x119 SWAP1 DUP6 PUSH2 0x477 JUMP JUMPDEST PUSH2 0x176 JUMP JUMPDEST POP POP PUSH2 0x5EB JUMP JUMPDEST PUSH1 0x5 DUP1 SLOAD PUSH1 0x1 PUSH1 0x1 PUSH1 0xA0 SHL SUB DUP4 DUP2 AND PUSH1 0x1 PUSH1 0x1 PUSH1 0xA0 SHL SUB NOT DUP4 AND DUP2 OR SWAP1 SWAP4 SSTORE PUSH1 0x40 MLOAD SWAP2 AND SWAP2 SWAP1 DUP3 SWAP1 PUSH32 0x8BE0079C531659141344CD1FD0A4F28419497F9722A3DAAFE3B4186F6B6457E0 SWAP1 PUSH0 SWAP1 LOG3 POP POP JUMP JUMPDEST PUSH1 0x1 PUSH1 0x1 PUSH1 0xA0 SHL SUB DUP3 AND PUSH2 0x19F JUMPI PUSH1 0x40 MLOAD PUSH4 0xEC442F05 PUSH1 0xE0 SHL DUP2 MSTORE PUSH0 PUSH1 0x4 DUP3 ADD MSTORE PUSH1 0x24 ADD PUSH2 0xC0 JUMP JUMPDEST PUSH2 0x1AA PUSH0 DUP4 DUP4 PUSH2 0x1AE JUMP JUMPDEST POP POP JUMP JUMPDEST PUSH2 0x1B9 DUP4 DUP4 DUP4 PUSH2 0x1BE JUMP JUMPDEST POP POP POP JUMP JUMPDEST PUSH2 0x1C9 DUP4 DUP4 DUP4 PUSH2 0x221 JUMP JUMPDEST PUSH1 0x1 PUSH1 0x1 PUSH1 0xA0 SHL SUB DUP4 AND PUSH2 0x1B9 JUMPI PUSH0 PUSH2 0x1E1 PUSH1 0x80 MLOAD SWAP1 JUMP JUMPDEST SWAP1 POP PUSH0 PUSH2 0x1ED PUSH1 0x2 SLOAD SWAP1 JUMP JUMPDEST SWAP1 POP DUP2 DUP2 GT ISZERO PUSH2 0x21A JUMPI PUSH1 0x40 MLOAD PUSH4 0x279E7E15 PUSH1 0xE2 SHL DUP2 MSTORE PUSH1 0x4 DUP2 ADD DUP3 SWAP1 MSTORE PUSH1 0x24 DUP2 ADD DUP4 SWAP1 MSTORE PUSH1 0x44 ADD PUSH2 0xC0 JUMP JUMPDEST POP POP POP POP POP JUMP JUMPDEST PUSH1 0x1 PUSH1 0x1 PUSH1 0xA0 SHL SUB DUP4 AND PUSH2 0x24B JUMPI DUP1 PUSH1 0x2 PUSH0 DUP3 DUP3 SLOAD PUSH2 0x240 SWAP2 SWAP1 PUSH2 0x5D8 JUMP JUMPDEST SWAP1 SWAP2 SSTORE POP PUSH2 0x2BB SWAP1 POP JUMP JUMPDEST PUSH1 0x1 PUSH1 0x1 PUSH1 0xA0 SHL SUB DUP4 AND PUSH0 SWAP1 DUP2 MSTORE PUSH1 0x20 DUP2 SWAP1 MSTORE PUSH1 0x40 SWAP1 KECCAK256 SLOAD DUP2 DUP2 LT ISZERO PUSH2 0x29D JUMPI PUSH1 0x40 MLOAD PUSH4 0x391434E3 PUSH1 0xE2 SHL DUP2 MSTORE PUSH1 0x1 PUSH1 0x1 PUSH1 0xA0 SHL SUB DUP6 AND PUSH1 0x4 DUP3 ADD MSTORE PUSH1 0x24 DUP2 ADD DUP3 SWAP1 MSTORE PUSH1 0x44 DUP2 ADD DUP4 SWAP1 MSTORE PUSH1 0x64 ADD PUSH2 0xC0 JUMP JUMPDEST PUSH1 0x1 PUSH1 0x1 PUSH1 0xA0 SHL SUB DUP5 AND PUSH0 SWAP1 DUP2 MSTORE PUSH1 0x20 DUP2 SWAP1 MSTORE PUSH1 0x40 SWAP1 KECCAK256 SWAP1 DUP3 SWAP1 SUB SWAP1 SSTORE JUMPDEST PUSH1 0x1 PUSH1 0x1 PUSH1 0xA0 SHL SUB DUP3 AND PUSH2 0x2D7 JUMPI PUSH1 0x2 DUP1 SLOAD DUP3 SWAP1 SUB SWAP1 SSTORE PUSH2 0x2F5 JUMP JUMPDEST PUSH1 0x1 PUSH1 0x1 PUSH1 0xA0 SHL SUB DUP3 AND PUSH0 SWAP1 DUP2 MSTORE PUSH1 0x20 DUP2 SWAP1 MSTORE PUSH1 0x40 SWAP1 KECCAK256 DUP1 SLOAD DUP3 ADD SWAP1 SSTORE JUMPDEST DUP2 PUSH1 0x1 PUSH1 0x1 PUSH1 0xA0 SHL SUB AND DUP4 PUSH1 0x1 PUSH1 0x1 PUSH1 0xA0 SHL SUB AND PUSH32 0xDDF252AD1BE2C89B69C2B068FC378DAA952BA7F163C4A11628F55A4DF523B3EF DUP4 PUSH1 0x40 MLOAD PUSH2 0x33A SWAP2 DUP2 MSTORE PUSH1 0x20 ADD SWAP1 JUMP JUMPDEST PUSH1 0x40 MLOAD DUP1 SWAP2 SUB SWAP1 LOG3 POP POP POP JUMP JUMPDEST PUSH0 PUSH0 PUSH1 0x40 DUP4 DUP6 SUB SLT ISZERO PUSH2 0x358 JUMPI PUSH0 PUSH0 REVERT JUMPDEST POP POP DUP1 MLOAD PUSH1 0x20 SWAP1 SWAP2 ADD MLOAD SWAP1 SWAP3 SWAP1 SWAP2 POP JUMP JUMPDEST PUSH4 0x4E487B71 PUSH1 0xE0 SHL PUSH0 MSTORE PUSH1 0x11 PUSH1 0x4 MSTORE PUSH1 0x24 PUSH0 REVERT JUMPDEST PUSH1 0x1 DUP2 JUMPDEST PUSH1 0x1 DUP5 GT ISZERO PUSH2 0x3B8 JUMPI DUP1 DUP6 DIV DUP2 GT ISZERO PUSH2 0x39C JUMPI PUSH2 0x39C PUSH2 0x369 JUMP JUMPDEST PUSH1 0x1 DUP5 AND ISZERO PUSH2 0x3AA JUMPI SWAP1 DUP2 MUL SWAP1 JUMPDEST PUSH1 0x1 SWAP4 SWAP1 SWAP4 SHR SWAP3 DUP1 MUL PUSH2 0x381 JUMP JUMPDEST SWAP4 POP SWAP4 SWAP2 POP POP JUMP JUMPDEST PUSH0 DUP3 PUSH2 0x3CE JUMPI POP PUSH1 0x1 PUSH2 0x45C JUMP JUMPDEST DUP2 PUSH2 0x3DA JUMPI POP PUSH0 PUSH2 0x45C JUMP JUMPDEST DUP2 PUSH1 0x1 DUP2 EQ PUSH2 0x3F0 JUMPI PUSH1 0x2 DUP2 EQ PUSH2 0x3FA JUMPI PUSH2 0x416 JUMP JUMPDEST PUSH1 0x1 SWAP2 POP POP PUSH2 0x45C JUMP JUMPDEST PUSH1 0xFF DUP5 GT ISZERO PUSH2 0x40B JUMPI PUSH2 0x40B PUSH2 0x369 JUMP JUMPDEST POP POP PUSH1 0x1 DUP3 SHL PUSH2 0x45C JUMP JUMPDEST POP PUSH1 0x20 DUP4 LT PUSH2 0x133 DUP4 LT AND PUSH1 0x4E DUP5 LT PUSH1 0xB DUP5 LT AND OR ISZERO PUSH2 0x439 JUMPI POP DUP2 DUP2 EXP PUSH2 0x45C JUMP JUMPDEST PUSH2 0x445 PUSH0 NOT DUP5 DUP5 PUSH2 0x37D JUMP JUMPDEST DUP1 PUSH0 NOT DIV DUP3 GT ISZERO PUSH2 0x458 JUMPI PUSH2 0x458 PUSH2 0x369 JUMP JUMPDEST MUL SWAP1 POP JUMPDEST SWAP3 SWAP2 POP POP JUMP JUMPDEST PUSH0 PUSH2 0x470 PUSH1 0xFF DUP5 AND DUP4 PUSH2 0x3C0 JUMP JUMPDEST SWAP4 SWAP3 POP POP POP JUMP JUMPDEST DUP1 DUP3 MUL DUP2 ISZERO DUP3 DUP3 DIV DUP5 EQ OR PUSH2 0x45C JUMPI PUSH2 0x45C PUSH2 0x369 JUMP JUMPDEST PUSH4 0x4E487B71 PUSH1 0xE0 SHL PUSH0 MSTORE PUSH1 0x41 PUSH1 0x4 MSTORE PUSH1 0x24 PUSH0 REVERT JUMPDEST PUSH1 0x1 DUP2 DUP2 SHR SWAP1 DUP3 AND DUP1 PUSH2 0x4B6 JUMPI PUSH1 0x7F DUP3 AND SWAP2 POP JUMPDEST PUSH1 0x20 DUP3 LT DUP2 SUB PUSH2 0x4D4 JUMPI PUSH4 0x4E487B71 PUSH1 0xE0 SHL PUSH0 MSTORE PUSH1 0x22 PUSH1 0x4 MSTORE PUSH1 0x24 PUSH0 REVERT JUMPDEST POP SWAP2 SWAP1 POP JUMP JUMPDEST PUSH1 0x1F DUP3 GT ISZERO PUSH2 0x1B9 JUMPI DUP1 PUSH0 MSTORE PUSH1 0x20 PUSH0 KECCAK256 PUSH1 0x1F DUP5 ADD PUSH1 0x5 SHR DUP2 ADD PUSH1 0x20 DUP6 LT ISZERO PUSH2 0x4FF JUMPI POP DUP1 JUMPDEST PUSH1 0x1F DUP5 ADD PUSH1 0x5 SHR DUP3 ADD SWAP2 POP JUMPDEST DUP2 DUP2 LT ISZERO PUSH2 0x21A JUMPI PUSH0 DUP2 SSTORE PUSH1 0x1 ADD PUSH2 0x50B JUMP JUMPDEST DUP2 MLOAD PUSH1 0x1 PUSH1 0x1 PUSH1 0x40 SHL SUB DUP2 GT ISZERO PUSH2 0x537 JUMPI PUSH2 0x537 PUSH2 0x48E JUMP JUMPDEST PUSH2 0x54B DUP2 PUSH2 0x545 DUP5 SLOAD PUSH2 0x4A2 JUMP JUMPDEST DUP5 PUSH2 0x4DA JUMP JUMPDEST PUSH1 0x20 PUSH1 0x1F DUP3 GT PUSH1 0x1 DUP2 EQ PUSH2 0x57D JUMPI PUSH0 DUP4 ISZERO PUSH2 0x566 JUMPI POP DUP5 DUP3 ADD MLOAD JUMPDEST PUSH0 NOT PUSH1 0x3 DUP6 SWAP1 SHL SHR NOT AND PUSH1 0x1 DUP5 SWAP1 SHL OR DUP5 SSTORE PUSH2 0x21A JUMP JUMPDEST PUSH0 DUP5 DUP2 MSTORE PUSH1 0x20 DUP2 KECCAK256 PUSH1 0x1F NOT DUP6 AND SWAP2 JUMPDEST DUP3 DUP2 LT ISZERO PUSH2 0x5AC JUMPI DUP8 DUP6 ADD MLOAD DUP3 SSTORE PUSH1 0x20 SWAP5 DUP6 ADD SWAP5 PUSH1 0x1 SWAP1 SWAP3 ADD SWAP2 ADD PUSH2 0x58C JUMP JUMPDEST POP DUP5 DUP3 LT ISZERO PUSH2 0x5C9 JUMPI DUP7 DUP5 ADD MLOAD PUSH0 NOT PUSH1 0x3 DUP8 SWAP1 SHL PUSH1 0xF8 AND SHR NOT AND DUP2 SSTORE JUMPDEST POP POP POP POP PUSH1 0x1 SWAP1 DUP2 SHL ADD SWAP1 SSTORE POP JUMP JUMPDEST DUP1 DUP3 ADD DUP1 DUP3 GT ISZERO PUSH2 0x45C JUMPI PUSH2 0x45C PUSH2 0x369 JUMP JUMPDEST PUSH1 0x80 MLOAD PUSH2 0xB66 PUSH2 0x611 PUSH0 CODECOPY PUSH0 DUP2 DUP2 PUSH2 0x176 ADD MSTORE DUP2 DUP2 PUSH2 0x35C ADD MSTORE PUSH2 0x737 ADD MSTORE PUSH2 0xB66 PUSH0 RETURN INVALID PUSH1 0x80 PUSH1 0x40 MSTORE CALLVALUE DUP1 ISZERO PUSH2 0xF JUMPI PUSH0 PUSH0 REVERT JUMPDEST POP PUSH1 0x4 CALLDATASIZE LT PUSH2 0xFB JUMPI PUSH0 CALLDATALOAD PUSH1 0xE0 SHR DUP1 PUSH4 0x70A08231 GT PUSH2 0x93 JUMPI DUP1 PUSH4 0x95D89B41 GT PUSH2 0x63 JUMPI DUP1 PUSH4 0x95D89B41 EQ PUSH2 0x220 JUMPI DUP1 PUSH4 0xA9059CBB EQ PUSH2 0x228 JUMPI DUP1 PUSH4 0xDD62ED3E EQ PUSH2 0x23B JUMPI DUP1 PUSH4 0xF2FDE38B EQ PUSH2 0x273 JUMPI PUSH0 PUSH0 REVERT JUMPDEST DUP1 PUSH4 0x70A08231 EQ PUSH2 0x1C2 JUMPI DUP1 PUSH4 0x715018A6 EQ PUSH2 0x1EA JUMPI DUP1 PUSH4 0x79CC6790 EQ PUSH2 0x1F2 JUMPI DUP1 PUSH4 0x8DA5CB5B EQ PUSH2 0x205 JUMPI PUSH0 PUSH0 REVERT JUMPDEST DUP1 PUSH4 0x313CE567 GT PUSH2 0xCE JUMPI DUP1 PUSH4 0x313CE567 EQ PUSH2 0x165 JUMPI DUP1 PUSH4 0x355274EA EQ PUSH2 0x174 JUMPI DUP1 PUSH4 0x40C10F19 EQ PUSH2 0x19A JUMPI DUP1 PUSH4 0x42966C68 EQ PUSH2 0x1AF JUMPI PUSH0 PUSH0 REVERT JUMPDEST DUP1 PUSH4 0x6FDDE03 EQ PUSH2 0xFF JUMPI DUP1 PUSH4 0x95EA7B3 EQ PUSH2 0x11D JUMPI DUP1 PUSH4 0x18160DDD EQ PUSH2 0x140 JUMPI DUP1 PUSH4 0x23B872DD EQ PUSH2 0x152 JUMPI JUMPDEST PUSH0 PUSH0 REVERT JUMPDEST PUSH2 0x107 PUSH2 0x286 JUMP JUMPDEST PUSH1 0x40 MLOAD PUSH2 0x114 SWAP2 SWAP1 PUSH2 0x8AF JUMP JUMPDEST PUSH1 0x40 MLOAD DUP1 SWAP2 SUB SWAP1 RETURN JUMPDEST PUSH2 0x130 PUSH2 0x12B CALLDATASIZE PUSH1 0x4 PUSH2 0x8FF JUMP JUMPDEST PUSH2 0x316 JUMP JUMPDEST PUSH1 0x40 MLOAD SWAP1 ISZERO ISZERO DUP2 MSTORE PUSH1 0x20 ADD PUSH2 0x114 JUMP JUMPDEST PUSH1 0x2 SLOAD JUMPDEST PUSH1 0x40 MLOAD SWAP1 DUP2 MSTORE PUSH1 0x20 ADD PUSH2 0x114 JUMP JUMPDEST PUSH2 0x130 PUSH2 0x160 CALLDATASIZE PUSH1 0x4 PUSH2 0x927 JUMP JUMPDEST PUSH2 0x32F JUMP JUMPDEST PUSH1 0x40 MLOAD PUSH1 0x12 DUP2 MSTORE PUSH1 0x20 ADD PUSH2 0x114 JUMP JUMPDEST PUSH32 0x0 PUSH2 0x144 JUMP JUMPDEST PUSH2 0x1AD PUSH2 0x1A8 CALLDATASIZE PUSH1 0x4 PUSH2 0x8FF JUMP JUMPDEST PUSH2 0x352 JUMP JUMPDEST STOP JUMPDEST PUSH2 0x1AD PUSH2 0x1BD CALLDATASIZE PUSH1 0x4 PUSH2 0x961 JUMP JUMPDEST PUSH2 0x3E0 JUMP JUMPDEST PUSH2 0x144 PUSH2 0x1D0 CALLDATASIZE PUSH1 0x4 PUSH2 0x978 JUMP JUMPDEST PUSH1 0x1 PUSH1 0x1 PUSH1 0xA0 SHL SUB AND PUSH0 SWAP1 DUP2 MSTORE PUSH1 0x20 DUP2 SWAP1 MSTORE PUSH1 0x40 SWAP1 KECCAK256 SLOAD SWAP1 JUMP JUMPDEST PUSH2 0x1AD PUSH2 0x3ED JUMP JUMPDEST PUSH2 0x1AD PUSH2 0x200 CALLDATASIZE PUSH1 0x4 PUSH2 0x8FF JUMP JUMPDEST PUSH2 0x400 JUMP JUMPDEST PUSH1 0x5 SLOAD PUSH1 0x40 MLOAD PUSH1 0x1 PUSH1 0x1 PUSH1 0xA0 SHL SUB SWAP1 SWAP2 AND DUP2 MSTORE PUSH1 0x20 ADD PUSH2 0x114 JUMP JUMPDEST PUSH2 0x107 PUSH2 0x415 JUMP JUMPDEST PUSH2 0x130 PUSH2 0x236 CALLDATASIZE PUSH1 0x4 PUSH2 0x8FF JUMP JUMPDEST PUSH2 0x424 JUMP JUMPDEST PUSH2 0x144 PUSH2 0x249 CALLDATASIZE PUSH1 0x4 PUSH2 0x998 JUMP JUMPDEST PUSH1 0x1 PUSH1 0x1 PUSH1 0xA0 SHL SUB SWAP2 DUP3 AND PUSH0 SWAP1 DUP2 MSTORE PUSH1 0x1 PUSH1 0x20 SWAP1 DUP2 MSTORE PUSH1 0x40 DUP1 DUP4 KECCAK256 SWAP4 SWAP1 SWAP5 AND DUP3 MSTORE SWAP2 SWAP1 SWAP2 MSTORE KECCAK256 SLOAD SWAP1 JUMP JUMPDEST PUSH2 0x1AD PUSH2 0x281 CALLDATASIZE PUSH1 0x4 PUSH2 0x978 JUMP JUMPDEST PUSH2 0x431 JUMP JUMPDEST PUSH1 0x60 PUSH1 0x3 DUP1 SLOAD PUSH2 0x295 SWAP1 PUSH2 0x9C9 JUMP JUMPDEST DUP1 PUSH1 0x1F ADD PUSH1 0x20 DUP1 SWAP2 DIV MUL PUSH1 0x20 ADD PUSH1 0x40 MLOAD SWAP1 DUP2 ADD PUSH1 0x40 MSTORE DUP1 SWAP3 SWAP2 SWAP1 DUP2 DUP2 MSTORE PUSH1 0x20 ADD DUP3 DUP1 SLOAD PUSH2 0x2C1 SWAP1 PUSH2 0x9C9 JUMP JUMPDEST DUP1 ISZERO PUSH2 0x30C JUMPI DUP1 PUSH1 0x1F LT PUSH2 0x2E3 JUMPI PUSH2 0x100 DUP1 DUP4 SLOAD DIV MUL DUP4 MSTORE SWAP2 PUSH1 0x20 ADD SWAP2 PUSH2 0x30C JUMP JUMPDEST DUP3 ADD SWAP2 SWAP1 PUSH0 MSTORE PUSH1 0x20 PUSH0 KECCAK256 SWAP1 JUMPDEST DUP2 SLOAD DUP2 MSTORE SWAP1 PUSH1 0x1 ADD SWAP1 PUSH1 0x20 ADD DUP1 DUP4 GT PUSH2 0x2EF JUMPI DUP3 SWAP1 SUB PUSH1 0x1F AND DUP3 ADD SWAP2 JUMPDEST POP POP POP POP POP SWAP1 POP SWAP1 JUMP JUMPDEST PUSH0 CALLER PUSH2 0x323 DUP2 DUP6 DUP6 PUSH2 0x470 JUMP JUMPDEST PUSH1 0x1 SWAP2 POP POP JUMPDEST SWAP3 SWAP2 POP POP JUMP JUMPDEST PUSH0 CALLER PUSH2 0x33C DUP6 DUP3 DUP6 PUSH2 0x482 JUMP JUMPDEST PUSH2 0x347 DUP6 DUP6 DUP6 PUSH2 0x4FE JUMP JUMPDEST POP PUSH1 0x1 SWAP5 SWAP4 POP POP POP POP JUMP JUMPDEST PUSH2 0x35A PUSH2 0x55B JUMP JUMPDEST PUSH32 0x0 PUSH2 0x387 PUSH1 0x12 PUSH1 0xA PUSH2 0xAF8 JUMP JUMPDEST PUSH2 0x391 SWAP1 DUP4 PUSH2 0xB06 JUMP JUMPDEST PUSH1 0x2 SLOAD PUSH2 0x39E SWAP2 SWAP1 PUSH2 0xB1D JUMP JUMPDEST GT ISZERO PUSH2 0x3BD JUMPI PUSH1 0x40 MLOAD PUSH4 0xBF3AA03 PUSH1 0xE4 SHL DUP2 MSTORE PUSH1 0x4 ADD PUSH1 0x40 MLOAD DUP1 SWAP2 SUB SWAP1 REVERT JUMPDEST PUSH2 0x3DC DUP3 PUSH2 0x3CD PUSH1 0x12 PUSH1 0xA PUSH2 0xAF8 JUMP JUMPDEST PUSH2 0x3D7 SWAP1 DUP5 PUSH2 0xB06 JUMP JUMPDEST PUSH2 0x588 JUMP JUMPDEST POP POP JUMP JUMPDEST PUSH2 0x3EA CALLER DUP3 PUSH2 0x5BC JUMP JUMPDEST POP JUMP JUMPDEST PUSH2 0x3F5 PUSH2 0x55B JUMP JUMPDEST PUSH2 0x3FE PUSH0 PUSH2 0x5F0 JUMP JUMPDEST JUMP JUMPDEST PUSH2 0x40B DUP3 CALLER DUP4 PUSH2 0x482 JUMP JUMPDEST PUSH2 0x3DC DUP3 DUP3 PUSH2 0x5BC JUMP JUMPDEST PUSH1 0x60 PUSH1 0x4 DUP1 SLOAD PUSH2 0x295 SWAP1 PUSH2 0x9C9 JUMP JUMPDEST PUSH0 CALLER PUSH2 0x323 DUP2 DUP6 DUP6 PUSH2 0x4FE JUMP JUMPDEST PUSH2 0x439 PUSH2 0x55B JUMP JUMPDEST PUSH1 0x1 PUSH1 0x1 PUSH1 0xA0 SHL SUB DUP2 AND PUSH2 0x467 JUMPI PUSH1 0x40 MLOAD PUSH4 0x1E4FBDF7 PUSH1 0xE0 SHL DUP2 MSTORE PUSH0 PUSH1 0x4 DUP3 ADD MSTORE PUSH1 0x24 ADD JUMPDEST PUSH1 0x40 MLOAD DUP1 SWAP2 SUB SWAP1 REVERT JUMPDEST PUSH2 0x3EA DUP2 PUSH2 0x5F0 JUMP JUMPDEST PUSH2 0x47D DUP4 DUP4 DUP4 PUSH1 0x1 PUSH2 0x641 JUMP JUMPDEST POP POP POP JUMP JUMPDEST PUSH1 0x1 PUSH1 0x1 PUSH1 0xA0 SHL SUB DUP4 DUP2 AND PUSH0 SWAP1 DUP2 MSTORE PUSH1 0x1 PUSH1 0x20 SWAP1 DUP2 MSTORE PUSH1 0x40 DUP1 DUP4 KECCAK256 SWAP4 DUP7 AND DUP4 MSTORE SWAP3 SWAP1 MSTORE KECCAK256 SLOAD PUSH0 NOT DUP2 LT ISZERO PUSH2 0x4F8 JUMPI DUP2 DUP2 LT ISZERO PUSH2 0x4EA JUMPI PUSH1 0x40 MLOAD PUSH4 0x7DC7A0D9 PUSH1 0xE1 SHL DUP2 MSTORE PUSH1 0x1 PUSH1 0x1 PUSH1 0xA0 SHL SUB DUP5 AND PUSH1 0x4 DUP3 ADD MSTORE PUSH1 0x24 DUP2 ADD DUP3 SWAP1 MSTORE PUSH1 0x44 DUP2 ADD DUP4 SWAP1 MSTORE PUSH1 0x64 ADD PUSH2 0x45E JUMP JUMPDEST PUSH2 0x4F8 DUP5 DUP5 DUP5 DUP5 SUB PUSH0 PUSH2 0x641 JUMP JUMPDEST POP POP POP POP JUMP JUMPDEST PUSH1 0x1 PUSH1 0x1 PUSH1 0xA0 SHL SUB DUP4 AND PUSH2 0x527 JUMPI PUSH1 0x40 MLOAD PUSH4 0x4B637E8F PUSH1 0xE1 SHL DUP2 MSTORE PUSH0 PUSH1 0x4 DUP3 ADD MSTORE PUSH1 0x24 ADD PUSH2 0x45E JUMP JUMPDEST PUSH1 0x1 PUSH1 0x1 PUSH1 0xA0 SHL SUB DUP3 AND PUSH2 0x550 JUMPI PUSH1 0x40 MLOAD PUSH4 0xEC442F05 PUSH1 0xE0 SHL DUP2 MSTORE PUSH0 PUSH1 0x4 DUP3 ADD MSTORE PUSH1 0x24 ADD PUSH2 0x45E JUMP JUMPDEST PUSH2 0x47D DUP4 DUP4 DUP4 PUSH2 0x713 JUMP JUMPDEST PUSH1 0x5 SLOAD PUSH1 0x1 PUSH1 0x1 PUSH1 0xA0 SHL SUB AND CALLER EQ PUSH2 0x3FE JUMPI PUSH1 0x40 MLOAD PUSH4 0x118CDAA7 PUSH1 0xE0 SHL DUP2 MSTORE CALLER PUSH1 0x4 DUP3 ADD MSTORE PUSH1 0x24 ADD PUSH2 0x45E JUMP JUMPDEST PUSH1 0x1 PUSH1 0x1 PUSH1 0xA0 SHL SUB DUP3 AND PUSH2 0x5B1 JUMPI PUSH1 0x40 MLOAD PUSH4 0xEC442F05 PUSH1 0xE0 SHL DUP2 MSTORE PUSH0 PUSH1 0x4 DUP3 ADD MSTORE PUSH1 0x24 ADD PUSH2 0x45E JUMP JUMPDEST PUSH2 0x3DC PUSH0 DUP4 DUP4 PUSH2 0x713 JUMP JUMPDEST PUSH1 0x1 PUSH1 0x1 PUSH1 0xA0 SHL SUB DUP3 AND PUSH2 0x5E5 JUMPI PUSH1 0x40 MLOAD PUSH4 0x4B637E8F PUSH1 0xE1 SHL DUP2 MSTORE PUSH0 PUSH1 0x4 DUP3 ADD MSTORE PUSH1 0x24 ADD PUSH2 0x45E JUMP JUMPDEST PUSH2 0x3DC DUP3 PUSH0 DUP4 PUSH2 0x713 JUMP JUMPDEST PUSH1 0x5 DUP1 SLOAD PUSH1 0x1 PUSH1 0x1 PUSH1 0xA0 SHL SUB DUP4 DUP2 AND PUSH1 0x1 PUSH1 0x1 PUSH1 0xA0 SHL SUB NOT DUP4 AND DUP2 OR SWAP1 SWAP4 SSTORE PUSH1 0x40 MLOAD SWAP2 AND SWAP2 SWAP1 DUP3 SWAP1 PUSH32 0x8BE0079C531659141344CD1FD0A4F28419497F9722A3DAAFE3B4186F6B6457E0 SWAP1 PUSH0 SWAP1 LOG3 POP POP JUMP JUMPDEST PUSH1 0x1 PUSH1 0x1 PUSH1 0xA0 SHL SUB DUP5 AND PUSH2 0x66A JUMPI PUSH1 0x40 MLOAD PUSH4 0xE602DF05 PUSH1 0xE0 SHL DUP2 MSTORE PUSH0 PUSH1 0x4 DUP3 ADD MSTORE PUSH1 0x24 ADD PUSH2 0x45E JUMP JUMPDEST PUSH1 0x1 PUSH1 0x1 PUSH1 0xA0 SHL SUB DUP4 AND PUSH2 0x693 JUMPI PUSH1 0x40 MLOAD PUSH4 0x4A1406B1 PUSH1 0xE1 SHL DUP2 MSTORE PUSH0 PUSH1 0x4 DUP3 ADD MSTORE PUSH1 0x24 ADD PUSH2 0x45E JUMP JUMPDEST PUSH1 0x1 PUSH1 0x1 PUSH1 0xA0 SHL SUB DUP1 DUP6 AND PUSH0 SWAP1 DUP2 MSTORE PUSH1 0x1 PUSH1 0x20 SWAP1 DUP2 MSTORE PUSH1 0x40 DUP1 DUP4 KECCAK256 SWAP4 DUP8 AND DUP4 MSTORE SWAP3 SWAP1 MSTORE KECCAK256 DUP3 SWAP1 SSTORE DUP1 ISZERO PUSH2 0x4F8 JUMPI DUP3 PUSH1 0x1 PUSH1 0x1 PUSH1 0xA0 SHL SUB AND DUP5 PUSH1 0x1 PUSH1 0x1 PUSH1 0xA0 SHL SUB AND PUSH32 0x8C5BE1E5EBEC7D5BD14F71427D1E84F3DD0314C0F7B2291E5B200AC8C7C3B925 DUP5 PUSH1 0x40 MLOAD PUSH2 0x705 SWAP2 DUP2 MSTORE PUSH1 0x20 ADD SWAP1 JUMP JUMPDEST PUSH1 0x40 MLOAD DUP1 SWAP2 SUB SWAP1 LOG3 POP POP POP POP JUMP JUMPDEST PUSH2 0x47D DUP4 DUP4 DUP4 PUSH2 0x724 DUP4 DUP4 DUP4 PUSH2 0x789 JUMP JUMPDEST PUSH1 0x1 PUSH1 0x1 PUSH1 0xA0 SHL SUB DUP4 AND PUSH2 0x47D JUMPI PUSH1 0x2 SLOAD PUSH32 0x0 SWAP1 DUP2 DUP2 GT ISZERO PUSH2 0x782 JUMPI PUSH1 0x40 MLOAD PUSH4 0x279E7E15 PUSH1 0xE2 SHL DUP2 MSTORE PUSH1 0x4 DUP2 ADD DUP3 SWAP1 MSTORE PUSH1 0x24 DUP2 ADD DUP4 SWAP1 MSTORE PUSH1 0x44 ADD PUSH2 0x45E JUMP JUMPDEST POP POP POP POP POP JUMP JUMPDEST PUSH1 0x1 PUSH1 0x1 PUSH1 0xA0 SHL SUB DUP4 AND PUSH2 0x7B3 JUMPI DUP1 PUSH1 0x2 PUSH0 DUP3 DUP3 SLOAD PUSH2 0x7A8 SWAP2 SWAP1 PUSH2 0xB1D JUMP JUMPDEST SWAP1 SWAP2 SSTORE POP PUSH2 0x823 SWAP1 POP JUMP JUMPDEST PUSH1 0x1 PUSH1 0x1 PUSH1 0xA0 SHL SUB DUP4 AND PUSH0 SWAP1 DUP2 MSTORE PUSH1 0x20 DUP2 SWAP1 MSTORE PUSH1 0x40 SWAP1 KECCAK256 SLOAD DUP2 DUP2 LT ISZERO PUSH2 0x805 JUMPI PUSH1 0x40 MLOAD PUSH4 0x391434E3 PUSH1 0xE2 SHL DUP2 MSTORE PUSH1 0x1 PUSH1 0x1 PUSH1 0xA0 SHL SUB DUP6 AND PUSH1 0x4 DUP3 ADD MSTORE PUSH1 0x24 DUP2 ADD DUP3 SWAP1 MSTORE PUSH1 0x44 DUP2 ADD DUP4 SWAP1 MSTORE PUSH1 0x64 ADD PUSH2 0x45E JUMP JUMPDEST PUSH1 0x1 PUSH1 0x1 PUSH1 0xA0 SHL SUB DUP5 AND PUSH0 SWAP1 DUP2 MSTORE PUSH1 0x20 DUP2 SWAP1 MSTORE PUSH1 0x40 SWAP1 KECCAK256 SWAP1 DUP3 SWAP1 SUB SWAP1 SSTORE JUMPDEST PUSH1 0x1 PUSH1 0x1 PUSH1 0xA0 SHL SUB DUP3 AND PUSH2 0x83F JUMPI PUSH1 0x2 DUP1 SLOAD DUP3 SWAP1 SUB SWAP1 SSTORE PUSH2 0x85D JUMP JUMPDEST PUSH1 0x1 PUSH1 0x1 PUSH1 0xA0 SHL SUB DUP3 AND PUSH0 SWAP1 DUP2 MSTORE PUSH1 0x20 DUP2 SWAP1 MSTORE PUSH1 0x40 SWAP1 KECCAK256 DUP1 SLOAD DUP3 ADD SWAP1 SSTORE JUMPDEST DUP2 PUSH1 0x1 PUSH1 0x1 PUSH1 0xA0 SHL SUB AND DUP4 PUSH1 0x1 PUSH1 0x1 PUSH1 0xA0 SHL SUB AND PUSH32 0xDDF252AD1BE2C89B69C2B068FC378DAA952BA7F163C4A11628F55A4DF523B3EF DUP4 PUSH1 0x40 MLOAD PUSH2 0x8A2 SWAP2 DUP2 MSTORE PUSH1 0x20 ADD SWAP1 JUMP JUMPDEST PUSH1 0x40 MLOAD DUP1 SWAP2 SUB SWAP1 LOG3 POP POP POP JUMP JUMPDEST PUSH1 0x20 DUP2 MSTORE PUSH0 DUP3 MLOAD DUP1 PUSH1 0x20 DUP5 ADD MSTORE DUP1 PUSH1 0x20 DUP6 ADD PUSH1 0x40 DUP6 ADD MCOPY PUSH0 PUSH1 0x40 DUP3 DUP6 ADD ADD MSTORE PUSH1 0x40 PUSH1 0x1F NOT PUSH1 0x1F DUP4 ADD AND DUP5 ADD ADD SWAP2 POP POP SWAP3 SWAP2 POP POP JUMP JUMPDEST DUP1 CALLDATALOAD PUSH1 0x1 PUSH1 0x1 PUSH1 0xA0 SHL SUB DUP2 AND DUP2 EQ PUSH2 0x8FA JUMPI PUSH0 PUSH0 REVERT JUMPDEST SWAP2 SWAP1 POP JUMP JUMPDEST PUSH0 PUSH0 PUSH1 0x40 DUP4 DUP6 SUB SLT ISZERO PUSH2 0x910 JUMPI PUSH0 PUSH0 REVERT JUMPDEST PUSH2 0x919 DUP4 PUSH2 0x8E4 JUMP JUMPDEST SWAP5 PUSH1 0x20 SWAP4 SWAP1 SWAP4 ADD CALLDATALOAD SWAP4 POP POP POP JUMP JUMPDEST PUSH0 PUSH0 PUSH0 PUSH1 0x60 DUP5 DUP7 SUB SLT ISZERO PUSH2 0x939 JUMPI PUSH0 PUSH0 REVERT JUMPDEST PUSH2 0x942 DUP5 PUSH2 0x8E4 JUMP JUMPDEST SWAP3 POP PUSH2 0x950 PUSH1 0x20 DUP6 ADD PUSH2 0x8E4 JUMP JUMPDEST SWAP3 SWAP6 SWAP3 SWAP5 POP POP POP PUSH1 0x40 SWAP2 SWAP1 SWAP2 ADD CALLDATALOAD SWAP1 JUMP JUMPDEST PUSH0 PUSH1 0x20 DUP3 DUP5 SUB SLT ISZERO PUSH2 0x971 JUMPI PUSH0 PUSH0 REVERT JUMPDEST POP CALLDATALOAD SWAP2 SWAP1 POP JUMP JUMPDEST PUSH0 PUSH1 0x20 DUP3 DUP5 SUB SLT ISZERO PUSH2 0x988 JUMPI PUSH0 PUSH0 REVERT JUMPDEST PUSH2 0x991 DUP3 PUSH2 0x8E4 JUMP JUMPDEST SWAP4 SWAP3 POP POP POP JUMP JUMPDEST PUSH0 PUSH0 PUSH1 0x40 DUP4 DUP6 SUB SLT ISZERO PUSH2 0x9A9 JUMPI PUSH0 PUSH0 REVERT JUMPDEST PUSH2 0x9B2 DUP4 PUSH2 0x8E4 JUMP JUMPDEST SWAP2 POP PUSH2 0x9C0 PUSH1 0x20 DUP5 ADD PUSH2 0x8E4 JUMP JUMPDEST SWAP1 POP SWAP3 POP SWAP3 SWAP1 POP JUMP JUMPDEST PUSH1 0x1 DUP2 DUP2 SHR SWAP1 DUP3 AND DUP1 PUSH2 0x9DD JUMPI PUSH1 0x7F DUP3 AND SWAP2 POP JUMPDEST PUSH1 0x20 DUP3 LT DUP2 SUB PUSH2 0x9FB JUMPI PUSH4 0x4E487B71 PUSH1 0xE0 SHL PUSH0 MSTORE PUSH1 0x22 PUSH1 0x4 MSTORE PUSH1 0x24 PUSH0 REVERT JUMPDEST POP SWAP2 SWAP1 POP JUMP JUMPDEST PUSH4 0x4E487B71 PUSH1 0xE0 SHL PUSH0 MSTORE PUSH1 0x11 PUSH1 0x4 MSTORE PUSH1 0x24 PUSH0 REVERT JUMPDEST PUSH1 0x1 DUP2 JUMPDEST PUSH1 0x1 DUP5 GT ISZERO PUSH2 0xA50 JUMPI DUP1 DUP6 DIV DUP2 GT ISZERO PUSH2 0xA34 JUMPI PUSH2 0xA34 PUSH2 0xA01 JUMP JUMPDEST PUSH1 0x1 DUP5 AND ISZERO PUSH2 0xA42 JUMPI SWAP1 DUP2 MUL SWAP1 JUMPDEST PUSH1 0x1 SWAP4 SWAP1 SWAP4 SHR SWAP3 DUP1 MUL PUSH2 0xA19 JUMP JUMPDEST SWAP4 POP SWAP4 SWAP2 POP POP JUMP JUMPDEST PUSH0 DUP3 PUSH2 0xA66 JUMPI POP PUSH1 0x1 PUSH2 0x329 JUMP JUMPDEST DUP2 PUSH2 0xA72 JUMPI POP PUSH0 PUSH2 0x329 JUMP JUMPDEST DUP2 PUSH1 0x1 DUP2 EQ PUSH2 0xA88 JUMPI PUSH1 0x2 DUP2 EQ PUSH2 0xA92 JUMPI PUSH2 0xAAE JUMP JUMPDEST PUSH1 0x1 SWAP2 POP POP PUSH2 0x329 JUMP JUMPDEST PUSH1 0xFF DUP5 GT ISZERO PUSH2 0xAA3 JUMPI PUSH2 0xAA3 PUSH2 0xA01 JUMP JUMPDEST POP POP PUSH1 0x1 DUP3 SHL PUSH2 0x329 JUMP JUMPDEST POP PUSH1 0x20 DUP4 LT PUSH2 0x133 DUP4 LT AND PUSH1 0x4E DUP5 LT PUSH1 0xB DUP5 LT AND OR ISZERO PUSH2 0xAD1 JUMPI POP DUP2 DUP2 EXP PUSH2 0x329 JUMP JUMPDEST PUSH2 0xADD PUSH0 NOT DUP5 DUP5 PUSH2 0xA15 JUMP JUMPDEST DUP1 PUSH0 NOT DIV DUP3 GT ISZERO PUSH2 0xAF0 JUMPI PUSH2 0xAF0 PUSH2 0xA01 JUMP JUMPDEST MUL SWAP4 SWAP3 POP POP POP JUMP JUMPDEST PUSH0 PUSH2 0x991 PUSH1 0xFF DUP5 AND DUP4 PUSH2 0xA58 JUMP JUMPDEST DUP1 DUP3 MUL DUP2 ISZERO DUP3 DUP3 DIV DUP5 EQ OR PUSH2 0x329 JUMPI PUSH2 0x329 PUSH2 0xA01 JUMP JUMPDEST DUP1 DUP3 ADD DUP1 DUP3 GT ISZERO PUSH2 0x329 JUMPI PUSH2 0x329 PUSH2 0xA01 JUMP INVALID LOG2 PUSH5 0x6970667358 0x22 SLT KECCAK256 0x26 0xB8 SWAP16 0x27 0xDC TLOAD EXTCODESIZE JUMPF 0xB406 0xC5 EQ 0xB6 PUSH26 0xA2DB27E6F0D84171F8E671D49DB8480ACB2C64736F6C63430008 0x1E STOP CALLER "
				},
				"gasEstimates": {
					"creation": {
						"codeDepositCost": "583600",
						"executionCost": "infinite",
						"totalCost": "infinite"
					},
					"external": {
						"allowance(address,address)": "infinite",
						"approve(address,uint256)": "24757",
						"balanceOf(address)": "2560",
						"burn(uint256)": "infinite",
						"burnFrom(address,uint256)": "infinite",
						"cap()": "infinite",
						"decimals()": "199",
						"mint(address,uint256)": "infinite",
						"name()": "infinite",
						"owner()": "2389",
						"renounceOwnership()": "infinite",
						"symbol()": "infinite",
						"totalSupply()": "2348",
						"transfer(address,uint256)": "infinite",
						"transferFrom(address,address,uint256)": "infinite",
						"transferOwnership(address)": "28421"
					},
					"internal": {
						"_update(address,address,uint256)": "infinite"
					}
				},
				"methodIdentifiers": {
					"allowance(address,address)": "dd62ed3e",
					"approve(address,uint256)": "095ea7b3",
					"balanceOf(address)": "70a08231",
					"burn(uint256)": "42966c68",
					"burnFrom(address,uint256)": "79cc6790",
					"cap()": "355274ea",
					"decimals()": "313ce567",
					"mint(address,uint256)": "40c10f19",
					"name()": "06fdde03",
					"owner()": "8da5cb5b",
					"renounceOwnership()": "715018a6",
					"symbol()": "95d89b41",
					"totalSupply()": "18160ddd",
					"transfer(address,uint256)": "a9059cbb",
					"transferFrom(address,address,uint256)": "23b872dd",
					"transferOwnership(address)": "f2fde38b"
				}
			},
			"storageLayout": {
				"storage": [
					{
						"astId": 307,
						"contract": "TecnoCoin.sol:TecnoCoin",
						"label": "_balances",
						"offset": 0,
						"slot": "0",
						"type": "t_mapping(t_address,t_uint256)"
					},
					{
						"astId": 313,
						"contract": "TecnoCoin.sol:TecnoCoin",
						"label": "_allowances",
						"offset": 0,
						"slot": "1",
						"type": "t_mapping(t_address,t_mapping(t_address,t_uint256))"
					},
					{
						"astId": 315,
						"contract": "TecnoCoin.sol:TecnoCoin",
						"label": "_totalSupply",
						"offset": 0,
						"slot": "2",
						"type": "t_uint256"
					},
					{
						"astId": 317,
						"contract": "TecnoCoin.sol:TecnoCoin",
						"label": "_name",
						"offset": 0,
						"slot": "3",
						"type": "t_string_storage"
					},
					{
						"astId": 319,
						"contract": "TecnoCoin.sol:TecnoCoin",
						"label": "_symbol",
						"offset": 0,
						"slot": "4",
						"type": "t_string_storage"
					},
					{
						"astId": 8,
						"contract": "TecnoCoin.sol:TecnoCoin",
						"label": "_owner",
						"offset": 0,
						"slot": "5",
						"type": "t_address"
					}
				],
				"types": {
					"t_address": {
						"encoding": "inplace",
						"label": "address",
						"numberOfBytes": "20"
					},
					"t_mapping(t_address,t_mapping(t_address,t_uint256))": {
						"encoding": "mapping",
						"key": "t_address",
						"label": "mapping(address => mapping(address => uint256))",
						"numberOfBytes": "32",
						"value": "t_mapping(t_address,t_uint256)"
					},
					"t_mapping(t_address,t_uint256)": {
						"encoding": "mapping",
						"key": "t_address",
						"label": "mapping(address => uint256)",
						"numberOfBytes": "32",
						"value": "t_uint256"
					},
					"t_string_storage": {
						"encoding": "bytes",
						"label": "string",
						"numberOfBytes": "32"
					},
					"t_uint256": {
						"encoding": "inplace",
						"label": "uint256",
						"numberOfBytes": "32"
					}
				}
			},
			"userdoc": {
				"kind": "user",
				"methods": {},
				"version": 1
			}
		}
	}
}